{
  "contractName": "EnvStorageImp",
  "abi": [
    {
      "constant": true,
      "inputs": [],
      "name": "BALLOT_DURATION_MAX_NAME",
      "outputs": [
        {
          "name": "",
          "type": "bytes32"
        }
      ],
      "payable": false,
      "stateMutability": "view",
      "type": "function"
    },
    {
      "constant": true,
      "inputs": [],
      "name": "STAKING_MIN_TYPE",
      "outputs": [
        {
          "name": "",
          "type": "uint256"
        }
      ],
      "payable": false,
      "stateMutability": "view",
      "type": "function"
    },
    {
      "constant": true,
      "inputs": [],
      "name": "GAS_PRICE_NAME",
      "outputs": [
        {
          "name": "",
          "type": "bytes32"
        }
      ],
      "payable": false,
      "stateMutability": "view",
      "type": "function"
    },
    {
      "constant": true,
      "inputs": [],
      "name": "STAKING_NAME",
      "outputs": [
        {
          "name": "",
          "type": "bytes32"
        }
      ],
      "payable": false,
      "stateMutability": "view",
      "type": "function"
    },
    {
      "constant": true,
      "inputs": [],
      "name": "GAS_PRICE_TYPE",
      "outputs": [
        {
          "name": "",
          "type": "uint256"
        }
      ],
      "payable": false,
      "stateMutability": "view",
      "type": "function"
    },
    {
      "constant": true,
      "inputs": [
        {
          "name": "h",
          "type": "bytes32"
        }
      ],
      "name": "getAddress",
      "outputs": [
        {
          "name": "",
          "type": "address"
        }
      ],
      "payable": false,
      "stateMutability": "view",
      "type": "function"
    },
    {
      "constant": true,
      "inputs": [],
      "name": "REWARD_POOL_NAME",
      "outputs": [
        {
          "name": "",
          "type": "bytes32"
        }
      ],
      "payable": false,
      "stateMutability": "view",
      "type": "function"
    },
    {
      "constant": true,
      "inputs": [
        {
          "name": "h",
          "type": "bytes32"
        }
      ],
      "name": "getBoolean",
      "outputs": [
        {
          "name": "",
          "type": "bool"
        }
      ],
      "payable": false,
      "stateMutability": "view",
      "type": "function"
    },
    {
      "constant": true,
      "inputs": [],
      "name": "BLOCK_PER_NAME",
      "outputs": [
        {
          "name": "",
          "type": "bytes32"
        }
      ],
      "payable": false,
      "stateMutability": "view",
      "type": "function"
    },
    {
      "constant": true,
      "inputs": [],
      "name": "BALLOT_DURATION_MAX_TYPE",
      "outputs": [
        {
          "name": "",
          "type": "uint256"
        }
      ],
      "payable": false,
      "stateMutability": "view",
      "type": "function"
    },
    {
      "constant": true,
      "inputs": [],
      "name": "GOV_NAME",
      "outputs": [
        {
          "name": "",
          "type": "bytes32"
        }
      ],
      "payable": false,
      "stateMutability": "view",
      "type": "function"
    },
    {
      "constant": true,
      "inputs": [],
      "name": "BALLOT_DURATION_MIN_NAME",
      "outputs": [
        {
          "name": "",
          "type": "bytes32"
        }
      ],
      "payable": false,
      "stateMutability": "view",
      "type": "function"
    },
    {
      "constant": true,
      "inputs": [],
      "name": "STAKING_MIN_NAME",
      "outputs": [
        {
          "name": "",
          "type": "bytes32"
        }
      ],
      "payable": false,
      "stateMutability": "view",
      "type": "function"
    },
    {
      "constant": false,
      "inputs": [],
      "name": "renounceOwnership",
      "outputs": [],
      "payable": false,
      "stateMutability": "nonpayable",
      "type": "function"
    },
    {
      "constant": true,
      "inputs": [],
      "name": "reg",
      "outputs": [
        {
          "name": "",
          "type": "address"
        }
      ],
      "payable": false,
      "stateMutability": "view",
      "type": "function"
    },
    {
      "constant": true,
      "inputs": [],
      "name": "ENV_STORAGE_NAME",
      "outputs": [
        {
          "name": "",
          "type": "bytes32"
        }
      ],
      "payable": false,
      "stateMutability": "view",
      "type": "function"
    },
    {
      "constant": true,
      "inputs": [],
      "name": "BLOCK_PER_TYPE",
      "outputs": [
        {
          "name": "",
          "type": "uint256"
        }
      ],
      "payable": false,
      "stateMutability": "view",
      "type": "function"
    },
    {
      "constant": true,
      "inputs": [],
      "name": "owner",
      "outputs": [
        {
          "name": "",
          "type": "address"
        }
      ],
      "payable": false,
      "stateMutability": "view",
      "type": "function"
    },
    {
      "constant": true,
      "inputs": [],
      "name": "isOwner",
      "outputs": [
        {
          "name": "",
          "type": "bool"
        }
      ],
      "payable": false,
      "stateMutability": "view",
      "type": "function"
    },
    {
      "constant": true,
      "inputs": [
        {
          "name": "h",
          "type": "bytes32"
        }
      ],
      "name": "getString",
      "outputs": [
        {
          "name": "",
          "type": "string"
        }
      ],
      "payable": false,
      "stateMutability": "view",
      "type": "function"
    },
    {
      "constant": true,
      "inputs": [],
      "name": "BALLOT_STORAGE_NAME",
      "outputs": [
        {
          "name": "",
          "type": "bytes32"
        }
      ],
      "payable": false,
      "stateMutability": "view",
      "type": "function"
    },
    {
      "constant": true,
      "inputs": [],
      "name": "STAKING_MAX_TYPE",
      "outputs": [
        {
          "name": "",
          "type": "uint256"
        }
      ],
      "payable": false,
      "stateMutability": "view",
      "type": "function"
    },
    {
      "constant": true,
      "inputs": [
        {
          "name": "h",
          "type": "bytes32"
        }
      ],
      "name": "getBytes32",
      "outputs": [
        {
          "name": "",
          "type": "bytes32"
        }
      ],
      "payable": false,
      "stateMutability": "view",
      "type": "function"
    },
    {
      "constant": false,
      "inputs": [
        {
          "name": "_addr",
          "type": "address"
        }
      ],
      "name": "setRegistry",
      "outputs": [],
      "payable": false,
      "stateMutability": "nonpayable",
      "type": "function"
    },
    {
      "constant": true,
      "inputs": [],
      "name": "BALLOT_DURATION_MIN_TYPE",
      "outputs": [
        {
          "name": "",
          "type": "uint256"
        }
      ],
      "payable": false,
      "stateMutability": "view",
      "type": "function"
    },
    {
      "constant": true,
      "inputs": [
        {
          "name": "h",
          "type": "bytes32"
        }
      ],
      "name": "getUint",
      "outputs": [
        {
          "name": "",
          "type": "uint256"
        }
      ],
      "payable": false,
      "stateMutability": "view",
      "type": "function"
    },
    {
      "constant": true,
      "inputs": [],
      "name": "STAKING_MAX_NAME",
      "outputs": [
        {
          "name": "",
          "type": "bytes32"
        }
      ],
      "payable": false,
      "stateMutability": "view",
      "type": "function"
    },
    {
      "constant": true,
      "inputs": [
        {
          "name": "h",
          "type": "bytes32"
        }
      ],
      "name": "getBytes",
      "outputs": [
        {
          "name": "",
          "type": "bytes"
        }
      ],
      "payable": false,
      "stateMutability": "view",
      "type": "function"
    },
    {
      "constant": true,
      "inputs": [
        {
          "name": "h",
          "type": "bytes32"
        }
      ],
      "name": "getInt",
      "outputs": [
        {
          "name": "",
          "type": "int256"
        }
      ],
      "payable": false,
      "stateMutability": "view",
      "type": "function"
    },
    {
      "constant": false,
      "inputs": [
        {
          "name": "newOwner",
          "type": "address"
        }
      ],
      "name": "transferOwnership",
      "outputs": [],
      "payable": false,
      "stateMutability": "nonpayable",
      "type": "function"
    },
    {
      "anonymous": false,
      "inputs": [
        {
          "indexed": true,
          "name": "_name",
          "type": "bytes32"
        },
        {
          "indexed": false,
          "name": "_value",
          "type": "string"
        }
      ],
      "name": "StringVarableChanged",
      "type": "event"
    },
    {
      "anonymous": false,
      "inputs": [
        {
          "indexed": true,
          "name": "_name",
          "type": "bytes32"
        },
        {
          "indexed": false,
          "name": "_value",
          "type": "uint256"
        }
      ],
      "name": "UintVarableChanged",
      "type": "event"
    },
    {
      "anonymous": false,
      "inputs": [
        {
          "indexed": true,
          "name": "_name",
          "type": "bytes32"
        },
        {
          "indexed": false,
          "name": "_value",
          "type": "int256"
        }
      ],
      "name": "IntVarableChanged",
      "type": "event"
    },
    {
      "anonymous": false,
      "inputs": [
        {
          "indexed": true,
          "name": "_name",
          "type": "bytes32"
        },
        {
          "indexed": false,
          "name": "_value",
          "type": "address"
        }
      ],
      "name": "AddressVarableChanged",
      "type": "event"
    },
    {
      "anonymous": false,
      "inputs": [
        {
          "indexed": true,
          "name": "_name",
          "type": "bytes32"
        },
        {
          "indexed": false,
          "name": "_value",
          "type": "bytes32"
        }
      ],
      "name": "Bytes32VarableChanged",
      "type": "event"
    },
    {
      "anonymous": false,
      "inputs": [
        {
          "indexed": true,
          "name": "_name",
          "type": "bytes32"
        },
        {
          "indexed": false,
          "name": "_value",
          "type": "bytes"
        }
      ],
      "name": "BytesVarableChanged",
      "type": "event"
    },
    {
      "anonymous": false,
      "inputs": [
        {
          "indexed": true,
          "name": "_name",
          "type": "bytes32"
        },
        {
          "indexed": true,
          "name": "_type",
          "type": "uint256"
        },
        {
          "indexed": false,
          "name": "_value",
          "type": "string"
        }
      ],
      "name": "VarableChanged",
      "type": "event"
    },
    {
      "anonymous": false,
      "inputs": [
        {
          "indexed": true,
          "name": "previousOwner",
          "type": "address"
        },
        {
          "indexed": true,
          "name": "newOwner",
          "type": "address"
        }
      ],
      "name": "OwnershipTransferred",
      "type": "event"
    },
    {
      "constant": false,
      "inputs": [
        {
          "name": "_blockPer",
          "type": "uint256"
        },
        {
          "name": "_ballotDurationMin",
          "type": "uint256"
        },
        {
          "name": "_ballotDurationMax",
          "type": "uint256"
        },
        {
          "name": "_stakingMin",
          "type": "uint256"
        },
        {
          "name": "_stakingMax",
          "type": "uint256"
        },
        {
          "name": "_gasPrice",
          "type": "uint256"
        }
      ],
      "name": "initialize",
      "outputs": [],
      "payable": false,
      "stateMutability": "nonpayable",
      "type": "function"
    },
    {
      "constant": true,
      "inputs": [],
      "name": "getBlockPer",
      "outputs": [
        {
          "name": "",
          "type": "uint256"
        }
      ],
      "payable": false,
      "stateMutability": "view",
      "type": "function"
    },
    {
      "constant": true,
      "inputs": [],
      "name": "getBallotDurationMin",
      "outputs": [
        {
          "name": "",
          "type": "uint256"
        }
      ],
      "payable": false,
      "stateMutability": "view",
      "type": "function"
    },
    {
      "constant": true,
      "inputs": [],
      "name": "getBallotDurationMax",
      "outputs": [
        {
          "name": "",
          "type": "uint256"
        }
      ],
      "payable": false,
      "stateMutability": "view",
      "type": "function"
    },
    {
      "constant": true,
      "inputs": [],
      "name": "getStakingMin",
      "outputs": [
        {
          "name": "",
          "type": "uint256"
        }
      ],
      "payable": false,
      "stateMutability": "view",
      "type": "function"
    },
    {
      "constant": true,
      "inputs": [],
      "name": "getStakingMax",
      "outputs": [
        {
          "name": "",
          "type": "uint256"
        }
      ],
      "payable": false,
      "stateMutability": "view",
      "type": "function"
    },
    {
      "constant": true,
      "inputs": [],
      "name": "getGasPrice",
      "outputs": [
        {
          "name": "",
          "type": "uint256"
        }
      ],
      "payable": false,
      "stateMutability": "view",
      "type": "function"
    },
    {
      "constant": false,
      "inputs": [
        {
          "name": "_value",
          "type": "uint256"
        }
      ],
      "name": "setBlockPer",
      "outputs": [],
      "payable": false,
      "stateMutability": "nonpayable",
      "type": "function"
    },
    {
      "constant": false,
      "inputs": [
        {
          "name": "_value",
          "type": "uint256"
        }
      ],
      "name": "setBallotDurationMin",
      "outputs": [],
      "payable": false,
      "stateMutability": "nonpayable",
      "type": "function"
    },
    {
      "constant": false,
      "inputs": [
        {
          "name": "_value",
          "type": "uint256"
        }
      ],
      "name": "setBallotDurationMax",
      "outputs": [],
      "payable": false,
      "stateMutability": "nonpayable",
      "type": "function"
    },
    {
      "constant": false,
      "inputs": [
        {
          "name": "_value",
          "type": "uint256"
        }
      ],
      "name": "setStakingMin",
      "outputs": [],
      "payable": false,
      "stateMutability": "nonpayable",
      "type": "function"
    },
    {
      "constant": false,
      "inputs": [
        {
          "name": "_value",
          "type": "uint256"
        }
      ],
      "name": "setStakingMax",
      "outputs": [],
      "payable": false,
      "stateMutability": "nonpayable",
      "type": "function"
    },
    {
      "constant": false,
      "inputs": [
        {
          "name": "_value",
          "type": "bytes"
        }
      ],
      "name": "setBlockPerByBytes",
      "outputs": [],
      "payable": false,
      "stateMutability": "nonpayable",
      "type": "function"
    },
    {
      "constant": false,
      "inputs": [
        {
          "name": "_value",
          "type": "bytes"
        }
      ],
      "name": "setBallotDurationMinByBytes",
      "outputs": [],
      "payable": false,
      "stateMutability": "nonpayable",
      "type": "function"
    },
    {
      "constant": false,
      "inputs": [
        {
          "name": "_value",
          "type": "bytes"
        }
      ],
      "name": "setBallotDurationMaxByBytes",
      "outputs": [],
      "payable": false,
      "stateMutability": "nonpayable",
      "type": "function"
    },
    {
      "constant": false,
      "inputs": [
        {
          "name": "_value",
          "type": "bytes"
        }
      ],
      "name": "setStakingMinByBytes",
      "outputs": [],
      "payable": false,
      "stateMutability": "nonpayable",
      "type": "function"
    },
    {
      "constant": false,
      "inputs": [
        {
          "name": "_value",
          "type": "bytes"
        }
      ],
      "name": "setStakingMaxByBytes",
      "outputs": [],
      "payable": false,
      "stateMutability": "nonpayable",
      "type": "function"
    },
    {
      "constant": true,
      "inputs": [],
      "name": "getTestInt",
      "outputs": [
        {
          "name": "",
          "type": "int256"
        }
      ],
      "payable": false,
      "stateMutability": "view",
      "type": "function"
    },
    {
      "constant": true,
      "inputs": [],
      "name": "getTestAddress",
      "outputs": [
        {
          "name": "",
          "type": "address"
        }
      ],
      "payable": false,
      "stateMutability": "view",
      "type": "function"
    },
    {
      "constant": true,
      "inputs": [],
      "name": "getTestBytes32",
      "outputs": [
        {
          "name": "",
          "type": "bytes32"
        }
      ],
      "payable": false,
      "stateMutability": "view",
      "type": "function"
    },
    {
      "constant": true,
      "inputs": [],
      "name": "getTestBytes",
      "outputs": [
        {
          "name": "",
          "type": "bytes"
        }
      ],
      "payable": false,
      "stateMutability": "view",
      "type": "function"
    },
    {
      "constant": true,
      "inputs": [],
      "name": "getTestString",
      "outputs": [
        {
          "name": "",
          "type": "string"
        }
      ],
      "payable": false,
      "stateMutability": "view",
      "type": "function"
    },
    {
      "constant": false,
      "inputs": [
        {
          "name": "_value",
          "type": "bytes"
        }
      ],
      "name": "setTestIntByBytes",
      "outputs": [],
      "payable": false,
      "stateMutability": "nonpayable",
      "type": "function"
    },
    {
      "constant": false,
      "inputs": [
        {
          "name": "_value",
          "type": "bytes"
        }
      ],
      "name": "setTestAddressByBytes",
      "outputs": [],
      "payable": false,
      "stateMutability": "nonpayable",
      "type": "function"
    },
    {
      "constant": false,
      "inputs": [
        {
          "name": "_value",
          "type": "bytes"
        }
      ],
      "name": "setTestBytes32ByBytes",
      "outputs": [],
      "payable": false,
      "stateMutability": "nonpayable",
      "type": "function"
    },
    {
      "constant": false,
      "inputs": [
        {
          "name": "_value",
          "type": "bytes"
        }
      ],
      "name": "setTestBytesByBytes",
      "outputs": [],
      "payable": false,
      "stateMutability": "nonpayable",
      "type": "function"
    },
    {
      "constant": false,
      "inputs": [
        {
          "name": "_value",
          "type": "bytes"
        }
      ],
      "name": "setTestStringByBytes",
      "outputs": [],
      "payable": false,
      "stateMutability": "nonpayable",
      "type": "function"
    }
  ],
  "bytecode": "0x608060405233600760006101000a81548173ffffffffffffffffffffffffffffffffffffffff021916908373ffffffffffffffffffffffffffffffffffffffff160217905550600760009054906101000a900473ffffffffffffffffffffffffffffffffffffffff1673ffffffffffffffffffffffffffffffffffffffff16600073ffffffffffffffffffffffffffffffffffffffff167f8be0079c531659141344cd1fd0a4f28419497f9722a3daafe3b4186f6b6457e060405160405180910390a3613607806100d16000396000f3006080604052600436106102a8576000357c0100000000000000000000000000000000000000000000000000000000900463ffffffff16806215a73b146102ad578063076cd77f146102e0578063081800351461030b5780630a61b0ba146103745780630ea0a8c6146103dd5780630f36c0a814610408578063124cea371461043b57806315bf4b05146104a45780631b27e01b146105345780631e0cba0d1461055f5780632118b7821461059257806321f8a721146105bd5780632d7aa82b1461062e5780632eb57c651461068d5780632eccd832146106ba5780632f40992e146107235780632f809ee1146107565780632f91be481461078157806333be496e146108115780633848207a1461083c5780633c34560414610885578063455259cb146108b257806346e1d553146108dd5780635855e1e5146109465780635f53e21d146109795780635f5a4f66146109a457806368cb4da314610a0d5780636c78d2cf14610a405780636d583ca714610a735780636fde207a14610aa6578063715018a614610ad957806371c6960d14610af0578063737c59b814610b59578063738fdd1a14610b845780637bf4653014610bdb578063824cf93814610c0e578063852cf38f14610c395780638a523b6b14610c665780638da5cb5b14610ccf5780638f32d59b14610d26578063986e791a14610d555780639986e4b914610dff5780639f3ab54a14610e32578063a36f259b14610e5d578063a5d6a58114610e8a578063a6ed563e14610ef3578063a91ee0dc14610f40578063aed31e7b14610f83578063bd02d0f514610fae578063c00ace6c14610ff3578063c031a18014611026578063d6147814146110d0578063dc97d96214611127578063dd46cb811461116c578063e60308db146111d5578063f2fde38b14611200578063f821459114611243575b600080fd5b3480156102b957600080fd5b506102c2611270565b60405180826000191660001916815260200191505060405180910390f35b3480156102ec57600080fd5b506102f56112a9565b6040518082815260200191505060405180910390f35b34801561031757600080fd5b50610372600480360381019080803590602001908201803590602001908080601f01602080910402602001604051908101604052809392919081815260200183838082843782019150505050505091929192905050506112ee565b005b34801561038057600080fd5b506103db600480360381019080803590602001908201803590602001908080601f01602080910402602001604051908101604052809392919081815260200183838082843782019150505050505091929192905050506113da565b005b3480156103e957600080fd5b506103f2611498565b6040518082815260200191505060405180910390f35b34801561041457600080fd5b5061041d6114a8565b60405180826000191660001916815260200191505060405180910390f35b34801561044757600080fd5b506104a2600480360381019080803590602001908201803590602001908080601f01602080910402602001604051908101604052809392919081815260200183838082843782019150505050505091929192905050506114e1565b005b3480156104b057600080fd5b506104b961159f565b6040518080602001828103825283818151815260200191508051906020019080838360005b838110156104f95780820151818401526020810190506104de565b50505050905090810190601f1680156105265780820380516001836020036101000a031916815260200191505b509250505060405180910390f35b34801561054057600080fd5b506105496115e4565b6040518082815260200191505060405180910390f35b34801561056b57600080fd5b50610574611629565b60405180826000191660001916815260200191505060405180910390f35b34801561059e57600080fd5b506105a761164d565b6040518082815260200191505060405180910390f35b3480156105c957600080fd5b506105ec600480360381019080803560001916906020019092919050505061165d565b604051808273ffffffffffffffffffffffffffffffffffffffff1673ffffffffffffffffffffffffffffffffffffffff16815260200191505060405180910390f35b34801561063a57600080fd5b5061068b6004803603810190808035906020019092919080359060200190929190803590602001909291908035906020019092919080359060200190929190803590602001909291905050506116a4565b005b34801561069957600080fd5b506106b860048036038101908080359060200190929190505050611bde565b005b3480156106c657600080fd5b50610721600480360381019080803590602001908201803590602001908080601f0160208091040260200160405190810160405280939291908181526020018383808284378201915050505050509192919290505050611cca565b005b34801561072f57600080fd5b50610738611d88565b60405180826000191660001916815260200191505060405180910390f35b34801561076257600080fd5b5061076b611dac565b6040518082815260200191505060405180910390f35b34801561078d57600080fd5b50610796611df1565b6040518080602001828103825283818151815260200191508051906020019080838360005b838110156107d65780820151818401526020810190506107bb565b50505050905090810190601f1680156108035780820380516001836020036101000a031916815260200191505b509250505060405180910390f35b34801561081d57600080fd5b50610826611e36565b6040518082815260200191505060405180910390f35b34801561084857600080fd5b5061086b6004803603810190808035600019169060200190929190505050611e7b565b604051808215151515815260200191505060405180910390f35b34801561089157600080fd5b506108b060048036038101908080359060200190929190505050611eaf565b005b3480156108be57600080fd5b506108c7611f9b565b6040518082815260200191505060405180910390f35b3480156108e957600080fd5b50610944600480360381019080803590602001908201803590602001908080601f0160208091040260200160405190810160405280939291908181526020018383808284378201915050505050509192919290505050611fe0565b005b34801561095257600080fd5b5061095b6120d4565b60405180826000191660001916815260200191505060405180910390f35b34801561098557600080fd5b5061098e61210d565b6040518082815260200191505060405180910390f35b3480156109b057600080fd5b50610a0b600480360381019080803590602001908201803590602001908080601f016020809104026020016040519081016040528093929190818152602001838380828437820191505050505050919291929050505061211d565b005b348015610a1957600080fd5b50610a22612211565b60405180826000191660001916815260200191505060405180910390f35b348015610a4c57600080fd5b50610a55612256565b60405180826000191660001916815260200191505060405180910390f35b348015610a7f57600080fd5b50610a8861227a565b60405180826000191660001916815260200191505060405180910390f35b348015610ab257600080fd5b50610abb6122b3565b60405180826000191660001916815260200191505060405180910390f35b348015610ae557600080fd5b50610aee6122ec565b005b348015610afc57600080fd5b50610b57600480360381019080803590602001908201803590602001908080601f01602080910402602001604051908101604052809392919081815260200183838082843782019150505050505091929192905050506123c0565b005b348015610b6557600080fd5b50610b6e61247e565b6040518082815260200191505060405180910390f35b348015610b9057600080fd5b50610b996124c3565b604051808273ffffffffffffffffffffffffffffffffffffffff1673ffffffffffffffffffffffffffffffffffffffff16815260200191505060405180910390f35b348015610be757600080fd5b50610bf06124e9565b60405180826000191660001916815260200191505060405180910390f35b348015610c1a57600080fd5b50610c2361250d565b6040518082815260200191505060405180910390f35b348015610c4557600080fd5b50610c646004803603810190808035906020019092919050505061251d565b005b348015610c7257600080fd5b50610ccd600480360381019080803590602001908201803590602001908080601f0160208091040260200160405190810160405280939291908181526020018383808284378201915050505050509192919290505050612609565b005b348015610cdb57600080fd5b50610ce46126f5565b604051808273ffffffffffffffffffffffffffffffffffffffff1673ffffffffffffffffffffffffffffffffffffffff16815260200191505060405180910390f35b348015610d3257600080fd5b50610d3b61271f565b604051808215151515815260200191505060405180910390f35b348015610d6157600080fd5b50610d846004803603810190808035600019169060200190929190505050612777565b6040518080602001828103825283818151815260200191508051906020019080838360005b83811015610dc4578082015181840152602081019050610da9565b50505050905090810190601f168015610df15780820380516001836020036101000a031916815260200191505b509250505060405180910390f35b348015610e0b57600080fd5b50610e14612837565b60405180826000191660001916815260200191505060405180910390f35b348015610e3e57600080fd5b50610e4761285b565b6040518082815260200191505060405180910390f35b348015610e6957600080fd5b50610e886004803603810190808035906020019092919050505061286b565b005b348015610e9657600080fd5b50610ef1600480360381019080803590602001908201803590602001908080601f0160208091040260200160405190810160405280939291908181526020018383808284378201915050505050509192919290505050612957565b005b348015610eff57600080fd5b50610f226004803603810190808035600019169060200190929190505050612a15565b60405180826000191660001916815260200191505060405180910390f35b348015610f4c57600080fd5b50610f81600480360381019080803573ffffffffffffffffffffffffffffffffffffffff169060200190929190505050612a3c565b005b348015610f8f57600080fd5b50610f98612a93565b6040518082815260200191505060405180910390f35b348015610fba57600080fd5b50610fdd6004803603810190808035600019169060200190929190505050612aa3565b6040518082815260200191505060405180910390f35b348015610fff57600080fd5b50611008612aca565b60405180826000191660001916815260200191505060405180910390f35b34801561103257600080fd5b506110556004803603810190808035600019169060200190929190505050612b03565b6040518080602001828103825283818151815260200191508051906020019080838360005b8381101561109557808201518184015260208101905061107a565b50505050905090810190601f1680156110c25780820380516001836020036101000a031916815260200191505b509250505060405180910390f35b3480156110dc57600080fd5b506110e5612bc3565b604051808273ffffffffffffffffffffffffffffffffffffffff1673ffffffffffffffffffffffffffffffffffffffff16815260200191505060405180910390f35b34801561113357600080fd5b506111566004803603810190808035600019169060200190929190505050612c08565b6040518082815260200191505060405180910390f35b34801561117857600080fd5b506111d3600480360381019080803590602001908201803590602001908080601f0160208091040260200160405190810160405280939291908181526020018383808284378201915050505050509192919290505050612c2f565b005b3480156111e157600080fd5b506111ea612d23565b6040518082815260200191505060405180910390f35b34801561120c57600080fd5b50611241600480360381019080803573ffffffffffffffffffffffffffffffffffffffff169060200190929190505050612d68565b005b34801561124f57600080fd5b5061126e60048036038101908080359060200190929190505050612d87565b005b60405180807f62616c6c6f744475726174696f6e4d61780000000000000000000000000000008152506011019050604051809103902081565b60006112e960405180807f7374616b696e674d696e00000000000000000000000000000000000000000000815250600a0190506040518091039020612aa3565b905090565b3373ffffffffffffffffffffffffffffffffffffffff1661130d612e73565b73ffffffffffffffffffffffffffffffffffffffff16141515611398576040517f08c379a000000000000000000000000000000000000000000000000000000000815260040180806020018281038252600d8152602001807f4e6f205065726d697373696f6e0000000000000000000000000000000000000081525060200191505060405180910390fd5b6113d760405180807f544553545f425954455300000000000000000000000000000000000000000000815250600a019050604051809103902082612ea3565b50565b3373ffffffffffffffffffffffffffffffffffffffff166113f9612e73565b73ffffffffffffffffffffffffffffffffffffffff16141515611484576040517f08c379a000000000000000000000000000000000000000000000000000000000815260040180806020018281038252600d8152602001807f4e6f205065726d697373696f6e0000000000000000000000000000000000000081525060200191505060405180910390fd5b61149561149082612f52565b611eaf565b50565b600260068111156114a557fe5b81565b60405180807f67617350726963650000000000000000000000000000000000000000000000008152506008019050604051809103902081565b3373ffffffffffffffffffffffffffffffffffffffff16611500612e73565b73ffffffffffffffffffffffffffffffffffffffff1614151561158b576040517f08c379a000000000000000000000000000000000000000000000000000000000815260040180806020018281038252600d8152602001807f4e6f205065726d697373696f6e0000000000000000000000000000000000000081525060200191505060405180910390fd5b61159c61159782612f52565b61286b565b50565b60606115df60405180807f544553545f425954455300000000000000000000000000000000000000000000815250600a0190506040518091039020612b03565b905090565b600061162460405180807f62616c6c6f744475726174696f6e4d617800000000000000000000000000000081525060110190506040518091039020612aa3565b905090565b7f5374616b696e670000000000000000000000000000000000000000000000000081565b6002600681111561165a57fe5b81565b6000806004016000836000191660001916815260200190815260200160002060009054906101000a900473ffffffffffffffffffffffffffffffffffffffff169050919050565b6000806000806000806116b561271f565b15156116c057600080fd5b6116c8611dac565b95506116d2611e36565b94506116dc6115e4565b93506116e66112a9565b92506116f061247e565b91506116fa611f9b565b905060008c14158061170d575060008614155b1515611781576040517f08c379a00000000000000000000000000000000000000000000000000000000081526004018080602001828103825260178152602001807f696e76616c696420626c6f636b5065722076616c75657300000000000000000081525060200191505060405180910390fd5b60008b141580611792575060008514155b1515611806576040517f08c379a00000000000000000000000000000000000000000000000000000000081526004018080602001828103825260208152602001807f696e76616c69642062616c6c6f744475726174696f6e4d696e2076616c75657381525060200191505060405180910390fd5b60008a141580611817575060008414155b151561188b576040517f08c379a00000000000000000000000000000000000000000000000000000000081526004018080602001828103825260208152602001807f696e76616c69642062616c6c6f744475726174696f6e4d61782076616c75657381525060200191505060405180910390fd5b60008914158061189c575060008314155b1515611910576040517f08c379a00000000000000000000000000000000000000000000000000000000081526004018080602001828103825260198152602001807f696e76616c6964207374616b696e674d696e2076616c7565730000000000000081525060200191505060405180910390fd5b600088141580611921575060008214155b1515611995576040517f08c379a00000000000000000000000000000000000000000000000000000000081526004018080602001828103825260198152602001807f696e76616c6964207374616b696e674d61782076616c7565730000000000000081525060200191505060405180910390fd5b6000871415806119a6575060008114155b1515611a1a576040517f08c379a00000000000000000000000000000000000000000000000000000000081526004018080602001828103825260178152602001807f696e76616c69642067617350726963652076616c75657300000000000000000081525060200191505060405180910390fd5b6000861415611a6357611a6260405180807f626c6f636b506572000000000000000000000000000000000000000000000000815250600801905060405180910390208d612f60565b5b6000851415611aac57611aab60405180807f62616c6c6f744475726174696f6e4d696e000000000000000000000000000000815250601101905060405180910390208c612f60565b5b6000841415611af557611af460405180807f62616c6c6f744475726174696f6e4d6178000000000000000000000000000000815250601101905060405180910390208b612f60565b5b6000831415611b3e57611b3d60405180807f7374616b696e674d696e00000000000000000000000000000000000000000000815250600a01905060405180910390208a612f60565b5b6000821415611b8757611b8660405180807f7374616b696e674d617800000000000000000000000000000000000000000000815250600a019050604051809103902089612f60565b5b6000811415611bd057611bcf60405180807f67617350726963650000000000000000000000000000000000000000000000008152506008019050604051809103902088612f60565b5b505050505050505050505050565b3373ffffffffffffffffffffffffffffffffffffffff16611bfd612e73565b73ffffffffffffffffffffffffffffffffffffffff16141515611c88576040517f08c379a000000000000000000000000000000000000000000000000000000000815260040180806020018281038252600d8152602001807f4e6f205065726d697373696f6e0000000000000000000000000000000000000081525060200191505060405180910390fd5b611cc760405180807f7374616b696e674d696e00000000000000000000000000000000000000000000815250600a019050604051809103902082612f60565b50565b3373ffffffffffffffffffffffffffffffffffffffff16611ce9612e73565b73ffffffffffffffffffffffffffffffffffffffff16141515611d74576040517f08c379a000000000000000000000000000000000000000000000000000000000815260040180806020018281038252600d8152602001807f4e6f205065726d697373696f6e0000000000000000000000000000000000000081525060200191505060405180910390fd5b611d85611d8082612f52565b612d87565b50565b7f526577617264506f6f6c0000000000000000000000000000000000000000000081565b6000611dec60405180807f626c6f636b50657200000000000000000000000000000000000000000000000081525060080190506040518091039020612aa3565b905090565b6060611e3160405180807f544553545f535452494e47000000000000000000000000000000000000000000815250600b0190506040518091039020612777565b905090565b6000611e7660405180807f62616c6c6f744475726174696f6e4d696e00000000000000000000000000000081525060110190506040518091039020612aa3565b905090565b6000806000016000836000191660001916815260200190815260200160002060009054906101000a900460ff169050919050565b3373ffffffffffffffffffffffffffffffffffffffff16611ece612e73565b73ffffffffffffffffffffffffffffffffffffffff16141515611f59576040517f08c379a000000000000000000000000000000000000000000000000000000000815260040180806020018281038252600d8152602001807f4e6f205065726d697373696f6e0000000000000000000000000000000000000081525060200191505060405180910390fd5b611f9860405180807f626c6f636b5065720000000000000000000000000000000000000000000000008152506008019050604051809103902082612f60565b50565b6000611fdb60405180807f676173507269636500000000000000000000000000000000000000000000000081525060080190506040518091039020612aa3565b905090565b3373ffffffffffffffffffffffffffffffffffffffff16611fff612e73565b73ffffffffffffffffffffffffffffffffffffffff1614151561208a576040517f08c379a000000000000000000000000000000000000000000000000000000000815260040180806020018281038252600d8152602001807f4e6f205065726d697373696f6e0000000000000000000000000000000000000081525060200191505060405180910390fd5b6120d160405180807f544553545f494e54000000000000000000000000000000000000000000000000815250600801905060405180910390206120cc83612faa565b612fb8565b50565b60405180807f626c6f636b5065720000000000000000000000000000000000000000000000008152506008019050604051809103902081565b6002600681111561211a57fe5b81565b3373ffffffffffffffffffffffffffffffffffffffff1661213c612e73565b73ffffffffffffffffffffffffffffffffffffffff161415156121c7576040517f08c379a000000000000000000000000000000000000000000000000000000000815260040180806020018281038252600d8152602001807f4e6f205065726d697373696f6e0000000000000000000000000000000000000081525060200191505060405180910390fd5b61220e60405180807f544553545f425954455333320000000000000000000000000000000000000000815250600c019050604051809103902061220983613002565b613010565b50565b600061225160405180807f544553545f425954455333320000000000000000000000000000000000000000815250600c0190506040518091039020612a15565b905090565b7f476f7665726e616e6365436f6e7472616374000000000000000000000000000081565b60405180807f62616c6c6f744475726174696f6e4d696e0000000000000000000000000000008152506011019050604051809103902081565b60405180807f7374616b696e674d696e00000000000000000000000000000000000000000000815250600a019050604051809103902081565b6122f461271f565b15156122ff57600080fd5b600073ffffffffffffffffffffffffffffffffffffffff16600760009054906101000a900473ffffffffffffffffffffffffffffffffffffffff1673ffffffffffffffffffffffffffffffffffffffff167f8be0079c531659141344cd1fd0a4f28419497f9722a3daafe3b4186f6b6457e060405160405180910390a36000600760006101000a81548173ffffffffffffffffffffffffffffffffffffffff021916908373ffffffffffffffffffffffffffffffffffffffff160217905550565b3373ffffffffffffffffffffffffffffffffffffffff166123df612e73565b73ffffffffffffffffffffffffffffffffffffffff1614151561246a576040517f08c379a000000000000000000000000000000000000000000000000000000000815260040180806020018281038252600d8152602001807f4e6f205065726d697373696f6e0000000000000000000000000000000000000081525060200191505060405180910390fd5b61247b61247682612f52565b611bde565b50565b60006124be60405180807f7374616b696e674d617800000000000000000000000000000000000000000000815250600a0190506040518091039020612aa3565b905090565b600860009054906101000a900473ffffffffffffffffffffffffffffffffffffffff1681565b7f456e7653746f726167650000000000000000000000000000000000000000000081565b6002600681111561251a57fe5b81565b3373ffffffffffffffffffffffffffffffffffffffff1661253c612e73565b73ffffffffffffffffffffffffffffffffffffffff161415156125c7576040517f08c379a000000000000000000000000000000000000000000000000000000000815260040180806020018281038252600d8152602001807f4e6f205065726d697373696f6e0000000000000000000000000000000000000081525060200191505060405180910390fd5b61260660405180807f62616c6c6f744475726174696f6e4d61780000000000000000000000000000008152506011019050604051809103902082612f60565b50565b3373ffffffffffffffffffffffffffffffffffffffff16612628612e73565b73ffffffffffffffffffffffffffffffffffffffff161415156126b3576040517f08c379a000000000000000000000000000000000000000000000000000000000815260040180806020018281038252600d8152602001807f4e6f205065726d697373696f6e0000000000000000000000000000000000000081525060200191505060405180910390fd5b6126f260405180807f544553545f535452494e47000000000000000000000000000000000000000000815250600b019050604051809103902082613062565b50565b6000600760009054906101000a900473ffffffffffffffffffffffffffffffffffffffff16905090565b6000600760009054906101000a900473ffffffffffffffffffffffffffffffffffffffff1673ffffffffffffffffffffffffffffffffffffffff163373ffffffffffffffffffffffffffffffffffffffff1614905090565b60606000600301600083600019166000191681526020019081526020016000208054600181600116156101000203166002900480601f01602080910402602001604051908101604052809291908181526020018280546001816001161561010002031660029004801561282b5780601f106128005761010080835404028352916020019161282b565b820191906000526020600020905b81548152906001019060200180831161280e57829003601f168201915b50505050509050919050565b7f42616c6c6f7453746f726167650000000000000000000000000000000000000081565b6002600681111561286857fe5b81565b3373ffffffffffffffffffffffffffffffffffffffff1661288a612e73565b73ffffffffffffffffffffffffffffffffffffffff16141515612915576040517f08c379a000000000000000000000000000000000000000000000000000000000815260040180806020018281038252600d8152602001807f4e6f205065726d697373696f6e0000000000000000000000000000000000000081525060200191505060405180910390fd5b61295460405180807f62616c6c6f744475726174696f6e4d696e0000000000000000000000000000008152506011019050604051809103902082612f60565b50565b3373ffffffffffffffffffffffffffffffffffffffff16612976612e73565b73ffffffffffffffffffffffffffffffffffffffff16141515612a01576040517f08c379a000000000000000000000000000000000000000000000000000000000815260040180806020018281038252600d8152602001807f4e6f205065726d697373696f6e0000000000000000000000000000000000000081525060200191505060405180910390fd5b612a12612a0d82612f52565b61251d565b50565b60008060060160008360001916600019168152602001908152602001600020549050919050565b612a4461271f565b1515612a4f57600080fd5b80600860006101000a81548173ffffffffffffffffffffffffffffffffffffffff021916908373ffffffffffffffffffffffffffffffffffffffff16021790555050565b60026006811115612aa057fe5b81565b60008060020160008360001916600019168152602001908152602001600020549050919050565b60405180807f7374616b696e674d617800000000000000000000000000000000000000000000815250600a019050604051809103902081565b60606000600501600083600019166000191681526020019081526020016000208054600181600116156101000203166002900480601f016020809104026020016040519081016040528092919081815260200182805460018160011615610100020316600290048015612bb75780601f10612b8c57610100808354040283529160200191612bb7565b820191906000526020600020905b815481529060010190602001808311612b9a57829003601f168201915b50505050509050919050565b6000612c0360405180807f544553545f414444524553530000000000000000000000000000000000000000815250600c019050604051809103902061165d565b905090565b60008060010160008360001916600019168152602001908152602001600020549050919050565b3373ffffffffffffffffffffffffffffffffffffffff16612c4e612e73565b73ffffffffffffffffffffffffffffffffffffffff16141515612cd9576040517f08c379a000000000000000000000000000000000000000000000000000000000815260040180806020018281038252600d8152602001807f4e6f205065726d697373696f6e0000000000000000000000000000000000000081525060200191505060405180910390fd5b612d2060405180807f544553545f414444524553530000000000000000000000000000000000000000815250600c0190506040518091039020612d1b83613111565b61311f565b50565b6000612d6360405180807f544553545f494e5400000000000000000000000000000000000000000000000081525060080190506040518091039020612c08565b905090565b612d7061271f565b1515612d7b57600080fd5b612d8481613195565b50565b3373ffffffffffffffffffffffffffffffffffffffff16612da6612e73565b73ffffffffffffffffffffffffffffffffffffffff16141515612e31576040517f08c379a000000000000000000000000000000000000000000000000000000000815260040180806020018281038252600d8152602001807f4e6f205065726d697373696f6e0000000000000000000000000000000000000081525060200191505060405180910390fd5b612e7060405180807f7374616b696e674d617800000000000000000000000000000000000000000000815250600a019050604051809103902082612f60565b50565b6000612e9e7f476f7665726e616e6365436f6e74726163740000000000000000000000000000613291565b905090565b612ead828261336e565b81600019167f871b63105583c40db6d530b9340369142c5ae265e41a501d300455015dc1283a826040518080602001828103825283818151815260200191508051906020019080838360005b83811015612f14578082015181840152602081019050612ef9565b50505050905090810190601f168015612f415780820380516001836020036101000a031916815260200191505b509250505060405180910390a25050565b600060208201519050919050565b612f6a82826133a5565b81600019167f58d7c10adfd5778016889c15d422d57f2975b9292415b54fe5d8cd4241200612826040518082815260200191505060405180910390a25050565b600060208201519050919050565b612fc282826133cc565b81600019167f3b274b11383ad4ca069e655ed60df9e4307b7a0f82ba2245a3cb9789ab814bf6826040518082815260200191505060405180910390a25050565b600060208201519050919050565b61301a82826133f3565b81600019167fde32aec28e018560c62b0217a8e7cfdc094cda68f1fc7ecd4ed833ee1d4862c98260405180826000191660001916815260200191505060405180910390a25050565b61306c828261341e565b81600019167f43849fbc1e66a5d2cd0ace04916e2e6c8f314c1904d104cad97150428a370a41826040518080602001828103825283818151815260200191508051906020019080838360005b838110156130d35780820151818401526020810190506130b8565b50505050905090810190601f1680156131005780820380516001836020036101000a031916815260200191505b509250505060405180910390a25050565b600060148201519050919050565b6131298282613455565b81600019167f5ba696c1849fe23c6b280f9f6057cb4574c818e0cd542032eed6e211f1e0246482604051808273ffffffffffffffffffffffffffffffffffffffff1673ffffffffffffffffffffffffffffffffffffffff16815260200191505060405180910390a25050565b600073ffffffffffffffffffffffffffffffffffffffff168173ffffffffffffffffffffffffffffffffffffffff16141515156131d157600080fd5b8073ffffffffffffffffffffffffffffffffffffffff16600760009054906101000a900473ffffffffffffffffffffffffffffffffffffffff1673ffffffffffffffffffffffffffffffffffffffff167f8be0079c531659141344cd1fd0a4f28419497f9722a3daafe3b4186f6b6457e060405160405180910390a380600760006101000a81548173ffffffffffffffffffffffffffffffffffffffff021916908373ffffffffffffffffffffffffffffffffffffffff16021790555050565b6000600860009054906101000a900473ffffffffffffffffffffffffffffffffffffffff1673ffffffffffffffffffffffffffffffffffffffff16630d2020dd836040518263ffffffff167c0100000000000000000000000000000000000000000000000000000000028152600401808260001916600019168152602001915050602060405180830381600087803b15801561332c57600080fd5b505af1158015613340573d6000803e3d6000fd5b505050506040513d602081101561335657600080fd5b81019080805190602001909291905050509050919050565b8060006005016000846000191660001916815260200190815260200160002090805190602001906133a09291906134b6565b505050565b80600060020160008460001916600019168152602001908152602001600020819055505050565b80600060010160008460001916600019168152602001908152602001600020819055505050565b8060006006016000846000191660001916815260200190815260200160002081600019169055505050565b806000600301600084600019166000191681526020019081526020016000209080519060200190613450929190613536565b505050565b8060006004016000846000191660001916815260200190815260200160002060006101000a81548173ffffffffffffffffffffffffffffffffffffffff021916908373ffffffffffffffffffffffffffffffffffffffff1602179055505050565b828054600181600116156101000203166002900490600052602060002090601f016020900481019282601f106134f757805160ff1916838001178555613525565b82800160010185558215613525579182015b82811115613524578251825591602001919060010190613509565b5b50905061353291906135b6565b5090565b828054600181600116156101000203166002900490600052602060002090601f016020900481019282601f1061357757805160ff19168380011785556135a5565b828001600101855582156135a5579182015b828111156135a4578251825591602001919060010190613589565b5b5090506135b291906135b6565b5090565b6135d891905b808211156135d45760008160009055506001016135bc565b5090565b905600a165627a7a7230582057e071a34eeb8fe2923215d24d0bbbb9101a859976082ac8ced6f58ffb241b1e0029",
  "source": "pragma solidity ^0.4.24;\n\nimport \"openzeppelin-solidity/contracts/math/SafeMath.sol\";\nimport \"../abstract/EnvConstants.sol\";\nimport \"./AEnvStorage.sol\";\n//import \"./Conversion.sol\";\n\n\ncontract EnvStorageImp is AEnvStorage, EnvConstants {\n    using SafeMath for uint256;\n\n    function initialize(\n        uint256 _blockPer, \n        uint256 _ballotDurationMin,\n        uint256 _ballotDurationMax,\n        uint256 _stakingMin,\n        uint256 _stakingMax,\n        uint256 _gasPrice\n    ) public onlyOwner {\n        uint256 blockPer = getBlockPer();\n        uint256 ballotDurationMin = getBallotDurationMin();\n        uint256 ballotDurationMax = getBallotDurationMax();\n        uint256 stakingMin = getStakingMin();\n        uint256 stakingMax = getStakingMax();\n        uint256 gasPrice = getGasPrice();\n\n        require(_blockPer != 0 || blockPer != 0, \"invalid blockPer values\");\n        require(_ballotDurationMin != 0 || ballotDurationMin != 0, \"invalid ballotDurationMin values\");\n        require(_ballotDurationMax != 0 || ballotDurationMax != 0, \"invalid ballotDurationMax values\");\n        require(_stakingMin != 0 || stakingMin != 0, \"invalid stakingMin values\");\n        require(_stakingMax != 0 || stakingMax != 0, \"invalid stakingMax values\");\n        require(_gasPrice != 0 || gasPrice != 0, \"invalid gasPrice values\");\n\n        if (blockPer == 0) {\n            setUint(BLOCK_PER_NAME, _blockPer);\n        }\n        if (ballotDurationMin == 0) {\n            setUint(BALLOT_DURATION_MIN_NAME, _ballotDurationMin);\n        }\n        if (ballotDurationMax == 0) {\n            setUint(BALLOT_DURATION_MAX_NAME, _ballotDurationMax);\n        }\n        if (stakingMin == 0) {\n            setUint(STAKING_MIN_NAME, _stakingMin);\n        }\n        if (stakingMax == 0) {\n            setUint(STAKING_MAX_NAME, _stakingMax);\n        }\n        if (gasPrice == 0) {\n            setUint(GAS_PRICE_NAME,_gasPrice);\n        }\n    }\n\n    function getBlockPer() public view returns (uint256) {\n        return getUint(BLOCK_PER_NAME);\n    }\n\n    function getBallotDurationMin() public view returns (uint256) {\n        return getUint(BALLOT_DURATION_MIN_NAME);\n    }\n\n    function getBallotDurationMax() public view returns (uint256) {\n        return getUint(BALLOT_DURATION_MAX_NAME);\n    }\n\n    function getStakingMin() public view returns (uint256) {\n        return getUint(STAKING_MIN_NAME);\n    }\n\n    function getStakingMax() public view returns (uint256) {\n        return getUint(STAKING_MAX_NAME);\n    }\n\n    function getGasPrice() public view returns (uint256) {\n        return getUint(GAS_PRICE_NAME);\n    }\n\n    function setBlockPer(uint256 _value) public onlyGov { \n        setUint(BLOCK_PER_NAME, _value);\n    }\n\n    function setBallotDurationMin(uint256 _value) public onlyGov { \n        setUint(BALLOT_DURATION_MIN_NAME, _value);\n    }\n\n    function setBallotDurationMax(uint256 _value) public onlyGov { \n        setUint(BALLOT_DURATION_MAX_NAME, _value);\n    }\n\n    function setStakingMin(uint256 _value) public onlyGov { \n        setUint(STAKING_MIN_NAME, _value);\n    }\n\n    function setStakingMax(uint256 _value) public onlyGov { \n        setUint(STAKING_MAX_NAME, _value);\n    }\n\n    // function setGasPrice(uint256 _value) public onlyGov { \n    //     setUint(GAS_PRICE_NAME, _value);\n    // }\n\n    function setBlockPerByBytes(bytes _value) public onlyGov { \n        setBlockPer(toUint(_value));\n    }\n\n    function setBallotDurationMinByBytes(bytes _value) public onlyGov { \n        setBallotDurationMin(toUint(_value));\n    }\n\n    function setBallotDurationMaxByBytes(bytes _value) public onlyGov { \n        setBallotDurationMax(toUint(_value));\n    }\n\n    function setStakingMinByBytes(bytes _value) public onlyGov { \n        setStakingMin(toUint(_value));\n    }\n\n    function setStakingMaxByBytes(bytes _value) public onlyGov { \n        setStakingMax(toUint(_value));\n    }\n\n    function getTestInt() public view returns (int256) {\n        return getInt(TEST_INT);\n    }\n\n    function getTestAddress() public view returns (address) {\n        return getAddress(TEST_ADDRESS);\n    }\n\n    function getTestBytes32() public view returns (bytes32) {\n        return getBytes32(TEST_BYTES32);\n    }\n\n    function getTestBytes() public view returns (bytes) {\n        return getBytes(TEST_BYTES);\n    }\n\n    function getTestString() public view returns (string) {\n        return getString(TEST_STRING);\n    }\n\n    function setTestIntByBytes(bytes _value) public onlyGov { \n        setInt(TEST_INT, toInt(_value));\n    }\n\n    function setTestAddressByBytes(bytes _value) public onlyGov { \n        setAddress(TEST_ADDRESS, toAddress(_value));\n    }\n\n    function setTestBytes32ByBytes(bytes _value) public onlyGov { \n        setBytes32(TEST_BYTES32, toBytes32(_value));\n    }\n\n    function setTestBytesByBytes(bytes _value) public onlyGov { \n        setBytes(TEST_BYTES, _value);\n    }\n\n    function setTestStringByBytes(bytes _value) public onlyGov { \n        setString(TEST_STRING, string(_value));\n    }\n\n    function toBytes32(bytes memory _input) internal pure returns (bytes32 _output) {\n        assembly {\n            _output := mload(add(_input, 32))\n        }\n    }\n\n    function toInt(bytes memory _input) internal pure returns (int256 _output) {\n        assembly {\n            _output := mload(add(_input, 32))\n        }\n    }\n\n    function toUint(bytes memory _input) internal pure returns (uint256 _output) {\n        \n        assembly {\n            _output := mload(add(_input, 32))\n        }\n    }\n\n    function toAddress(bytes memory _input) internal pure returns (address _output) {\n        assembly {\n            _output := mload(add(_input, 20))\n        }\n    }\n}",
  "sourcePath": "/Users/ywshin/Documents/WS/truffle/governance-contract-blueisle/contracts/storage/EnvStorageImp.sol",
  "compiler": {
    "name": "solc",
    "version": "0.4.24+commit.e67f0147.Emscripten.clang"
  },
  "schemaVersion": "2.0.1",
  "updatedAt": "2019-03-08T03:37:48.174Z"
}