{
  "contractName": "Gov",
  "abi": [
    {
      "constant": true,
      "inputs": [],
      "name": "magic",
      "outputs": [
        {
          "name": "",
          "type": "uint256"
        }
      ],
      "payable": false,
      "stateMutability": "view",
      "type": "function"
    },
    {
      "constant": true,
      "inputs": [],
      "name": "STAKING_NAME",
      "outputs": [
        {
          "name": "",
          "type": "bytes32"
        }
      ],
      "payable": false,
      "stateMutability": "view",
      "type": "function"
    },
    {
      "constant": true,
      "inputs": [],
      "name": "REWARD_POOL_NAME",
      "outputs": [
        {
          "name": "",
          "type": "bytes32"
        }
      ],
      "payable": false,
      "stateMutability": "view",
      "type": "function"
    },
    {
      "constant": true,
      "inputs": [],
      "name": "implementation",
      "outputs": [
        {
          "name": "impl",
          "type": "address"
        }
      ],
      "payable": false,
      "stateMutability": "view",
      "type": "function"
    },
    {
      "constant": true,
      "inputs": [],
      "name": "GOV_NAME",
      "outputs": [
        {
          "name": "",
          "type": "bytes32"
        }
      ],
      "payable": false,
      "stateMutability": "view",
      "type": "function"
    },
    {
      "constant": false,
      "inputs": [],
      "name": "renounceOwnership",
      "outputs": [],
      "payable": false,
      "stateMutability": "nonpayable",
      "type": "function"
    },
    {
      "constant": true,
      "inputs": [],
      "name": "reg",
      "outputs": [
        {
          "name": "",
          "type": "address"
        }
      ],
      "payable": false,
      "stateMutability": "view",
      "type": "function"
    },
    {
      "constant": true,
      "inputs": [],
      "name": "ENV_STORAGE_NAME",
      "outputs": [
        {
          "name": "",
          "type": "bytes32"
        }
      ],
      "payable": false,
      "stateMutability": "view",
      "type": "function"
    },
    {
      "constant": true,
      "inputs": [],
      "name": "modifiedBlock",
      "outputs": [
        {
          "name": "",
          "type": "uint256"
        }
      ],
      "payable": false,
      "stateMutability": "view",
      "type": "function"
    },
    {
      "constant": true,
      "inputs": [],
      "name": "owner",
      "outputs": [
        {
          "name": "",
          "type": "address"
        }
      ],
      "payable": false,
      "stateMutability": "view",
      "type": "function"
    },
    {
      "constant": true,
      "inputs": [],
      "name": "isOwner",
      "outputs": [
        {
          "name": "",
          "type": "bool"
        }
      ],
      "payable": false,
      "stateMutability": "view",
      "type": "function"
    },
    {
      "constant": true,
      "inputs": [],
      "name": "BALLOT_STORAGE_NAME",
      "outputs": [
        {
          "name": "",
          "type": "bytes32"
        }
      ],
      "payable": false,
      "stateMutability": "view",
      "type": "function"
    },
    {
      "constant": false,
      "inputs": [
        {
          "name": "_addr",
          "type": "address"
        }
      ],
      "name": "setRegistry",
      "outputs": [],
      "payable": false,
      "stateMutability": "nonpayable",
      "type": "function"
    },
    {
      "constant": true,
      "inputs": [],
      "name": "ballotLength",
      "outputs": [
        {
          "name": "",
          "type": "uint256"
        }
      ],
      "payable": false,
      "stateMutability": "view",
      "type": "function"
    },
    {
      "constant": true,
      "inputs": [],
      "name": "voteLength",
      "outputs": [
        {
          "name": "",
          "type": "uint256"
        }
      ],
      "payable": false,
      "stateMutability": "view",
      "type": "function"
    },
    {
      "constant": false,
      "inputs": [
        {
          "name": "newOwner",
          "type": "address"
        }
      ],
      "name": "transferOwnership",
      "outputs": [],
      "payable": false,
      "stateMutability": "nonpayable",
      "type": "function"
    },
    {
      "inputs": [],
      "payable": false,
      "stateMutability": "nonpayable",
      "type": "constructor"
    },
    {
      "payable": true,
      "stateMutability": "payable",
      "type": "fallback"
    },
    {
      "anonymous": false,
      "inputs": [
        {
          "indexed": true,
          "name": "previousOwner",
          "type": "address"
        },
        {
          "indexed": true,
          "name": "newOwner",
          "type": "address"
        }
      ],
      "name": "OwnershipTransferred",
      "type": "event"
    },
    {
      "anonymous": false,
      "inputs": [
        {
          "indexed": true,
          "name": "implementation",
          "type": "address"
        }
      ],
      "name": "Upgraded",
      "type": "event"
    },
    {
      "constant": true,
      "inputs": [
        {
          "name": "addr",
          "type": "address"
        }
      ],
      "name": "isMember",
      "outputs": [
        {
          "name": "",
          "type": "bool"
        }
      ],
      "payable": false,
      "stateMutability": "view",
      "type": "function"
    },
    {
      "constant": true,
      "inputs": [
        {
          "name": "idx",
          "type": "uint256"
        }
      ],
      "name": "getMember",
      "outputs": [
        {
          "name": "",
          "type": "address"
        }
      ],
      "payable": false,
      "stateMutability": "view",
      "type": "function"
    },
    {
      "constant": true,
      "inputs": [],
      "name": "getMemberLength",
      "outputs": [
        {
          "name": "",
          "type": "uint256"
        }
      ],
      "payable": false,
      "stateMutability": "view",
      "type": "function"
    },
    {
      "constant": true,
      "inputs": [
        {
          "name": "idx",
          "type": "uint256"
        }
      ],
      "name": "getReward",
      "outputs": [
        {
          "name": "",
          "type": "address"
        }
      ],
      "payable": false,
      "stateMutability": "view",
      "type": "function"
    },
    {
      "constant": true,
      "inputs": [
        {
          "name": "addr",
          "type": "address"
        }
      ],
      "name": "getNodeIdxFromMember",
      "outputs": [
        {
          "name": "",
          "type": "uint256"
        }
      ],
      "payable": false,
      "stateMutability": "view",
      "type": "function"
    },
    {
      "constant": true,
      "inputs": [
        {
          "name": "idx",
          "type": "uint256"
        }
      ],
      "name": "getMemberFromNodeIdx",
      "outputs": [
        {
          "name": "",
          "type": "address"
        }
      ],
      "payable": false,
      "stateMutability": "view",
      "type": "function"
    },
    {
      "constant": true,
      "inputs": [],
      "name": "getNodeLength",
      "outputs": [
        {
          "name": "",
          "type": "uint256"
        }
      ],
      "payable": false,
      "stateMutability": "view",
      "type": "function"
    },
    {
      "constant": true,
      "inputs": [
        {
          "name": "idx",
          "type": "uint256"
        }
      ],
      "name": "getNode",
      "outputs": [
        {
          "name": "enode",
          "type": "bytes"
        },
        {
          "name": "ip",
          "type": "bytes"
        },
        {
          "name": "port",
          "type": "uint256"
        }
      ],
      "payable": false,
      "stateMutability": "view",
      "type": "function"
    },
    {
      "constant": true,
      "inputs": [],
      "name": "getBallotInVoting",
      "outputs": [
        {
          "name": "",
          "type": "uint256"
        }
      ],
      "payable": false,
      "stateMutability": "view",
      "type": "function"
    },
    {
      "constant": false,
      "inputs": [
        {
          "name": "registry",
          "type": "address"
        },
        {
          "name": "implementation",
          "type": "address"
        },
        {
          "name": "lockAmount",
          "type": "uint256"
        },
        {
          "name": "enode",
          "type": "bytes"
        },
        {
          "name": "ip",
          "type": "bytes"
        },
        {
          "name": "port",
          "type": "uint256"
        }
      ],
      "name": "init",
      "outputs": [],
      "payable": false,
      "stateMutability": "nonpayable",
      "type": "function"
    },
    {
      "constant": false,
      "inputs": [
        {
          "name": "registry",
          "type": "address"
        },
        {
          "name": "implementation",
          "type": "address"
        },
        {
          "name": "data",
          "type": "bytes"
        }
      ],
      "name": "initOnce",
      "outputs": [],
      "payable": false,
      "stateMutability": "nonpayable",
      "type": "function"
    }
  ],
  "bytecode": "0x6080604052724d6574616469756d20476f7665726e616e636560025534801561002757600080fd5b50336000806101000a81548173ffffffffffffffffffffffffffffffffffffffff021916908373ffffffffffffffffffffffffffffffffffffffff1602179055506000809054906101000a900473ffffffffffffffffffffffffffffffffffffffff1673ffffffffffffffffffffffffffffffffffffffff16600073ffffffffffffffffffffffffffffffffffffffff167f8be0079c531659141344cd1fd0a4f28419497f9722a3daafe3b4186f6b6457e060405160405180910390a36000600460006101000a81548160ff02191690831515021790555060006007819055506000600d819055506000600e819055506000600f819055506000601081905550611ca9806101366000396000f30060806040526004361061015f576000357c0100000000000000000000000000000000000000000000000000000000900463ffffffff1680630d854646146101ce57806315bf6b4d146101f95780631c4b774b146102665780631e0cba0d146102d35780631fb85d91146103065780632f40992e146103af5780634f0f4aa9146103e25780635c60da1b146104fb5780636c78d2cf14610552578063715018a61461058557806372016f751461059c578063738fdd1a146105c75780637bf465301461061e5780637d10dd1b146106515780638da5cb5b1461067c5780638f32d59b146106d35780639986e4b914610702578063a230c52414610735578063a91ee0dc14610790578063ab3545e5146107d3578063ce6a54ff14610840578063d6f9cfce14610897578063d965ea00146108c2578063de09b377146108ed578063e4df5ea914610918578063e9523fb514610a1b578063f2fde38b14610a46575b6000610169610a89565b9050600073ffffffffffffffffffffffffffffffffffffffff168173ffffffffffffffffffffffffffffffffffffffff16141515156101a757600080fd5b60405136600082376000803683855af43d806000843e81600081146101ca578184f35b8184fd5b3480156101da57600080fd5b506101e3610af2565b6040518082815260200191505060405180910390f35b34801561020557600080fd5b5061022460048036038101908080359060200190929190505050610af8565b604051808273ffffffffffffffffffffffffffffffffffffffff1673ffffffffffffffffffffffffffffffffffffffff16815260200191505060405180910390f35b34801561027257600080fd5b5061029160048036038101908080359060200190929190505050610b35565b604051808273ffffffffffffffffffffffffffffffffffffffff1673ffffffffffffffffffffffffffffffffffffffff16815260200191505060405180910390f35b3480156102df57600080fd5b506102e8610b72565b60405180826000191660001916815260200191505060405180910390f35b34801561031257600080fd5b506103ad600480360381019080803573ffffffffffffffffffffffffffffffffffffffff169060200190929190803573ffffffffffffffffffffffffffffffffffffffff169060200190929190803590602001908201803590602001908080601f0160208091040260200160405190810160405280939291908181526020018383808284378201915050505050509192919290505050610b96565b005b3480156103bb57600080fd5b506103c4610f3c565b60405180826000191660001916815260200191505060405180910390f35b3480156103ee57600080fd5b5061040d60048036038101908080359060200190929190505050610f60565b604051808060200180602001848152602001838103835286818151815260200191508051906020019080838360005b8381101561045757808201518184015260208101905061043c565b50505050905090810190601f1680156104845780820380516001836020036101000a031916815260200191505b50838103825285818151815260200191508051906020019080838360005b838110156104bd5780820151818401526020810190506104a2565b50505050905090810190601f1680156104ea5780820380516001836020036101000a031916815260200191505b509550505050505060405180910390f35b34801561050757600080fd5b50610510610a89565b604051808273ffffffffffffffffffffffffffffffffffffffff1673ffffffffffffffffffffffffffffffffffffffff16815260200191505060405180910390f35b34801561055e57600080fd5b506105676110ed565b60405180826000191660001916815260200191505060405180910390f35b34801561059157600080fd5b5061059a611111565b005b3480156105a857600080fd5b506105b16111e3565b6040518082815260200191505060405180910390f35b3480156105d357600080fd5b506105dc6111ed565b604051808273ffffffffffffffffffffffffffffffffffffffff1673ffffffffffffffffffffffffffffffffffffffff16815260200191505060405180910390f35b34801561062a57600080fd5b50610633611213565b60405180826000191660001916815260200191505060405180910390f35b34801561065d57600080fd5b50610666611237565b6040518082815260200191505060405180910390f35b34801561068857600080fd5b5061069161123d565b604051808273ffffffffffffffffffffffffffffffffffffffff1673ffffffffffffffffffffffffffffffffffffffff16815260200191505060405180910390f35b3480156106df57600080fd5b506106e8611266565b604051808215151515815260200191505060405180910390f35b34801561070e57600080fd5b506107176112bd565b60405180826000191660001916815260200191505060405180910390f35b34801561074157600080fd5b50610776600480360381019080803573ffffffffffffffffffffffffffffffffffffffff1690602001909291905050506112e1565b604051808215151515815260200191505060405180910390f35b34801561079c57600080fd5b506107d1600480360381019080803573ffffffffffffffffffffffffffffffffffffffff16906020019092919050505061132d565b005b3480156107df57600080fd5b506107fe60048036038101908080359060200190929190505050611384565b604051808273ffffffffffffffffffffffffffffffffffffffff1673ffffffffffffffffffffffffffffffffffffffff16815260200191505060405180910390f35b34801561084c57600080fd5b50610881600480360381019080803573ffffffffffffffffffffffffffffffffffffffff1690602001909291905050506113c1565b6040518082815260200191505060405180910390f35b3480156108a357600080fd5b506108ac61140a565b6040518082815260200191505060405180910390f35b3480156108ce57600080fd5b506108d7611410565b6040518082815260200191505060405180910390f35b3480156108f957600080fd5b5061090261141a565b6040518082815260200191505060405180910390f35b34801561092457600080fd5b50610a19600480360381019080803573ffffffffffffffffffffffffffffffffffffffff169060200190929190803573ffffffffffffffffffffffffffffffffffffffff16906020019092919080359060200190929190803590602001908201803590602001908080601f0160208091040260200160405190810160405280939291908181526020018383808284378201915050505050509192919290803590602001908201803590602001908080601f016020809104026020016040519081016040528093929190818152602001838380828437820191505050505050919291929080359060200190929190505050611424565b005b348015610a2757600080fd5b50610a30611945565b6040518082815260200191505060405180910390f35b348015610a5257600080fd5b50610a87600480360381019080803573ffffffffffffffffffffffffffffffffffffffff16906020019092919050505061194b565b005b60008060405180807f6f72672e6d6574616469756d2e70726f78792e696d706c656d656e746174696f81526020017f6e00000000000000000000000000000000000000000000000000000000000000815250602101905060405180910390209050805491505090565b60025481565b6000600c600083815260200190815260200160002060009054906101000a900473ffffffffffffffffffffffffffffffffffffffff169050919050565b60006008600083815260200190815260200160002060009054906101000a900473ffffffffffffffffffffffffffffffffffffffff169050919050565b7f5374616b696e670000000000000000000000000000000000000000000000000081565b600060608060606000806000806000610bad611266565b1515610bb857600080fd5b60001515600460009054906101000a900460ff161515141515610c43576040517f08c379a00000000000000000000000000000000000000000000000000000000081526004018080602001828103825260138152602001807f416c726561647920696e697469616c697a65640000000000000000000000000081525060200191505060405180910390fd5b610c4c8c61132d565b610c558b61196a565b6001600460006101000a81548160ff021916908315150217905550436003819055506000935060208a0192508951830191505b81831015610f2057825194508498506020830192508183101515610cab57600080fd5b8297508751602001830192508183101515610cc557600080fd5b8296508651602001830192508183101515610cdf57600080fd5b8295508551602001830192508183101515610cf957600080fd5b82519450602083019250600184019350886005600086815260200190815260200160002060006101000a81548173ffffffffffffffffffffffffffffffffffffffff021916908373ffffffffffffffffffffffffffffffffffffffff16021790555083600660008b73ffffffffffffffffffffffffffffffffffffffff1673ffffffffffffffffffffffffffffffffffffffff16815260200190815260200160002081905550886008600086815260200190815260200160002060006101000a81548173ffffffffffffffffffffffffffffffffffffffff021916908373ffffffffffffffffffffffffffffffffffffffff16021790555083600960008b73ffffffffffffffffffffffffffffffffffffffff1673ffffffffffffffffffffffffffffffffffffffff16815260200190815260200160002081905550600a6000858152602001908152602001600020905086816000019080519060200190610e62929190611bd8565b5085816001019080519060200190610e7b929190611bd8565b5084816002018190555088600c600086815260200190815260200160002060006101000a81548173ffffffffffffffffffffffffffffffffffffffff021916908373ffffffffffffffffffffffffffffffffffffffff16021790555083600b60008b73ffffffffffffffffffffffffffffffffffffffff1673ffffffffffffffffffffffffffffffffffffffff16815260200190815260200160002081905550610c88565b8360078190555083600d81905550505050505050505050505050565b7f526577617264506f6f6c0000000000000000000000000000000000000000000081565b6060806000600a6000858152602001908152602001600020600001600a6000868152602001908152602001600020600101600a600087815260200190815260200160002060020154828054600181600116156101000203166002900480601f01602080910402602001604051908101604052809291908181526020018280546001816001161561010002031660029004801561103d5780601f106110125761010080835404028352916020019161103d565b820191906000526020600020905b81548152906001019060200180831161102057829003601f168201915b50505050509250818054600181600116156101000203166002900480601f0160208091040260200160405190810160405280929190818152602001828054600181600116156101000203166002900480156110d95780601f106110ae576101008083540402835291602001916110d9565b820191906000526020600020905b8154815290600101906020018083116110bc57829003601f168201915b505050505091509250925092509193909250565b7f476f7665726e616e6365436f6e7472616374000000000000000000000000000081565b611119611266565b151561112457600080fd5b600073ffffffffffffffffffffffffffffffffffffffff166000809054906101000a900473ffffffffffffffffffffffffffffffffffffffff1673ffffffffffffffffffffffffffffffffffffffff167f8be0079c531659141344cd1fd0a4f28419497f9722a3daafe3b4186f6b6457e060405160405180910390a360008060006101000a81548173ffffffffffffffffffffffffffffffffffffffff021916908373ffffffffffffffffffffffffffffffffffffffff160217905550565b6000600d54905090565b600160009054906101000a900473ffffffffffffffffffffffffffffffffffffffff1681565b7f456e7653746f726167650000000000000000000000000000000000000000000081565b60035481565b60008060009054906101000a900473ffffffffffffffffffffffffffffffffffffffff16905090565b60008060009054906101000a900473ffffffffffffffffffffffffffffffffffffffff1673ffffffffffffffffffffffffffffffffffffffff163373ffffffffffffffffffffffffffffffffffffffff1614905090565b7f42616c6c6f7453746f726167650000000000000000000000000000000000000081565b600080600660008473ffffffffffffffffffffffffffffffffffffffff1673ffffffffffffffffffffffffffffffffffffffff1681526020019081526020016000205414159050919050565b611335611266565b151561134057600080fd5b80600160006101000a81548173ffffffffffffffffffffffffffffffffffffffff021916908373ffffffffffffffffffffffffffffffffffffffff16021790555050565b60006005600083815260200190815260200160002060009054906101000a900473ffffffffffffffffffffffffffffffffffffffff169050919050565b6000600b60008373ffffffffffffffffffffffffffffffffffffffff1673ffffffffffffffffffffffffffffffffffffffff168152602001908152602001600020549050919050565b600e5481565b6000600754905090565b6000601054905090565b60008061142f611266565b151561143a57600080fd5b60001515600460009054906101000a900460ff1615151415156114c5576040517f08c379a00000000000000000000000000000000000000000000000000000000081526004018080602001828103825260138152602001807f416c726561647920696e697469616c697a65640000000000000000000000000081525060200191505060405180910390fd5b6114ce8861132d565b6114d78761196a565b6114df6119d1565b9150858273ffffffffffffffffffffffffffffffffffffffff166325d998bb336040518263ffffffff167c0100000000000000000000000000000000000000000000000000000000028152600401808273ffffffffffffffffffffffffffffffffffffffff1673ffffffffffffffffffffffffffffffffffffffff168152602001915050602060405180830381600087803b15801561157d57600080fd5b505af1158015611591573d6000803e3d6000fd5b505050506040513d60208110156115a757600080fd5b81019080805190602001909291905050501015151561162e576040517f08c379a00000000000000000000000000000000000000000000000000000000081526004018080602001828103825260148152602001807f496e73756666696369656e74207374616b696e6700000000000000000000000081525060200191505060405180910390fd5b8173ffffffffffffffffffffffffffffffffffffffff1663282d3fdf33886040518363ffffffff167c0100000000000000000000000000000000000000000000000000000000028152600401808373ffffffffffffffffffffffffffffffffffffffff1673ffffffffffffffffffffffffffffffffffffffff16815260200182815260200192505050600060405180830381600087803b1580156116d157600080fd5b505af11580156116e5573d6000803e3d6000fd5b5050505060016007819055503360056000600754815260200190815260200160002060006101000a81548173ffffffffffffffffffffffffffffffffffffffff021916908373ffffffffffffffffffffffffffffffffffffffff160217905550600754600660003373ffffffffffffffffffffffffffffffffffffffff1673ffffffffffffffffffffffffffffffffffffffff168152602001908152602001600020819055503360086000600754815260200190815260200160002060006101000a81548173ffffffffffffffffffffffffffffffffffffffff021916908373ffffffffffffffffffffffffffffffffffffffff160217905550600754600960003373ffffffffffffffffffffffffffffffffffffffff1673ffffffffffffffffffffffffffffffffffffffff168152602001908152602001600020819055506001600d81905550600a6000600d54815260200190815260200160002090508481600001908051906020019061185c929190611bd8565b5083816001019080519060200190611875929190611bd8565b50828160020181905550600d54600b60003373ffffffffffffffffffffffffffffffffffffffff1673ffffffffffffffffffffffffffffffffffffffff1681526020019081526020016000208190555033600c6000600d54815260200190815260200160002060006101000a81548173ffffffffffffffffffffffffffffffffffffffff021916908373ffffffffffffffffffffffffffffffffffffffff1602179055506001600460006101000a81548160ff021916908315150217905550436003819055505050505050505050565b600f5481565b611953611266565b151561195e57600080fd5b61196781611a01565b50565b600060405180807f6f72672e6d6574616469756d2e70726f78792e696d706c656d656e746174696f81526020017f6e000000000000000000000000000000000000000000000000000000000000008152506021019050604051809103902090508181555050565b60006119fc7f5374616b696e6700000000000000000000000000000000000000000000000000611afb565b905090565b600073ffffffffffffffffffffffffffffffffffffffff168173ffffffffffffffffffffffffffffffffffffffff1614151515611a3d57600080fd5b8073ffffffffffffffffffffffffffffffffffffffff166000809054906101000a900473ffffffffffffffffffffffffffffffffffffffff1673ffffffffffffffffffffffffffffffffffffffff167f8be0079c531659141344cd1fd0a4f28419497f9722a3daafe3b4186f6b6457e060405160405180910390a3806000806101000a81548173ffffffffffffffffffffffffffffffffffffffff021916908373ffffffffffffffffffffffffffffffffffffffff16021790555050565b6000600160009054906101000a900473ffffffffffffffffffffffffffffffffffffffff1673ffffffffffffffffffffffffffffffffffffffff16630d2020dd836040518263ffffffff167c0100000000000000000000000000000000000000000000000000000000028152600401808260001916600019168152602001915050602060405180830381600087803b158015611b9657600080fd5b505af1158015611baa573d6000803e3d6000fd5b505050506040513d6020811015611bc057600080fd5b81019080805190602001909291905050509050919050565b828054600181600116156101000203166002900490600052602060002090601f016020900481019282601f10611c1957805160ff1916838001178555611c47565b82800160010185558215611c47579182015b82811115611c46578251825591602001919060010190611c2b565b5b509050611c549190611c58565b5090565b611c7a91905b80821115611c76576000816000905550600101611c5e565b5090565b905600a165627a7a7230582012eac0069060cc9033e74cee60e93565a43761816d1393aaaab228b553eba4d80029",
  "source": "pragma solidity ^0.4.24;\n\nimport \"openzeppelin-solidity/contracts/math/SafeMath.sol\";\nimport \"./proxy/UpgradeabilityProxy.sol\";\nimport \"./interface/IStaking.sol\";\nimport \"./GovChecker.sol\";\n\n\ncontract Gov is UpgradeabilityProxy, GovChecker {\n    // \"Metadium Governance\"\n    uint public magic = 0x4d6574616469756d20476f7665726e616e6365;\n    uint public modifiedBlock;\n    bool private _initialized;\n\n    // For voting member\n    mapping(uint256 => address) internal members;\n    mapping(address => uint256) internal memberIdx;\n    uint256 internal memberLength;\n\n    // For reward member\n    mapping(uint256 => address) internal rewards;\n    mapping(address => uint256) internal rewardIdx;\n\n    // For enode\n    struct Node {\n        bytes enode;\n        bytes ip;\n        uint port;\n    }\n\n    mapping(uint256 => Node) internal nodes;\n    mapping(address => uint256) internal nodeIdxFromMember;\n    mapping(uint256 => address) internal nodeToMember;\n    uint256 internal nodeLength;\n\n    // For ballot\n    uint256 public ballotLength;\n    uint256 public voteLength;\n    uint256 internal ballotInVoting;\n\n    constructor() public {\n        _initialized = false;\n        memberLength = 0;\n        nodeLength = 0;\n        ballotLength = 0;\n        voteLength = 0;\n        ballotInVoting = 0;\n    }\n\n    function isMember(address addr) public view returns (bool) { return (memberIdx[addr] != 0); }\n    function getMember(uint256 idx) public view returns (address) { return members[idx]; }\n    function getMemberLength() public view returns (uint256) { return memberLength; }\n    function getReward(uint256 idx) public view returns (address) { return rewards[idx]; }\n    function getNodeIdxFromMember(address addr) public view returns (uint256) { return nodeIdxFromMember[addr]; }\n    function getMemberFromNodeIdx(uint256 idx) public view returns (address) { return nodeToMember[idx]; }\n    function getNodeLength() public view returns (uint256) { return nodeLength; }\n\n    function getNode(uint256 idx) public view returns (bytes enode, bytes ip, uint port) {\n        return (nodes[idx].enode, nodes[idx].ip, nodes[idx].port);\n    }\n\n    function getBallotInVoting() public view returns (uint256) { return ballotInVoting; }\n\n    function init(\n        address registry,\n        address implementation,\n        uint256 lockAmount,\n        bytes enode,\n        bytes ip,\n        uint port\n    )\n        public onlyOwner\n    {\n        require(_initialized == false, \"Already initialized\");\n\n        setRegistry(registry);\n        setImplementation(implementation);\n\n        // Lock\n        IStaking staking = IStaking(getStakingAddress());\n        require(staking.availableBalanceOf(msg.sender) >= lockAmount, \"Insufficient staking\");\n        staking.lock(msg.sender, lockAmount);\n\n        // Add voting member\n        memberLength = 1;\n        members[memberLength] = msg.sender;\n        memberIdx[msg.sender] = memberLength;\n\n        // Add reward member\n        rewards[memberLength] = msg.sender;\n        rewardIdx[msg.sender] = memberLength;\n\n        // Add node\n        nodeLength = 1;\n        Node storage node = nodes[nodeLength];\n        node.enode = enode;\n        node.ip = ip;\n        node.port = port;\n        nodeIdxFromMember[msg.sender] = nodeLength;\n        nodeToMember[nodeLength] = msg.sender;\n\n        _initialized = true;\n        modifiedBlock = block.number;\n    }\n\n    function initOnce(\n        address registry,\n        address implementation,\n        bytes data\n    )\n        public onlyOwner\n    {\n        require(_initialized == false, \"Already initialized\");\n\n        setRegistry(registry);\n        setImplementation(implementation);\n\n        _initialized = true;\n        modifiedBlock = block.number;\n\n        // []{uint addr, bytes name, bytes enode, bytes ip, uint port}\n        // 32 bytes, [32 bytes, <data>] * 3, 32 bytes\n        address addr;\n        bytes memory name;\n        bytes memory enode;\n        bytes memory ip;\n        uint port;\n        uint idx = 0;\n\n        uint ix;\n        uint eix;\n        assembly {\n            ix := add(data, 0x20)\n        }\n        eix = ix + data.length;\n        while (ix < eix) {\n            assembly {\n                port := mload(ix)\n            }\n            addr = address(port);\n            ix += 0x20;\n            require(ix < eix);\n\n            assembly {\n                name := ix\n            }\n            ix += 0x20 + name.length;\n            require(ix < eix);\n\n            assembly {\n                enode := ix\n            }\n            ix += 0x20 + enode.length;\n            require(ix < eix);\n\n            assembly {\n                ip := ix\n            }\n            ix += 0x20 + ip.length;\n            require(ix < eix);\n\n            assembly {\n                port := mload(ix)\n            }\n            ix += 0x20;\n\n            idx += 1;\n            members[idx] = addr;\n            memberIdx[addr] = idx;\n            rewards[idx] = addr;\n            rewardIdx[addr] = idx;\n\n            Node storage node = nodes[idx];\n            node.enode = enode;\n            node.ip = ip;\n            node.port = port;\n            nodeToMember[idx] = addr;\n            nodeIdxFromMember[addr] = idx;\n        }\n        memberLength = idx;\n        nodeLength = idx;\n    }\n}\n",
  "sourcePath": "/Users/ywshin/Documents/WS/truffle/governance-contract-blueisle/contracts/Gov.sol",
  "compiler": {
    "name": "solc",
    "version": "0.4.24+commit.e67f0147.Emscripten.clang"
  },
  "schemaVersion": "2.0.1",
  "updatedAt": "2019-03-08T03:37:48.194Z"
}