{
  "contractName": "GovImp",
  "abi": [
    {
      "constant": true,
      "inputs": [],
      "name": "BALLOT_DURATION_MAX_NAME",
      "outputs": [
        {
          "name": "",
          "type": "bytes32"
        }
      ],
      "payable": false,
      "stateMutability": "view",
      "type": "function"
    },
    {
      "constant": true,
      "inputs": [],
      "name": "magic",
      "outputs": [
        {
          "name": "",
          "type": "uint256"
        }
      ],
      "payable": false,
      "stateMutability": "view",
      "type": "function"
    },
    {
      "constant": true,
      "inputs": [],
      "name": "STAKING_MIN_TYPE",
      "outputs": [
        {
          "name": "",
          "type": "uint256"
        }
      ],
      "payable": false,
      "stateMutability": "view",
      "type": "function"
    },
    {
      "constant": true,
      "inputs": [],
      "name": "GAS_PRICE_NAME",
      "outputs": [
        {
          "name": "",
          "type": "bytes32"
        }
      ],
      "payable": false,
      "stateMutability": "view",
      "type": "function"
    },
    {
      "constant": true,
      "inputs": [
        {
          "name": "idx",
          "type": "uint256"
        }
      ],
      "name": "getMemberFromNodeIdx",
      "outputs": [
        {
          "name": "",
          "type": "address"
        }
      ],
      "payable": false,
      "stateMutability": "view",
      "type": "function"
    },
    {
      "constant": true,
      "inputs": [
        {
          "name": "idx",
          "type": "uint256"
        }
      ],
      "name": "getReward",
      "outputs": [
        {
          "name": "",
          "type": "address"
        }
      ],
      "payable": false,
      "stateMutability": "view",
      "type": "function"
    },
    {
      "constant": true,
      "inputs": [],
      "name": "STAKING_NAME",
      "outputs": [
        {
          "name": "",
          "type": "bytes32"
        }
      ],
      "payable": false,
      "stateMutability": "view",
      "type": "function"
    },
    {
      "constant": false,
      "inputs": [
        {
          "name": "registry",
          "type": "address"
        },
        {
          "name": "implementation",
          "type": "address"
        },
        {
          "name": "data",
          "type": "bytes"
        }
      ],
      "name": "initOnce",
      "outputs": [],
      "payable": false,
      "stateMutability": "nonpayable",
      "type": "function"
    },
    {
      "constant": true,
      "inputs": [],
      "name": "GAS_PRICE_TYPE",
      "outputs": [
        {
          "name": "",
          "type": "uint256"
        }
      ],
      "payable": false,
      "stateMutability": "view",
      "type": "function"
    },
    {
      "constant": true,
      "inputs": [],
      "name": "REWARD_POOL_NAME",
      "outputs": [
        {
          "name": "",
          "type": "bytes32"
        }
      ],
      "payable": false,
      "stateMutability": "view",
      "type": "function"
    },
    {
      "constant": true,
      "inputs": [
        {
          "name": "idx",
          "type": "uint256"
        }
      ],
      "name": "getNode",
      "outputs": [
        {
          "name": "enode",
          "type": "bytes"
        },
        {
          "name": "ip",
          "type": "bytes"
        },
        {
          "name": "port",
          "type": "uint256"
        }
      ],
      "payable": false,
      "stateMutability": "view",
      "type": "function"
    },
    {
      "constant": true,
      "inputs": [],
      "name": "BLOCK_PER_NAME",
      "outputs": [
        {
          "name": "",
          "type": "bytes32"
        }
      ],
      "payable": false,
      "stateMutability": "view",
      "type": "function"
    },
    {
      "constant": true,
      "inputs": [],
      "name": "implementation",
      "outputs": [
        {
          "name": "impl",
          "type": "address"
        }
      ],
      "payable": false,
      "stateMutability": "view",
      "type": "function"
    },
    {
      "constant": true,
      "inputs": [],
      "name": "BALLOT_DURATION_MAX_TYPE",
      "outputs": [
        {
          "name": "",
          "type": "uint256"
        }
      ],
      "payable": false,
      "stateMutability": "view",
      "type": "function"
    },
    {
      "constant": true,
      "inputs": [],
      "name": "GOV_NAME",
      "outputs": [
        {
          "name": "",
          "type": "bytes32"
        }
      ],
      "payable": false,
      "stateMutability": "view",
      "type": "function"
    },
    {
      "constant": true,
      "inputs": [],
      "name": "BALLOT_DURATION_MIN_NAME",
      "outputs": [
        {
          "name": "",
          "type": "bytes32"
        }
      ],
      "payable": false,
      "stateMutability": "view",
      "type": "function"
    },
    {
      "constant": true,
      "inputs": [],
      "name": "STAKING_MIN_NAME",
      "outputs": [
        {
          "name": "",
          "type": "bytes32"
        }
      ],
      "payable": false,
      "stateMutability": "view",
      "type": "function"
    },
    {
      "constant": false,
      "inputs": [],
      "name": "renounceOwnership",
      "outputs": [],
      "payable": false,
      "stateMutability": "nonpayable",
      "type": "function"
    },
    {
      "constant": true,
      "inputs": [],
      "name": "getNodeLength",
      "outputs": [
        {
          "name": "",
          "type": "uint256"
        }
      ],
      "payable": false,
      "stateMutability": "view",
      "type": "function"
    },
    {
      "constant": true,
      "inputs": [],
      "name": "reg",
      "outputs": [
        {
          "name": "",
          "type": "address"
        }
      ],
      "payable": false,
      "stateMutability": "view",
      "type": "function"
    },
    {
      "constant": true,
      "inputs": [],
      "name": "ENV_STORAGE_NAME",
      "outputs": [
        {
          "name": "",
          "type": "bytes32"
        }
      ],
      "payable": false,
      "stateMutability": "view",
      "type": "function"
    },
    {
      "constant": true,
      "inputs": [],
      "name": "modifiedBlock",
      "outputs": [
        {
          "name": "",
          "type": "uint256"
        }
      ],
      "payable": false,
      "stateMutability": "view",
      "type": "function"
    },
    {
      "constant": true,
      "inputs": [],
      "name": "BLOCK_PER_TYPE",
      "outputs": [
        {
          "name": "",
          "type": "uint256"
        }
      ],
      "payable": false,
      "stateMutability": "view",
      "type": "function"
    },
    {
      "constant": true,
      "inputs": [],
      "name": "owner",
      "outputs": [
        {
          "name": "",
          "type": "address"
        }
      ],
      "payable": false,
      "stateMutability": "view",
      "type": "function"
    },
    {
      "constant": true,
      "inputs": [],
      "name": "isOwner",
      "outputs": [
        {
          "name": "",
          "type": "bool"
        }
      ],
      "payable": false,
      "stateMutability": "view",
      "type": "function"
    },
    {
      "constant": true,
      "inputs": [],
      "name": "BALLOT_STORAGE_NAME",
      "outputs": [
        {
          "name": "",
          "type": "bytes32"
        }
      ],
      "payable": false,
      "stateMutability": "view",
      "type": "function"
    },
    {
      "constant": true,
      "inputs": [],
      "name": "STAKING_MAX_TYPE",
      "outputs": [
        {
          "name": "",
          "type": "uint256"
        }
      ],
      "payable": false,
      "stateMutability": "view",
      "type": "function"
    },
    {
      "constant": true,
      "inputs": [
        {
          "name": "addr",
          "type": "address"
        }
      ],
      "name": "isMember",
      "outputs": [
        {
          "name": "",
          "type": "bool"
        }
      ],
      "payable": false,
      "stateMutability": "view",
      "type": "function"
    },
    {
      "constant": false,
      "inputs": [
        {
          "name": "_addr",
          "type": "address"
        }
      ],
      "name": "setRegistry",
      "outputs": [],
      "payable": false,
      "stateMutability": "nonpayable",
      "type": "function"
    },
    {
      "constant": true,
      "inputs": [
        {
          "name": "idx",
          "type": "uint256"
        }
      ],
      "name": "getMember",
      "outputs": [
        {
          "name": "",
          "type": "address"
        }
      ],
      "payable": false,
      "stateMutability": "view",
      "type": "function"
    },
    {
      "constant": true,
      "inputs": [],
      "name": "BALLOT_DURATION_MIN_TYPE",
      "outputs": [
        {
          "name": "",
          "type": "uint256"
        }
      ],
      "payable": false,
      "stateMutability": "view",
      "type": "function"
    },
    {
      "constant": true,
      "inputs": [],
      "name": "STAKING_MAX_NAME",
      "outputs": [
        {
          "name": "",
          "type": "bytes32"
        }
      ],
      "payable": false,
      "stateMutability": "view",
      "type": "function"
    },
    {
      "constant": true,
      "inputs": [
        {
          "name": "addr",
          "type": "address"
        }
      ],
      "name": "getNodeIdxFromMember",
      "outputs": [
        {
          "name": "",
          "type": "uint256"
        }
      ],
      "payable": false,
      "stateMutability": "view",
      "type": "function"
    },
    {
      "constant": true,
      "inputs": [],
      "name": "ballotLength",
      "outputs": [
        {
          "name": "",
          "type": "uint256"
        }
      ],
      "payable": false,
      "stateMutability": "view",
      "type": "function"
    },
    {
      "constant": true,
      "inputs": [],
      "name": "getMemberLength",
      "outputs": [
        {
          "name": "",
          "type": "uint256"
        }
      ],
      "payable": false,
      "stateMutability": "view",
      "type": "function"
    },
    {
      "constant": true,
      "inputs": [],
      "name": "getBallotInVoting",
      "outputs": [
        {
          "name": "",
          "type": "uint256"
        }
      ],
      "payable": false,
      "stateMutability": "view",
      "type": "function"
    },
    {
      "constant": false,
      "inputs": [
        {
          "name": "registry",
          "type": "address"
        },
        {
          "name": "implementation",
          "type": "address"
        },
        {
          "name": "lockAmount",
          "type": "uint256"
        },
        {
          "name": "enode",
          "type": "bytes"
        },
        {
          "name": "ip",
          "type": "bytes"
        },
        {
          "name": "port",
          "type": "uint256"
        }
      ],
      "name": "init",
      "outputs": [],
      "payable": false,
      "stateMutability": "nonpayable",
      "type": "function"
    },
    {
      "constant": true,
      "inputs": [],
      "name": "voteLength",
      "outputs": [
        {
          "name": "",
          "type": "uint256"
        }
      ],
      "payable": false,
      "stateMutability": "view",
      "type": "function"
    },
    {
      "constant": false,
      "inputs": [
        {
          "name": "newOwner",
          "type": "address"
        }
      ],
      "name": "transferOwnership",
      "outputs": [],
      "payable": false,
      "stateMutability": "nonpayable",
      "type": "function"
    },
    {
      "payable": true,
      "stateMutability": "payable",
      "type": "fallback"
    },
    {
      "anonymous": false,
      "inputs": [
        {
          "indexed": true,
          "name": "addr",
          "type": "address"
        }
      ],
      "name": "MemberAdded",
      "type": "event"
    },
    {
      "anonymous": false,
      "inputs": [
        {
          "indexed": true,
          "name": "addr",
          "type": "address"
        }
      ],
      "name": "MemberRemoved",
      "type": "event"
    },
    {
      "anonymous": false,
      "inputs": [
        {
          "indexed": true,
          "name": "oldAddr",
          "type": "address"
        },
        {
          "indexed": true,
          "name": "newAddr",
          "type": "address"
        }
      ],
      "name": "MemberChanged",
      "type": "event"
    },
    {
      "anonymous": false,
      "inputs": [
        {
          "indexed": false,
          "name": "envName",
          "type": "bytes32"
        },
        {
          "indexed": false,
          "name": "envType",
          "type": "uint256"
        },
        {
          "indexed": false,
          "name": "envVal",
          "type": "bytes"
        }
      ],
      "name": "EnvChanged",
      "type": "event"
    },
    {
      "anonymous": false,
      "inputs": [
        {
          "indexed": true,
          "name": "addr",
          "type": "address"
        }
      ],
      "name": "MemberUpdated",
      "type": "event"
    },
    {
      "anonymous": false,
      "inputs": [
        {
          "indexed": true,
          "name": "previousOwner",
          "type": "address"
        },
        {
          "indexed": true,
          "name": "newOwner",
          "type": "address"
        }
      ],
      "name": "OwnershipTransferred",
      "type": "event"
    },
    {
      "anonymous": false,
      "inputs": [
        {
          "indexed": true,
          "name": "implementation",
          "type": "address"
        }
      ],
      "name": "Upgraded",
      "type": "event"
    },
    {
      "constant": false,
      "inputs": [
        {
          "name": "member",
          "type": "address"
        },
        {
          "name": "enode",
          "type": "bytes"
        },
        {
          "name": "ip",
          "type": "bytes"
        },
        {
          "name": "port",
          "type": "uint256"
        },
        {
          "name": "lockAmount",
          "type": "uint256"
        },
        {
          "name": "memo",
          "type": "bytes"
        }
      ],
      "name": "addProposalToAddMember",
      "outputs": [
        {
          "name": "ballotIdx",
          "type": "uint256"
        }
      ],
      "payable": false,
      "stateMutability": "nonpayable",
      "type": "function"
    },
    {
      "constant": false,
      "inputs": [
        {
          "name": "member",
          "type": "address"
        },
        {
          "name": "lockAmount",
          "type": "uint256"
        },
        {
          "name": "memo",
          "type": "bytes"
        }
      ],
      "name": "addProposalToRemoveMember",
      "outputs": [
        {
          "name": "ballotIdx",
          "type": "uint256"
        }
      ],
      "payable": false,
      "stateMutability": "nonpayable",
      "type": "function"
    },
    {
      "constant": false,
      "inputs": [
        {
          "name": "target",
          "type": "address"
        },
        {
          "name": "nMember",
          "type": "address"
        },
        {
          "name": "nEnode",
          "type": "bytes"
        },
        {
          "name": "nIp",
          "type": "bytes"
        },
        {
          "name": "nPort",
          "type": "uint256"
        },
        {
          "name": "lockAmount",
          "type": "uint256"
        },
        {
          "name": "memo",
          "type": "bytes"
        }
      ],
      "name": "addProposalToChangeMember",
      "outputs": [
        {
          "name": "ballotIdx",
          "type": "uint256"
        }
      ],
      "payable": false,
      "stateMutability": "nonpayable",
      "type": "function"
    },
    {
      "constant": false,
      "inputs": [
        {
          "name": "newGovAddr",
          "type": "address"
        },
        {
          "name": "memo",
          "type": "bytes"
        }
      ],
      "name": "addProposalToChangeGov",
      "outputs": [
        {
          "name": "ballotIdx",
          "type": "uint256"
        }
      ],
      "payable": false,
      "stateMutability": "nonpayable",
      "type": "function"
    },
    {
      "constant": false,
      "inputs": [
        {
          "name": "envName",
          "type": "bytes32"
        },
        {
          "name": "envType",
          "type": "uint256"
        },
        {
          "name": "envVal",
          "type": "bytes"
        },
        {
          "name": "memo",
          "type": "bytes"
        }
      ],
      "name": "addProposalToChangeEnv",
      "outputs": [
        {
          "name": "ballotIdx",
          "type": "uint256"
        }
      ],
      "payable": false,
      "stateMutability": "nonpayable",
      "type": "function"
    },
    {
      "constant": false,
      "inputs": [
        {
          "name": "ballotIdx",
          "type": "uint256"
        },
        {
          "name": "approval",
          "type": "bool"
        }
      ],
      "name": "vote",
      "outputs": [],
      "payable": false,
      "stateMutability": "nonpayable",
      "type": "function"
    },
    {
      "constant": true,
      "inputs": [],
      "name": "getMinStaking",
      "outputs": [
        {
          "name": "",
          "type": "uint256"
        }
      ],
      "payable": false,
      "stateMutability": "view",
      "type": "function"
    },
    {
      "constant": true,
      "inputs": [],
      "name": "getMaxStaking",
      "outputs": [
        {
          "name": "",
          "type": "uint256"
        }
      ],
      "payable": false,
      "stateMutability": "view",
      "type": "function"
    },
    {
      "constant": true,
      "inputs": [],
      "name": "getMinVotingDuration",
      "outputs": [
        {
          "name": "",
          "type": "uint256"
        }
      ],
      "payable": false,
      "stateMutability": "view",
      "type": "function"
    },
    {
      "constant": true,
      "inputs": [],
      "name": "getMaxVotingDuration",
      "outputs": [
        {
          "name": "",
          "type": "uint256"
        }
      ],
      "payable": false,
      "stateMutability": "view",
      "type": "function"
    },
    {
      "constant": true,
      "inputs": [],
      "name": "getThreshould",
      "outputs": [
        {
          "name": "",
          "type": "uint256"
        }
      ],
      "payable": false,
      "stateMutability": "pure",
      "type": "function"
    }
  ],
  "bytecode": "0x6080604052724d6574616469756d20476f7665726e616e6365600255336000806101000a81548173ffffffffffffffffffffffffffffffffffffffff021916908373ffffffffffffffffffffffffffffffffffffffff1602179055506000809054906101000a900473ffffffffffffffffffffffffffffffffffffffff1673ffffffffffffffffffffffffffffffffffffffff16600073ffffffffffffffffffffffffffffffffffffffff167f8be0079c531659141344cd1fd0a4f28419497f9722a3daafe3b4186f6b6457e060405160405180910390a36000600460006101000a81548160ff02191690831515021790555060006007819055506000600d819055506000600e819055506000600f8190555060006010819055506001601181905550616bd8806101316000396000f30060806040526004361061025b576000357c0100000000000000000000000000000000000000000000000000000000900463ffffffff16806215a73b146102ca5780630d854646146102fd5780630ea0a8c6146103285780630f36c0a81461035357806315bf6b4d146103865780631aee05e9146103f35780631c1501711461041e5780631c4b774b146104495780631e0cba0d146104b65780631fb85d91146104e95780632118b782146105925780632de9044b146105bd5780632f40992e146106905780634081c31c146106c35780634f0f4aa9146107765780635855e1e51461088f5780635aaa4040146108c25780635c60da1b146108ed5780635f53e21d146109445780636c78d2cf1461096f5780636d583ca7146109a25780636fde207a146109d5578063715018a614610a0857806372016f7514610a1f578063738fdd1a14610a4a5780637bf4653014610aa15780637d10dd1b14610ad4578063824cf93814610aff5780638da5cb5b14610b2a5780638f32d59b14610b8157806398a66b3d14610bb05780639986e4b914610c295780639f3ab54a14610c5c578063a230c52414610c87578063a91ee0dc14610ce2578063ab3545e514610d25578063aed31e7b14610d92578063af6af2ff14610dbd578063b454321414610de8578063c00ace6c14610e57578063c9d27afe14610e8a578063ce04b9d414610ec3578063ce6a54ff14610eee578063d6f9cfce14610f45578063d965ea0014610f70578063de09b37714610f9b578063e4df5ea914610fc6578063e9523fb5146110c9578063f2fde38b146110f4578063f69041c314611137575b60006102656111b6565b9050600073ffffffffffffffffffffffffffffffffffffffff168173ffffffffffffffffffffffffffffffffffffffff16141515156102a357600080fd5b60405136600082376000803683855af43d806000843e81600081146102c6578184f35b8184fd5b3480156102d657600080fd5b506102df61121f565b60405180826000191660001916815260200191505060405180910390f35b34801561030957600080fd5b50610312611258565b6040518082815260200191505060405180910390f35b34801561033457600080fd5b5061033d61125e565b6040518082815260200191505060405180910390f35b34801561035f57600080fd5b5061036861126e565b60405180826000191660001916815260200191505060405180910390f35b34801561039257600080fd5b506103b1600480360381019080803590602001909291905050506112a7565b604051808273ffffffffffffffffffffffffffffffffffffffff1673ffffffffffffffffffffffffffffffffffffffff16815260200191505060405180910390f35b3480156103ff57600080fd5b506104086112e4565b6040518082815260200191505060405180910390f35b34801561042a57600080fd5b506104336112ee565b6040518082815260200191505060405180910390f35b34801561045557600080fd5b506104746004803603810190808035906020019092919050505061139b565b604051808273ffffffffffffffffffffffffffffffffffffffff1673ffffffffffffffffffffffffffffffffffffffff16815260200191505060405180910390f35b3480156104c257600080fd5b506104cb6113d8565b60405180826000191660001916815260200191505060405180910390f35b3480156104f557600080fd5b50610590600480360381019080803573ffffffffffffffffffffffffffffffffffffffff169060200190929190803573ffffffffffffffffffffffffffffffffffffffff169060200190929190803590602001908201803590602001908080601f01602080910402602001604051908101604052809392919081815260200183838082843782019150505050505091929192905050506113fc565b005b34801561059e57600080fd5b506105a76117a2565b6040518082815260200191505060405180910390f35b3480156105c957600080fd5b5061067a600480360381019080803573ffffffffffffffffffffffffffffffffffffffff169060200190929190803573ffffffffffffffffffffffffffffffffffffffff16906020019092919080359060200190820180359060200191909192939192939080359060200190820180359060200191909192939192939080359060200190929190803590602001909291908035906020019082018035906020019190919293919293905050506117b2565b6040518082815260200191505060405180910390f35b34801561069c57600080fd5b506106a5611a75565b60405180826000191660001916815260200191505060405180910390f35b3480156106cf57600080fd5b50610760600480360381019080803573ffffffffffffffffffffffffffffffffffffffff1690602001909291908035906020019082018035906020019190919293919293908035906020019082018035906020019190919293919293908035906020019092919080359060200190929190803590602001908201803590602001919091929391929390505050611a99565b6040518082815260200191505060405180910390f35b34801561078257600080fd5b506107a160048036038101908080359060200190929190505050611e01565b604051808060200180602001848152602001838103835286818151815260200191508051906020019080838360005b838110156107eb5780820151818401526020810190506107d0565b50505050905090810190601f1680156108185780820380516001836020036101000a031916815260200191505b50838103825285818151815260200191508051906020019080838360005b83811015610851578082015181840152602081019050610836565b50505050905090810190601f16801561087e5780820380516001836020036101000a031916815260200191505b509550505050505060405180910390f35b34801561089b57600080fd5b506108a4611f8e565b60405180826000191660001916815260200191505060405180910390f35b3480156108ce57600080fd5b506108d7611fc7565b6040518082815260200191505060405180910390f35b3480156108f957600080fd5b506109026111b6565b604051808273ffffffffffffffffffffffffffffffffffffffff1673ffffffffffffffffffffffffffffffffffffffff16815260200191505060405180910390f35b34801561095057600080fd5b50610959612074565b6040518082815260200191505060405180910390f35b34801561097b57600080fd5b50610984612084565b60405180826000191660001916815260200191505060405180910390f35b3480156109ae57600080fd5b506109b76120a8565b60405180826000191660001916815260200191505060405180910390f35b3480156109e157600080fd5b506109ea6120e1565b60405180826000191660001916815260200191505060405180910390f35b348015610a1457600080fd5b50610a1d61211a565b005b348015610a2b57600080fd5b50610a346121ec565b6040518082815260200191505060405180910390f35b348015610a5657600080fd5b50610a5f6121f6565b604051808273ffffffffffffffffffffffffffffffffffffffff1673ffffffffffffffffffffffffffffffffffffffff16815260200191505060405180910390f35b348015610aad57600080fd5b50610ab661221c565b60405180826000191660001916815260200191505060405180910390f35b348015610ae057600080fd5b50610ae9612240565b6040518082815260200191505060405180910390f35b348015610b0b57600080fd5b50610b14612246565b6040518082815260200191505060405180910390f35b348015610b3657600080fd5b50610b3f612256565b604051808273ffffffffffffffffffffffffffffffffffffffff1673ffffffffffffffffffffffffffffffffffffffff16815260200191505060405180910390f35b348015610b8d57600080fd5b50610b9661227f565b604051808215151515815260200191505060405180910390f35b348015610bbc57600080fd5b50610c13600480360381019080803573ffffffffffffffffffffffffffffffffffffffff169060200190929190803590602001909291908035906020019082018035906020019190919293919293905050506122d6565b6040518082815260200191505060405180910390f35b348015610c3557600080fd5b50610c3e612617565b60405180826000191660001916815260200191505060405180910390f35b348015610c6857600080fd5b50610c7161263b565b6040518082815260200191505060405180910390f35b348015610c9357600080fd5b50610cc8600480360381019080803573ffffffffffffffffffffffffffffffffffffffff16906020019092919050505061264b565b604051808215151515815260200191505060405180910390f35b348015610cee57600080fd5b50610d23600480360381019080803573ffffffffffffffffffffffffffffffffffffffff169060200190929190505050612697565b005b348015610d3157600080fd5b50610d50600480360381019080803590602001909291905050506126ee565b604051808273ffffffffffffffffffffffffffffffffffffffff1673ffffffffffffffffffffffffffffffffffffffff16815260200191505060405180910390f35b348015610d9e57600080fd5b50610da761272b565b6040518082815260200191505060405180910390f35b348015610dc957600080fd5b50610dd261273b565b6040518082815260200191505060405180910390f35b348015610df457600080fd5b50610e41600480360381019080803573ffffffffffffffffffffffffffffffffffffffff1690602001909291908035906020019082018035906020019190919293919293905050506127e8565b6040518082815260200191505060405180910390f35b348015610e6357600080fd5b50610e6c612c30565b60405180826000191660001916815260200191505060405180910390f35b348015610e9657600080fd5b50610ec160048036038101908080359060200190929190803515159060200190929190505050612c69565b005b348015610ecf57600080fd5b50610ed8612e4f565b6040518082815260200191505060405180910390f35b348015610efa57600080fd5b50610f2f600480360381019080803573ffffffffffffffffffffffffffffffffffffffff169060200190929190505050612efc565b6040518082815260200191505060405180910390f35b348015610f5157600080fd5b50610f5a612f45565b6040518082815260200191505060405180910390f35b348015610f7c57600080fd5b50610f85612f4b565b6040518082815260200191505060405180910390f35b348015610fa757600080fd5b50610fb0612f55565b6040518082815260200191505060405180910390f35b348015610fd257600080fd5b506110c7600480360381019080803573ffffffffffffffffffffffffffffffffffffffff169060200190929190803573ffffffffffffffffffffffffffffffffffffffff16906020019092919080359060200190929190803590602001908201803590602001908080601f0160208091040260200160405190810160405280939291908181526020018383808284378201915050505050509192919290803590602001908201803590602001908080601f016020809104026020016040519081016040528093929190818152602001838380828437820191505050505050919291929080359060200190929190505050612f5f565b005b3480156110d557600080fd5b506110de613480565b6040518082815260200191505060405180910390f35b34801561110057600080fd5b50611135600480360381019080803573ffffffffffffffffffffffffffffffffffffffff169060200190929190505050613486565b005b34801561114357600080fd5b506111a06004803603810190808035600019169060200190929190803590602001909291908035906020019082018035906020019190919293919293908035906020019082018035906020019190919293919293905050506134a5565b6040518082815260200191505060405180910390f35b60008060405180807f6f72672e6d6574616469756d2e70726f78792e696d706c656d656e746174696f81526020017f6e00000000000000000000000000000000000000000000000000000000000000815250602101905060405180910390209050805491505090565b60405180807f62616c6c6f744475726174696f6e4d61780000000000000000000000000000008152506011019050604051809103902081565b60025481565b6002600681111561126b57fe5b81565b60405180807f67617350726963650000000000000000000000000000000000000000000000008152506008019050604051809103902081565b6000600c600083815260200190815260200160002060009054906101000a900473ffffffffffffffffffffffffffffffffffffffff169050919050565b60006113ec905090565b60006112f861382b565b73ffffffffffffffffffffffffffffffffffffffff166333be496e6040518163ffffffff167c0100000000000000000000000000000000000000000000000000000000028152600401602060405180830381600087803b15801561135b57600080fd5b505af115801561136f573d6000803e3d6000fd5b505050506040513d602081101561138557600080fd5b8101908080519060200190929190505050905090565b60006008600083815260200190815260200160002060009054906101000a900473ffffffffffffffffffffffffffffffffffffffff169050919050565b7f5374616b696e670000000000000000000000000000000000000000000000000081565b60006060806060600080600080600061141361227f565b151561141e57600080fd5b60001515600460009054906101000a900460ff1615151415156114a9576040517f08c379a00000000000000000000000000000000000000000000000000000000081526004018080602001828103825260138152602001807f416c726561647920696e697469616c697a65640000000000000000000000000081525060200191505060405180910390fd5b6114b28c612697565b6114bb8b61385b565b6001600460006101000a81548160ff021916908315150217905550436003819055506000935060208a0192508951830191505b818310156117865782519450849850602083019250818310151561151157600080fd5b829750875160200183019250818310151561152b57600080fd5b829650865160200183019250818310151561154557600080fd5b829550855160200183019250818310151561155f57600080fd5b82519450602083019250600184019350886005600086815260200190815260200160002060006101000a81548173ffffffffffffffffffffffffffffffffffffffff021916908373ffffffffffffffffffffffffffffffffffffffff16021790555083600660008b73ffffffffffffffffffffffffffffffffffffffff1673ffffffffffffffffffffffffffffffffffffffff16815260200190815260200160002081905550886008600086815260200190815260200160002060006101000a81548173ffffffffffffffffffffffffffffffffffffffff021916908373ffffffffffffffffffffffffffffffffffffffff16021790555083600960008b73ffffffffffffffffffffffffffffffffffffffff1673ffffffffffffffffffffffffffffffffffffffff16815260200190815260200160002081905550600a60008581526020019081526020016000209050868160000190805190602001906116c8929190616a80565b50858160010190805190602001906116e1929190616a80565b5084816002018190555088600c600086815260200190815260200160002060006101000a81548173ffffffffffffffffffffffffffffffffffffffff021916908373ffffffffffffffffffffffffffffffffffffffff16021790555083600b60008b73ffffffffffffffffffffffffffffffffffffffff1673ffffffffffffffffffffffffffffffffffffffff168152602001908152602001600020819055506114ee565b8360078190555083600d81905550505050505050505050505050565b600260068111156117af57fe5b81565b60006117bc6138c2565b73ffffffffffffffffffffffffffffffffffffffff1663a230c524336040518263ffffffff167c0100000000000000000000000000000000000000000000000000000000028152600401808273ffffffffffffffffffffffffffffffffffffffff1673ffffffffffffffffffffffffffffffffffffffff168152602001915050602060405180830381600087803b15801561185657600080fd5b505af115801561186a573d6000803e3d6000fd5b505050506040513d602081101561188057600080fd5b81019080805190602001909291905050501515611905576040517f08c379a000000000000000000000000000000000000000000000000000000000815260040180806020018281038252600d8152602001807f4e6f205065726d697373696f6e0000000000000000000000000000000000000081525060200191505060405180910390fd5b61190e8b61264b565b1515611982576040517f08c379a000000000000000000000000000000000000000000000000000000000815260040180806020018281038252600a8152602001807f4e6f6e2d6d656d6265720000000000000000000000000000000000000000000081525060200191505060405180910390fd5b6119986001600e546138f290919063ffffffff16565b9050611a1a81600360058111156119ab57fe5b338e8e8e8e8080601f0160208091040260200160405190810160405280939291908181526020018383808284378201915050505050508d8d8080601f0160208091040260200160405190810160405280939291908181526020018383808284378201915050505050508c613913565b611a248185613b31565b611a608184848080601f016020809104026020016040519081016040528093929190818152602001838380828437820191505050505050613bcb565b80600e819055509a9950505050505050505050565b7f526577617264506f6f6c0000000000000000000000000000000000000000000081565b6000611aa36138c2565b73ffffffffffffffffffffffffffffffffffffffff1663a230c524336040518263ffffffff167c0100000000000000000000000000000000000000000000000000000000028152600401808273ffffffffffffffffffffffffffffffffffffffff1673ffffffffffffffffffffffffffffffffffffffff168152602001915050602060405180830381600087803b158015611b3d57600080fd5b505af1158015611b51573d6000803e3d6000fd5b505050506040513d6020811015611b6757600080fd5b81019080805190602001909291905050501515611bec576040517f08c379a000000000000000000000000000000000000000000000000000000000815260040180806020018281038252600d8152602001807f4e6f205065726d697373696f6e0000000000000000000000000000000000000081525060200191505060405180910390fd5b8973ffffffffffffffffffffffffffffffffffffffff163373ffffffffffffffffffffffffffffffffffffffff1614151515611c90576040517f08c379a000000000000000000000000000000000000000000000000000000000815260040180806020018281038252600f8152602001807f43616e6e6f74206164642073656c66000000000000000000000000000000000081525060200191505060405180910390fd5b611c998a61264b565b151515611d0e576040517f08c379a000000000000000000000000000000000000000000000000000000000815260040180806020018281038252600e8152602001807f416c7265616479206d656d62657200000000000000000000000000000000000081525060200191505060405180910390fd5b611d246001600e546138f290919063ffffffff16565b9050611da78160016005811115611d3757fe5b3360008e8e8e8080601f0160208091040260200160405190810160405280939291908181526020018383808284378201915050505050508d8d8080601f0160208091040260200160405190810160405280939291908181526020018383808284378201915050505050508c613913565b611db18185613b31565b611ded8184848080601f016020809104026020016040519081016040528093929190818152602001838380828437820191505050505050613bcb565b80600e819055509998505050505050505050565b6060806000600a6000858152602001908152602001600020600001600a6000868152602001908152602001600020600101600a600087815260200190815260200160002060020154828054600181600116156101000203166002900480601f016020809104026020016040519081016040528092919081815260200182805460018160011615610100020316600290048015611ede5780601f10611eb357610100808354040283529160200191611ede565b820191906000526020600020905b815481529060010190602001808311611ec157829003601f168201915b50505050509250818054600181600116156101000203166002900480601f016020809104026020016040519081016040528092919081815260200182805460018160011615610100020316600290048015611f7a5780601f10611f4f57610100808354040283529160200191611f7a565b820191906000526020600020905b815481529060010190602001808311611f5d57829003601f168201915b505050505091509250925092509193909250565b60405180807f626c6f636b5065720000000000000000000000000000000000000000000000008152506008019050604051809103902081565b6000611fd161382b565b73ffffffffffffffffffffffffffffffffffffffff1663737c59b86040518163ffffffff167c0100000000000000000000000000000000000000000000000000000000028152600401602060405180830381600087803b15801561203457600080fd5b505af1158015612048573d6000803e3d6000fd5b505050506040513d602081101561205e57600080fd5b8101908080519060200190929190505050905090565b6002600681111561208157fe5b81565b7f476f7665726e616e6365436f6e7472616374000000000000000000000000000081565b60405180807f62616c6c6f744475726174696f6e4d696e0000000000000000000000000000008152506011019050604051809103902081565b60405180807f7374616b696e674d696e00000000000000000000000000000000000000000000815250600a019050604051809103902081565b61212261227f565b151561212d57600080fd5b600073ffffffffffffffffffffffffffffffffffffffff166000809054906101000a900473ffffffffffffffffffffffffffffffffffffffff1673ffffffffffffffffffffffffffffffffffffffff167f8be0079c531659141344cd1fd0a4f28419497f9722a3daafe3b4186f6b6457e060405160405180910390a360008060006101000a81548173ffffffffffffffffffffffffffffffffffffffff021916908373ffffffffffffffffffffffffffffffffffffffff160217905550565b6000600d54905090565b600160009054906101000a900473ffffffffffffffffffffffffffffffffffffffff1681565b7f456e7653746f726167650000000000000000000000000000000000000000000081565b60035481565b6002600681111561225357fe5b81565b60008060009054906101000a900473ffffffffffffffffffffffffffffffffffffffff16905090565b60008060009054906101000a900473ffffffffffffffffffffffffffffffffffffffff1673ffffffffffffffffffffffffffffffffffffffff163373ffffffffffffffffffffffffffffffffffffffff1614905090565b60006122e06138c2565b73ffffffffffffffffffffffffffffffffffffffff1663a230c524336040518263ffffffff167c0100000000000000000000000000000000000000000000000000000000028152600401808273ffffffffffffffffffffffffffffffffffffffff1673ffffffffffffffffffffffffffffffffffffffff168152602001915050602060405180830381600087803b15801561237a57600080fd5b505af115801561238e573d6000803e3d6000fd5b505050506040513d60208110156123a457600080fd5b81019080805190602001909291905050501515612429576040517f08c379a000000000000000000000000000000000000000000000000000000000815260040180806020018281038252600d8152602001807f4e6f205065726d697373696f6e0000000000000000000000000000000000000081525060200191505060405180910390fd5b6124328561264b565b15156124a6576040517f08c379a000000000000000000000000000000000000000000000000000000000815260040180806020018281038252600a8152602001807f4e6f6e2d6d656d6265720000000000000000000000000000000000000000000081525060200191505060405180910390fd5b60016124b0612f4b565b111515612525576040517f08c379a000000000000000000000000000000000000000000000000000000000815260040180806020018281038252601b8152602001807f43616e6e6f742072656d6f7665206120736f6c65206d656d626572000000000081525060200191505060405180910390fd5b61253b6001600e546138f290919063ffffffff16565b90506125c2816002600581111561254e57fe5b33886000806040519080825280601f01601f1916602001820160405280156125855781602001602082028038833980820191505090505b5060006040519080825280601f01601f1916602001820160405280156125ba5781602001602082028038833980820191505090505b506000613913565b6125cc8185613b31565b6126088184848080601f016020809104026020016040519081016040528093929190818152602001838380828437820191505050505050613bcb565b80600e81905550949350505050565b7f42616c6c6f7453746f726167650000000000000000000000000000000000000081565b6002600681111561264857fe5b81565b600080600660008473ffffffffffffffffffffffffffffffffffffffff1673ffffffffffffffffffffffffffffffffffffffff1681526020019081526020016000205414159050919050565b61269f61227f565b15156126aa57600080fd5b80600160006101000a81548173ffffffffffffffffffffffffffffffffffffffff021916908373ffffffffffffffffffffffffffffffffffffffff16021790555050565b60006005600083815260200190815260200160002060009054906101000a900473ffffffffffffffffffffffffffffffffffffffff169050919050565b6002600681111561273857fe5b81565b600061274561382b565b73ffffffffffffffffffffffffffffffffffffffff1663076cd77f6040518163ffffffff167c0100000000000000000000000000000000000000000000000000000000028152600401602060405180830381600087803b1580156127a857600080fd5b505af11580156127bc573d6000803e3d6000fd5b505050506040513d60208110156127d257600080fd5b8101908080519060200190929190505050905090565b60006127f26138c2565b73ffffffffffffffffffffffffffffffffffffffff1663a230c524336040518263ffffffff167c0100000000000000000000000000000000000000000000000000000000028152600401808273ffffffffffffffffffffffffffffffffffffffff1673ffffffffffffffffffffffffffffffffffffffff168152602001915050602060405180830381600087803b15801561288c57600080fd5b505af11580156128a0573d6000803e3d6000fd5b505050506040513d60208110156128b657600080fd5b8101908080519060200190929190505050151561293b576040517f08c379a000000000000000000000000000000000000000000000000000000000815260040180806020018281038252600d8152602001807f4e6f205065726d697373696f6e0000000000000000000000000000000000000081525060200191505060405180910390fd5b600073ffffffffffffffffffffffffffffffffffffffff168473ffffffffffffffffffffffffffffffffffffffff16141515156129e0576040517f08c379a000000000000000000000000000000000000000000000000000000000815260040180806020018281038252601d8152602001807f496d706c656d656e746174696f6e2063616e6e6f74206265207a65726f00000081525060200191505060405180910390fd5b6129e86111b6565b73ffffffffffffffffffffffffffffffffffffffff168473ffffffffffffffffffffffffffffffffffffffff1614151515612a8b576040517f08c379a00000000000000000000000000000000000000000000000000000000081526004018080602001828103825260158152602001807f53616d6520636f6e74726163742061646472657373000000000000000000000081525060200191505060405180910390fd5b612aa16001600e546138f290919063ffffffff16565b9050612aab613cca565b73ffffffffffffffffffffffffffffffffffffffff16634a4af013612adc6001600e546138f290919063ffffffff16565b60046005811115612ae957fe5b33886040518563ffffffff167c0100000000000000000000000000000000000000000000000000000000028152600401808581526020018481526020018373ffffffffffffffffffffffffffffffffffffffff1673ffffffffffffffffffffffffffffffffffffffff1681526020018273ffffffffffffffffffffffffffffffffffffffff1673ffffffffffffffffffffffffffffffffffffffff168152602001945050505050602060405180830381600087803b158015612baa57600080fd5b505af1158015612bbe573d6000803e3d6000fd5b505050506040513d6020811015612bd457600080fd5b810190808051906020019092919050505050612c228184848080601f016020809104026020016040519081016040528093929190818152602001838380828437820191505050505050613bcb565b80600e819055509392505050565b60405180807f7374616b696e674d617800000000000000000000000000000000000000000000815250600a019050604051809103902081565b6000806000612c766138c2565b73ffffffffffffffffffffffffffffffffffffffff1663a230c524336040518263ffffffff167c0100000000000000000000000000000000000000000000000000000000028152600401808273ffffffffffffffffffffffffffffffffffffffff1673ffffffffffffffffffffffffffffffffffffffff168152602001915050602060405180830381600087803b158015612d1057600080fd5b505af1158015612d24573d6000803e3d6000fd5b505050506040513d6020811015612d3a57600080fd5b81019080805190602001909291905050501515612dbf576040517f08c379a000000000000000000000000000000000000000000000000000000000815260040180806020018281038252600d8152602001807f4e6f205065726d697373696f6e0000000000000000000000000000000000000081525060200191505060405180910390fd5b600060016011600082825401925050819055506011549050612de086613cfa565b612de986613e1d565b9350612df58686613f50565b612dfe86614286565b9350935050612e0b6112e4565b83108015612e1f5750612e1c6112e4565b82105b15612e2957612e37565b612e36868584861161435d565b5b60115481141515612e4757600080fd5b505050505050565b6000612e5961382b565b73ffffffffffffffffffffffffffffffffffffffff16631b27e01b6040518163ffffffff167c0100000000000000000000000000000000000000000000000000000000028152600401602060405180830381600087803b158015612ebc57600080fd5b505af1158015612ed0573d6000803e3d6000fd5b505050506040513d6020811015612ee657600080fd5b8101908080519060200190929190505050905090565b6000600b60008373ffffffffffffffffffffffffffffffffffffffff1673ffffffffffffffffffffffffffffffffffffffff168152602001908152602001600020549050919050565b600e5481565b6000600754905090565b6000601054905090565b600080612f6a61227f565b1515612f7557600080fd5b60001515600460009054906101000a900460ff161515141515613000576040517f08c379a00000000000000000000000000000000000000000000000000000000081526004018080602001828103825260138152602001807f416c726561647920696e697469616c697a65640000000000000000000000000081525060200191505060405180910390fd5b61300988612697565b6130128761385b565b61301a614445565b9150858273ffffffffffffffffffffffffffffffffffffffff166325d998bb336040518263ffffffff167c0100000000000000000000000000000000000000000000000000000000028152600401808273ffffffffffffffffffffffffffffffffffffffff1673ffffffffffffffffffffffffffffffffffffffff168152602001915050602060405180830381600087803b1580156130b857600080fd5b505af11580156130cc573d6000803e3d6000fd5b505050506040513d60208110156130e257600080fd5b810190808051906020019092919050505010151515613169576040517f08c379a00000000000000000000000000000000000000000000000000000000081526004018080602001828103825260148152602001807f496e73756666696369656e74207374616b696e6700000000000000000000000081525060200191505060405180910390fd5b8173ffffffffffffffffffffffffffffffffffffffff1663282d3fdf33886040518363ffffffff167c0100000000000000000000000000000000000000000000000000000000028152600401808373ffffffffffffffffffffffffffffffffffffffff1673ffffffffffffffffffffffffffffffffffffffff16815260200182815260200192505050600060405180830381600087803b15801561320c57600080fd5b505af1158015613220573d6000803e3d6000fd5b5050505060016007819055503360056000600754815260200190815260200160002060006101000a81548173ffffffffffffffffffffffffffffffffffffffff021916908373ffffffffffffffffffffffffffffffffffffffff160217905550600754600660003373ffffffffffffffffffffffffffffffffffffffff1673ffffffffffffffffffffffffffffffffffffffff168152602001908152602001600020819055503360086000600754815260200190815260200160002060006101000a81548173ffffffffffffffffffffffffffffffffffffffff021916908373ffffffffffffffffffffffffffffffffffffffff160217905550600754600960003373ffffffffffffffffffffffffffffffffffffffff1673ffffffffffffffffffffffffffffffffffffffff168152602001908152602001600020819055506001600d81905550600a6000600d548152602001908152602001600020905084816000019080519060200190613397929190616a80565b50838160010190805190602001906133b0929190616a80565b50828160020181905550600d54600b60003373ffffffffffffffffffffffffffffffffffffffff1673ffffffffffffffffffffffffffffffffffffffff1681526020019081526020016000208190555033600c6000600d54815260200190815260200160002060006101000a81548173ffffffffffffffffffffffffffffffffffffffff021916908373ffffffffffffffffffffffffffffffffffffffff1602179055506001600460006101000a81548160ff021916908315150217905550436003819055505050505050505050565b600f5481565b61348e61227f565b151561349957600080fd5b6134a281614475565b50565b60006134af6138c2565b73ffffffffffffffffffffffffffffffffffffffff1663a230c524336040518263ffffffff167c0100000000000000000000000000000000000000000000000000000000028152600401808273ffffffffffffffffffffffffffffffffffffffff1673ffffffffffffffffffffffffffffffffffffffff168152602001915050602060405180830381600087803b15801561354957600080fd5b505af115801561355d573d6000803e3d6000fd5b505050506040513d602081101561357357600080fd5b810190808051906020019092919050505015156135f8576040517f08c379a000000000000000000000000000000000000000000000000000000000815260040180806020018281038252600d8152602001807f4e6f205065726d697373696f6e0000000000000000000000000000000000000081525060200191505060405180910390fd5b856001600681111561360657fe5b1115801561361f575060068081111561361b57fe5b8611155b1515613693576040517f08c379a000000000000000000000000000000000000000000000000000000000815260040180806020018281038252600c8152602001807f496e76616c69642074797065000000000000000000000000000000000000000081525060200191505060405180910390fd5b6136a96001600e546138f290919063ffffffff16565b90506136b3613cca565b73ffffffffffffffffffffffffffffffffffffffff16637f5b7ab3826005808111156136db57fe5b338b8b8b8b6040518863ffffffff167c0100000000000000000000000000000000000000000000000000000000028152600401808881526020018781526020018673ffffffffffffffffffffffffffffffffffffffff1673ffffffffffffffffffffffffffffffffffffffff1681526020018560001916600019168152602001848152602001806020018281038252848482818152602001925080828437820191505098505050505050505050602060405180830381600087803b1580156137a257600080fd5b505af11580156137b6573d6000803e3d6000fd5b505050506040513d60208110156137cc57600080fd5b81019080805190602001909291905050505061381a8184848080601f016020809104026020016040519081016040528093929190818152602001838380828437820191505050505050613bcb565b80600e819055509695505050505050565b60006138567f456e7653746f726167650000000000000000000000000000000000000000000061456f565b905090565b600060405180807f6f72672e6d6574616469756d2e70726f78792e696d706c656d656e746174696f81526020017f6e000000000000000000000000000000000000000000000000000000000000008152506021019050604051809103902090508181555050565b60006138ed7f476f7665726e616e6365436f6e7472616374000000000000000000000000000061456f565b905090565b600080828401905083811015151561390957600080fd5b8091505092915050565b61391b613cca565b73ffffffffffffffffffffffffffffffffffffffff166374b4af5689898989898989896040518963ffffffff167c0100000000000000000000000000000000000000000000000000000000028152600401808981526020018881526020018773ffffffffffffffffffffffffffffffffffffffff1673ffffffffffffffffffffffffffffffffffffffff1681526020018673ffffffffffffffffffffffffffffffffffffffff1673ffffffffffffffffffffffffffffffffffffffff1681526020018573ffffffffffffffffffffffffffffffffffffffff1673ffffffffffffffffffffffffffffffffffffffff1681526020018060200180602001848152602001838103835286818151815260200191508051906020019080838360005b83811015613a55578082015181840152602081019050613a3a565b50505050905090810190601f168015613a825780820380516001836020036101000a031916815260200191505b50838103825285818151815260200191508051906020019080838360005b83811015613abb578082015181840152602081019050613aa0565b50505050905090810190601f168015613ae85780820380516001836020036101000a031916815260200191505b509a5050505050505050505050600060405180830381600087803b158015613b0f57600080fd5b505af1158015613b23573d6000803e3d6000fd5b505050505050505050505050565b613b39613cca565b73ffffffffffffffffffffffffffffffffffffffff166372d0ec9283836040518363ffffffff167c01000000000000000000000000000000000000000000000000000000000281526004018083815260200182815260200192505050600060405180830381600087803b158015613baf57600080fd5b505af1158015613bc3573d6000803e3d6000fd5b505050505050565b613bd3613cca565b73ffffffffffffffffffffffffffffffffffffffff1663bce0dbc183836040518363ffffffff167c01000000000000000000000000000000000000000000000000000000000281526004018083815260200180602001828103825283818151815260200191508051906020019080838360005b83811015613c61578082015181840152602081019050613c46565b50505050905090810190601f168015613c8e5780820380516001836020036101000a031916815260200191505b509350505050600060405180830381600087803b158015613cae57600080fd5b505af1158015613cc2573d6000803e3d6000fd5b505050505050565b6000613cf57f42616c6c6f7453746f726167650000000000000000000000000000000000000061456f565b905090565b6000806000601054141515613e1757613d1460105461464c565b50925050613d23601054614723565b5091505060026005811115613d3457fe5b821415613e165742811015613d7557613d598360046005811115613d5457fe5b6147fa565b6000601081905550601054831415613d7057613e18565b613e15565b60105483141515613e14576040517f08c379a00000000000000000000000000000000000000000000000000000000081526004018080602001828103825260238152602001807f4e6f7720696e20766f74696e67207769746820646966666572656e742062616c81526020017f6c6f74000000000000000000000000000000000000000000000000000000000081525060400191505060405180910390fd5b5b5b5b5b505050565b600080600080613e2c8561464c565b509250925060016005811115613e3e57fe5b821415613ebd57613e4e85614723565b92505050613e5a6112ee565b811015613e7a57613e758542613e6e6112ee565b4201614894565b613eb1565b80613e83612e4f565b1015613ea257613e9d8542613e96612e4f565b4201614894565b613eb0565b613eaf8542834201614894565b5b5b84601081905550613f45565b60026005811115613eca57fe5b821415613ed657613f44565b6040517f08c379a00000000000000000000000000000000000000000000000000000000081526004018080602001828103825260078152602001807f457870697265640000000000000000000000000000000000000000000000000081525060200191505060405180910390fd5b5b829350505050919050565b600080613f696001600f546138f290919063ffffffff16565b9150613f73614445565b73ffffffffffffffffffffffffffffffffffffffff16637d77a0eb336127106040518363ffffffff167c0100000000000000000000000000000000000000000000000000000000028152600401808373ffffffffffffffffffffffffffffffffffffffff1673ffffffffffffffffffffffffffffffffffffffff1681526020018263ffffffff16815260200192505050602060405180830381600087803b15801561401d57600080fd5b505af1158015614031573d6000803e3d6000fd5b505050506040513d602081101561404757600080fd5b81019080805190602001909291905050509050821561416f57614068613cca565b73ffffffffffffffffffffffffffffffffffffffff166396462b9c8386336001600281111561409357fe5b866040518663ffffffff167c0100000000000000000000000000000000000000000000000000000000028152600401808681526020018581526020018473ffffffffffffffffffffffffffffffffffffffff1673ffffffffffffffffffffffffffffffffffffffff16815260200183815260200182815260200195505050505050602060405180830381600087803b15801561412e57600080fd5b505af1158015614142573d6000803e3d6000fd5b505050506040513d602081101561415857600080fd5b810190808051906020019092919050505050614279565b614177613cca565b73ffffffffffffffffffffffffffffffffffffffff166396462b9c8386336002808111156141a157fe5b866040518663ffffffff167c0100000000000000000000000000000000000000000000000000000000028152600401808681526020018581526020018473ffffffffffffffffffffffffffffffffffffffff1673ffffffffffffffffffffffffffffffffffffffff16815260200183815260200182815260200195505050505050602060405180830381600087803b15801561423c57600080fd5b505af1158015614250573d6000803e3d6000fd5b505050506040513d602081101561426657600080fd5b8101908080519060200190929190505050505b81600f8190555050505050565b6000806000614293613cca565b73ffffffffffffffffffffffffffffffffffffffff166356ba988e856040518263ffffffff167c010000000000000000000000000000000000000000000000000000000002815260040180828152602001915050606060405180830381600087803b15801561430157600080fd5b505af1158015614315573d6000803e3d6000fd5b505050506040513d606081101561432b57600080fd5b810190808051906020019092919080519060200190929190805190602001909291905050509250925092509193909250565b60006004600581111561436c57fe5b9050811561442d576001600581111561438157fe5b8314156143965761439184614937565b61441d565b600260058111156143a357fe5b8314156143b8576143b384614cc3565b61441c565b600360058111156143c557fe5b8314156143da576143d584615444565b61441b565b600460058111156143e757fe5b8314156143fc576143f784615a30565b61441a565b60058081111561440857fe5b8314156144195761441884615b3f565b5b5b5b5b5b6003600581111561442a57fe5b90505b61443784826147fa565b600060108190555050505050565b60006144707f5374616b696e670000000000000000000000000000000000000000000000000061456f565b905090565b600073ffffffffffffffffffffffffffffffffffffffff168173ffffffffffffffffffffffffffffffffffffffff16141515156144b157600080fd5b8073ffffffffffffffffffffffffffffffffffffffff166000809054906101000a900473ffffffffffffffffffffffffffffffffffffffff1673ffffffffffffffffffffffffffffffffffffffff167f8be0079c531659141344cd1fd0a4f28419497f9722a3daafe3b4186f6b6457e060405160405180910390a3806000806101000a81548173ffffffffffffffffffffffffffffffffffffffff021916908373ffffffffffffffffffffffffffffffffffffffff16021790555050565b6000600160009054906101000a900473ffffffffffffffffffffffffffffffffffffffff1673ffffffffffffffffffffffffffffffffffffffff16630d2020dd836040518263ffffffff167c0100000000000000000000000000000000000000000000000000000000028152600401808260001916600019168152602001915050602060405180830381600087803b15801561460a57600080fd5b505af115801561461e573d6000803e3d6000fd5b505050506040513d602081101561463457600080fd5b81019080805190602001909291905050509050919050565b6000806000614659613cca565b73ffffffffffffffffffffffffffffffffffffffff1663688ca5b2856040518263ffffffff167c010000000000000000000000000000000000000000000000000000000002815260040180828152602001915050606060405180830381600087803b1580156146c757600080fd5b505af11580156146db573d6000803e3d6000fd5b505050506040513d60608110156146f157600080fd5b810190808051906020019092919080519060200190929190805190602001909291905050509250925092509193909250565b6000806000614730613cca565b73ffffffffffffffffffffffffffffffffffffffff166309970688856040518263ffffffff167c010000000000000000000000000000000000000000000000000000000002815260040180828152602001915050606060405180830381600087803b15801561479e57600080fd5b505af11580156147b2573d6000803e3d6000fd5b505050506040513d60608110156147c857600080fd5b810190808051906020019092919080519060200190929190805190602001909291905050509250925092509193909250565b614802613cca565b73ffffffffffffffffffffffffffffffffffffffff1663a91e59ba83836040518363ffffffff167c01000000000000000000000000000000000000000000000000000000000281526004018083815260200182815260200192505050600060405180830381600087803b15801561487857600080fd5b505af115801561488c573d6000803e3d6000fd5b505050505050565b61489c613cca565b73ffffffffffffffffffffffffffffffffffffffff1663c0b6f1868484846040518463ffffffff167c0100000000000000000000000000000000000000000000000000000000028152600401808481526020018381526020018281526020019350505050600060405180830381600087803b15801561491a57600080fd5b505af115801561492e573d6000803e3d6000fd5b50505050505050565b6000606080600080600080600061495a896001600581111561495557fe5b6163c9565b6149638961657e565b98509850985098509850506149778861264b565b1561498157614cb8565b8361498a61273b565b1115801561499f575061499b611fc7565b8411155b1515614a13576040517f08c379a00000000000000000000000000000000000000000000000000000000081526004018080602001828103825260138152602001807f496e76616c6964206c6f636b20616d6f756e740000000000000000000000000081525060200191505060405180910390fd5b614a1d888561671d565b614a3360016007546138f290919063ffffffff16565b9250876005600085815260200190815260200160002060006101000a81548173ffffffffffffffffffffffffffffffffffffffff021916908373ffffffffffffffffffffffffffffffffffffffff16021790555082600660008a73ffffffffffffffffffffffffffffffffffffffff1673ffffffffffffffffffffffffffffffffffffffff16815260200190815260200160002081905550876008600085815260200190815260200160002060006101000a81548173ffffffffffffffffffffffffffffffffffffffff021916908373ffffffffffffffffffffffffffffffffffffffff16021790555082600960008a73ffffffffffffffffffffffffffffffffffffffff1673ffffffffffffffffffffffffffffffffffffffff16815260200190815260200160002081905550614b776001600d546138f290919063ffffffff16565b9150600a6000838152602001908152602001600020905086816000019080519060200190614ba6929190616a80565b5085816001019080519060200190614bbf929190616a80565b5084816002018190555087600c600084815260200190815260200160002060006101000a81548173ffffffffffffffffffffffffffffffffffffffff021916908373ffffffffffffffffffffffffffffffffffffffff16021790555081600b60008a73ffffffffffffffffffffffffffffffffffffffff1673ffffffffffffffffffffffffffffffffffffffff168152602001908152602001600020819055508260078190555081600d81905550436003819055508773ffffffffffffffffffffffffffffffffffffffff167fb251eb052afc73ffd02ffe85ad79990a8b3fed60d76dbc2fa2fdd7123dffd91460405160405180910390a25b505050505050505050565b6000806000614cde8460026005811115614cd957fe5b6163c9565b614ce78461657e565b9650505050509250614cf88361264b565b1515614d035761543e565b600754600660008573ffffffffffffffffffffffffffffffffffffffff1673ffffffffffffffffffffffffffffffffffffffff168152602001908152602001600020541415156150765760056000600754815260200190815260200160002060009054906101000a900473ffffffffffffffffffffffffffffffffffffffff1660056000600660008773ffffffffffffffffffffffffffffffffffffffff1673ffffffffffffffffffffffffffffffffffffffff16815260200190815260200160002054815260200190815260200160002060009054906101000a900473ffffffffffffffffffffffffffffffffffffffff1660056000600660008873ffffffffffffffffffffffffffffffffffffffff1673ffffffffffffffffffffffffffffffffffffffff168152602001908152602001600020548152602001908152602001600020600060056000600754815260200190815260200160002060008491906101000a81548173ffffffffffffffffffffffffffffffffffffffff021916908373ffffffffffffffffffffffffffffffffffffffff1602179055508391906101000a81548173ffffffffffffffffffffffffffffffffffffffff021916908373ffffffffffffffffffffffffffffffffffffffff160217905550505060086000600754815260200190815260200160002060009054906101000a900473ffffffffffffffffffffffffffffffffffffffff1660086000600660008773ffffffffffffffffffffffffffffffffffffffff1673ffffffffffffffffffffffffffffffffffffffff16815260200190815260200160002054815260200190815260200160002060009054906101000a900473ffffffffffffffffffffffffffffffffffffffff1660086000600660008873ffffffffffffffffffffffffffffffffffffffff1673ffffffffffffffffffffffffffffffffffffffff168152602001908152602001600020548152602001908152602001600020600060086000600754815260200190815260200160002060008491906101000a81548173ffffffffffffffffffffffffffffffffffffffff021916908373ffffffffffffffffffffffffffffffffffffffff1602179055508391906101000a81548173ffffffffffffffffffffffffffffffffffffffff021916908373ffffffffffffffffffffffffffffffffffffffff16021790555050505b600060056000600754815260200190815260200160002060006101000a81548173ffffffffffffffffffffffffffffffffffffffff021916908373ffffffffffffffffffffffffffffffffffffffff1602179055506000600660008573ffffffffffffffffffffffffffffffffffffffff1673ffffffffffffffffffffffffffffffffffffffff16815260200190815260200160002081905550600060086000600754815260200190815260200160002060006101000a81548173ffffffffffffffffffffffffffffffffffffffff021916908373ffffffffffffffffffffffffffffffffffffffff16021790555060006009600060086000600754815260200190815260200160002060009054906101000a900473ffffffffffffffffffffffffffffffffffffffff1673ffffffffffffffffffffffffffffffffffffffff1673ffffffffffffffffffffffffffffffffffffffff168152602001908152602001600020819055506151f560016007546167e390919063ffffffff16565b600781905550600d54600b60008573ffffffffffffffffffffffffffffffffffffffff1673ffffffffffffffffffffffffffffffffffffffff1681526020019081526020016000205414151561533357600a6000600b60008673ffffffffffffffffffffffffffffffffffffffff1673ffffffffffffffffffffffffffffffffffffffff1681526020019081526020016000205481526020019081526020016000209050600a6000600d5481526020019081526020016000206000018160000190805460018160011615610100020316600290046152d4929190616b00565b50600a6000600d548152602001908152602001600020600101816001019080546001816001161561010002031660029004615310929190616b00565b50600a6000600d5481526020019081526020016000206002015481600201819055505b6000600c6000600d54815260200190815260200160002060006101000a81548173ffffffffffffffffffffffffffffffffffffffff021916908373ffffffffffffffffffffffffffffffffffffffff1602179055506000600b60008573ffffffffffffffffffffffffffffffffffffffff1673ffffffffffffffffffffffffffffffffffffffff168152602001908152602001600020819055506153e36001600d546167e390919063ffffffff16565b600d81905550436003819055506153fa8383616804565b8273ffffffffffffffffffffffffffffffffffffffff167f6e76fb4c77256006d9c38ec7d82b45a8c8f3c27b1d6766fffc42dfb8de68449260405160405180910390a25b50505050565b600080606080600080600080615466896003600581111561546157fe5b6163c9565b61546f8961657e565b9750975097509750975097506154848861264b565b151561548f57615a25565b8673ffffffffffffffffffffffffffffffffffffffff168873ffffffffffffffffffffffffffffffffffffffff161415156157ce57826154cd61273b565b111580156154e257506154de611fc7565b8311155b1515615556576040517f08c379a00000000000000000000000000000000000000000000000000000000081526004018080602001828103825260138152602001807f496e76616c6964206c6f636b20616d6f756e740000000000000000000000000081525060200191505060405180910390fd5b615560878461671d565b8660056000600660008c73ffffffffffffffffffffffffffffffffffffffff1673ffffffffffffffffffffffffffffffffffffffff16815260200190815260200160002054815260200190815260200160002060006101000a81548173ffffffffffffffffffffffffffffffffffffffff021916908373ffffffffffffffffffffffffffffffffffffffff160217905550600660008973ffffffffffffffffffffffffffffffffffffffff1673ffffffffffffffffffffffffffffffffffffffff16815260200190815260200160002054600660008973ffffffffffffffffffffffffffffffffffffffff1673ffffffffffffffffffffffffffffffffffffffff168152602001908152602001600020819055508660086000600660008c73ffffffffffffffffffffffffffffffffffffffff1673ffffffffffffffffffffffffffffffffffffffff16815260200190815260200160002054815260200190815260200160002060006101000a81548173ffffffffffffffffffffffffffffffffffffffff021916908373ffffffffffffffffffffffffffffffffffffffff160217905550600960008973ffffffffffffffffffffffffffffffffffffffff1673ffffffffffffffffffffffffffffffffffffffff16815260200190815260200160002054600960008973ffffffffffffffffffffffffffffffffffffffff1673ffffffffffffffffffffffffffffffffffffffff168152602001908152602001600020819055506000600660008a73ffffffffffffffffffffffffffffffffffffffff1673ffffffffffffffffffffffffffffffffffffffff168152602001908152602001600020819055505b600b60008973ffffffffffffffffffffffffffffffffffffffff1673ffffffffffffffffffffffffffffffffffffffff168152602001908152602001600020549150600a600083815260200190815260200160002090508581600001908051906020019061583d929190616a80565b5084816001019080519060200190615856929190616a80565b50838160020181905550436003819055508673ffffffffffffffffffffffffffffffffffffffff168873ffffffffffffffffffffffffffffffffffffffff161415156159e05786600c600084815260200190815260200160002060006101000a81548173ffffffffffffffffffffffffffffffffffffffff021916908373ffffffffffffffffffffffffffffffffffffffff16021790555081600b60008973ffffffffffffffffffffffffffffffffffffffff1673ffffffffffffffffffffffffffffffffffffffff168152602001908152602001600020819055506000600b60008a73ffffffffffffffffffffffffffffffffffffffff1673ffffffffffffffffffffffffffffffffffffffff168152602001908152602001600020819055506159818884616804565b8673ffffffffffffffffffffffffffffffffffffffff168873ffffffffffffffffffffffffffffffffffffffff167f05d866cd9c6000815d031b7ce30f30f643766eba16be13cff25924dc8ad8209260405160405180910390a3615a24565b8773ffffffffffffffffffffffffffffffffffffffff167fc849ff69d29483b688b050076f9d03b1a618c93ea052a712bfd3224eb71da8e260405160405180910390a25b5b505050505050505050565b6000615a488260046005811115615a4357fe5b6163c9565b615a50613cca565b73ffffffffffffffffffffffffffffffffffffffff16637efa9ae3836040518263ffffffff167c010000000000000000000000000000000000000000000000000000000002815260040180828152602001915050602060405180830381600087803b158015615abe57600080fd5b505af1158015615ad2573d6000803e3d6000fd5b505050506040513d6020811015615ae857600080fd5b81019080805190602001909291905050509050600073ffffffffffffffffffffffffffffffffffffffff168173ffffffffffffffffffffffffffffffffffffffff16141515615b3b57615b3a8161385b565b5b5050565b60008060606000615b5b85600580811115615b5657fe5b6163c9565b615b63613cca565b73ffffffffffffffffffffffffffffffffffffffff16631d940da2866040518263ffffffff167c010000000000000000000000000000000000000000000000000000000002815260040180828152602001915050600060405180830381600087803b158015615bd157600080fd5b505af1158015615be5573d6000803e3d6000fd5b505050506040513d6000823e3d601f19601f820116820180604052506060811015615c0f57600080fd5b8101908080519060200190929190805190602001909291908051640100000000811115615c3b57600080fd5b82810190506020810184811115615c5157600080fd5b8151856001820283011164010000000082111715615c6e57600080fd5b5050929190505050935093509350615c8461382b565b905060405180807f626c6f636b50657200000000000000000000000000000000000000000000000081525060080190506040518091039020600019168460001916148015615cdd575060026006811115615cda57fe5b83145b15615dd3578073ffffffffffffffffffffffffffffffffffffffff16630a61b0ba836040518263ffffffff167c01000000000000000000000000000000000000000000000000000000000281526004018080602001828103825283818151815260200191508051906020019080838360005b83811015615d6a578082015181840152602081019050615d4f565b50505050905090810190601f168015615d975780820380516001836020036101000a031916815260200191505b5092505050600060405180830381600087803b158015615db657600080fd5b505af1158015615dca573d6000803e3d6000fd5b50505050616307565b60405180807f62616c6c6f744475726174696f6e4d696e00000000000000000000000000000081525060110190506040518091039020600019168460001916148015615e2a575060026006811115615e2757fe5b83145b15615f20578073ffffffffffffffffffffffffffffffffffffffff1663124cea37836040518263ffffffff167c01000000000000000000000000000000000000000000000000000000000281526004018080602001828103825283818151815260200191508051906020019080838360005b83811015615eb7578082015181840152602081019050615e9c565b50505050905090810190601f168015615ee45780820380516001836020036101000a031916815260200191505b5092505050600060405180830381600087803b158015615f0357600080fd5b505af1158015615f17573d6000803e3d6000fd5b50505050616306565b60405180807f62616c6c6f744475726174696f6e4d617800000000000000000000000000000081525060110190506040518091039020600019168460001916148015615f77575060026006811115615f7457fe5b83145b1561606d578073ffffffffffffffffffffffffffffffffffffffff1663a5d6a581836040518263ffffffff167c01000000000000000000000000000000000000000000000000000000000281526004018080602001828103825283818151815260200191508051906020019080838360005b83811015616004578082015181840152602081019050615fe9565b50505050905090810190601f1680156160315780820380516001836020036101000a031916815260200191505b5092505050600060405180830381600087803b15801561605057600080fd5b505af1158015616064573d6000803e3d6000fd5b50505050616305565b60405180807f7374616b696e674d696e00000000000000000000000000000000000000000000815250600a01905060405180910390206000191684600019161480156160c45750600260068111156160c157fe5b83145b156161ba578073ffffffffffffffffffffffffffffffffffffffff166371c6960d836040518263ffffffff167c01000000000000000000000000000000000000000000000000000000000281526004018080602001828103825283818151815260200191508051906020019080838360005b83811015616151578082015181840152602081019050616136565b50505050905090810190601f16801561617e5780820380516001836020036101000a031916815260200191505b5092505050600060405180830381600087803b15801561619d57600080fd5b505af11580156161b1573d6000803e3d6000fd5b50505050616304565b60405180807f7374616b696e674d617800000000000000000000000000000000000000000000815250600a019050604051809103902060001916846000191614801561621157506002600681111561620e57fe5b83145b15616303578073ffffffffffffffffffffffffffffffffffffffff16632eccd832836040518263ffffffff167c01000000000000000000000000000000000000000000000000000000000281526004018080602001828103825283818151815260200191508051906020019080838360005b8381101561629e578082015181840152602081019050616283565b50505050905090810190601f1680156162cb5780820380516001836020036101000a031916815260200191505b5092505050600060405180830381600087803b1580156162ea57600080fd5b505af11580156162fe573d6000803e3d6000fd5b505050505b5b5b5b5b436003819055507f701c16c2519cdb79aaac423a84733590e3510d9552055b6ad6908f0ab12b6c2984848460405180846000191660001916815260200183815260200180602001828103825283818151815260200191508051906020019080838360005b8381101561638657808201518184015260208101905061636b565b50505050905090810190601f1680156163b35780820380516001836020036101000a031916815260200191505b5094505050505060405180910390a15050505050565b6000806000806163d88661464c565b50935093508484141515616454576040517f08c379a00000000000000000000000000000000000000000000000000000000081526004018080602001828103825260138152602001807f496e76616c696420766f74696e6720747970650000000000000000000000000081525060200191505060405180910390fd5b6002600581111561646157fe5b831415156164d7576040517f08c379a00000000000000000000000000000000000000000000000000000000081526004018080602001828103825260148152602001807f496e76616c696420766f74696e6720737461746500000000000000000000000081525060200191505060405180910390fd5b6164e086614286565b92509250506164ed6112e4565b8210158061650257506164fe6112e4565b8110155b1515616576576040517f08c379a00000000000000000000000000000000000000000000000000000000081526004018080602001828103825260118152602001807f4e6f74207965742066696e616c697a656400000000000000000000000000000081525060200191505060405180910390fd5b505050505050565b60008060608060008061658f613cca565b73ffffffffffffffffffffffffffffffffffffffff166373df4e01886040518263ffffffff167c010000000000000000000000000000000000000000000000000000000002815260040180828152602001915050600060405180830381600087803b1580156165fd57600080fd5b505af1158015616611573d6000803e3d6000fd5b505050506040513d6000823e3d601f19601f8201168201806040525060c081101561663b57600080fd5b810190808051906020019092919080519060200190929190805164010000000081111561666757600080fd5b8281019050602081018481111561667d57600080fd5b815185600182028301116401000000008211171561669a57600080fd5b505092919060200180516401000000008111156166b657600080fd5b828101905060208101848111156166cc57600080fd5b81518560018202830111640100000000821117156166e957600080fd5b5050929190602001805190602001909291908051906020019092919050505095509550955095509550955091939550919395565b616725614445565b73ffffffffffffffffffffffffffffffffffffffff1663282d3fdf83836040518363ffffffff167c0100000000000000000000000000000000000000000000000000000000028152600401808373ffffffffffffffffffffffffffffffffffffffff1673ffffffffffffffffffffffffffffffffffffffff16815260200182815260200192505050600060405180830381600087803b1580156167c757600080fd5b505af11580156167db573d6000803e3d6000fd5b505050505050565b6000808383111515156167f557600080fd5b82840390508091505092915050565b60008061680f614445565b91508173ffffffffffffffffffffffffffffffffffffffff166359355736856040518263ffffffff167c0100000000000000000000000000000000000000000000000000000000028152600401808273ffffffffffffffffffffffffffffffffffffffff1673ffffffffffffffffffffffffffffffffffffffff168152602001915050602060405180830381600087803b1580156168ac57600080fd5b505af11580156168c0573d6000803e3d6000fd5b505050506040513d60208110156168d657600080fd5b81019080805190602001909291905050509050828111156169bf578173ffffffffffffffffffffffffffffffffffffffff16637756c9088561692186856167e390919063ffffffff16565b6040518363ffffffff167c0100000000000000000000000000000000000000000000000000000000028152600401808373ffffffffffffffffffffffffffffffffffffffff1673ffffffffffffffffffffffffffffffffffffffff16815260200182815260200192505050600060405180830381600087803b1580156169a657600080fd5b505af11580156169ba573d6000803e3d6000fd5b505050505b8173ffffffffffffffffffffffffffffffffffffffff16637eee288d85856040518363ffffffff167c0100000000000000000000000000000000000000000000000000000000028152600401808373ffffffffffffffffffffffffffffffffffffffff1673ffffffffffffffffffffffffffffffffffffffff16815260200182815260200192505050600060405180830381600087803b158015616a6257600080fd5b505af1158015616a76573d6000803e3d6000fd5b5050505050505050565b828054600181600116156101000203166002900490600052602060002090601f016020900481019282601f10616ac157805160ff1916838001178555616aef565b82800160010185558215616aef579182015b82811115616aee578251825591602001919060010190616ad3565b5b509050616afc9190616b87565b5090565b828054600181600116156101000203166002900490600052602060002090601f016020900481019282601f10616b395780548555616b76565b82800160010185558215616b7657600052602060002091601f016020900482015b82811115616b75578254825591600101919060010190616b5a565b5b509050616b839190616b87565b5090565b616ba991905b80821115616ba5576000816000905550600101616b8d565b5090565b905600a165627a7a72305820260ed9543f398abbfd7bcf8a06bfdc086fec0c23ec38987916608f51e5412f670029",
  "source": "pragma solidity ^0.4.24;\n\nimport \"openzeppelin-solidity/contracts/utils/ReentrancyGuard.sol\";\nimport \"./abstract/BallotEnums.sol\";\nimport \"./abstract/EnvConstants.sol\";\nimport \"./interface/IBallotStorage.sol\";\nimport \"./interface/IEnvStorage.sol\";\nimport \"./interface/IStaking.sol\";\nimport \"./Gov.sol\";\n\n\ncontract GovImp is Gov, ReentrancyGuard, BallotEnums, EnvConstants {\n    using SafeMath for uint256;\n\n    event MemberAdded(address indexed addr);\n    event MemberRemoved(address indexed addr);\n    event MemberChanged(address indexed oldAddr, address indexed newAddr);\n    event EnvChanged(bytes32 envName, uint256 envType, bytes envVal);\n    event MemberUpdated(address indexed addr);\n    \n    function addProposalToAddMember(\n        address member,\n        bytes enode,\n        bytes ip,\n        uint port,\n        uint256 lockAmount,\n        bytes memo\n    )\n        external\n        onlyGovMem\n        returns (uint256 ballotIdx)\n    {\n        require(msg.sender != member, \"Cannot add self\");\n        require(!isMember(member), \"Already member\");\n\n        ballotIdx = ballotLength.add(1);\n        createBallotForMember(\n            ballotIdx, // ballot id\n            uint256(BallotTypes.MemberAdd), // ballot type\n            msg.sender, // creator\n            address(0), // old member address\n            member, // new member address\n            enode, // new enode\n            ip, // new ip\n            port // new port\n        );\n        updateBallotLock(ballotIdx, lockAmount);\n        updateBallotMemo(ballotIdx, memo);\n        ballotLength = ballotIdx;\n    }\n\n    function addProposalToRemoveMember(\n        address member,\n        uint256 lockAmount,\n        bytes memo\n    )\n        external\n        onlyGovMem\n        returns (uint256 ballotIdx)\n    {\n        require(isMember(member), \"Non-member\");\n        require(getMemberLength() > 1, \"Cannot remove a sole member\");\n\n        ballotIdx = ballotLength.add(1);\n        createBallotForMember(\n            ballotIdx, // ballot id\n            uint256(BallotTypes.MemberRemoval), // ballot type\n            msg.sender, // creator\n            member, // old member address\n            address(0), // new member address\n            new bytes(0), // new enode\n            new bytes(0), // new ip\n            0 // new port\n        );\n        updateBallotLock(ballotIdx, lockAmount);\n        updateBallotMemo(ballotIdx, memo);\n        ballotLength = ballotIdx;\n    }\n\n    function addProposalToChangeMember(\n        address target,\n        address nMember,\n        bytes nEnode,\n        bytes nIp,\n        uint nPort,\n        uint256 lockAmount,\n        bytes memo\n    )\n        external\n        onlyGovMem\n        returns (uint256 ballotIdx)\n    {\n        require(isMember(target), \"Non-member\");\n\n        ballotIdx = ballotLength.add(1);\n        createBallotForMember(\n            ballotIdx, // ballot id\n            uint256(BallotTypes.MemberChange), // ballot type\n            msg.sender, // creator\n            target, // old member address\n            nMember, // new member address\n            nEnode, // new enode\n            nIp, // new ip\n            nPort // new port\n        );\n        updateBallotLock(ballotIdx, lockAmount);\n        updateBallotMemo(ballotIdx, memo);\n        ballotLength = ballotIdx;\n    }\n\n    function addProposalToChangeGov(\n        address newGovAddr,\n        bytes memo\n    )\n        external\n        onlyGovMem\n        returns (uint256 ballotIdx)\n    {\n        require(newGovAddr != address(0), \"Implementation cannot be zero\");\n        require(newGovAddr != implementation(), \"Same contract address\");\n\n        ballotIdx = ballotLength.add(1);\n        IBallotStorage(getBallotStorageAddress()).createBallotForAddress(\n            ballotLength.add(1), // ballot id\n            uint256(BallotTypes.GovernanceChange), // ballot type\n            msg.sender, // creator\n            newGovAddr // new governance address\n        );\n        updateBallotMemo(ballotIdx, memo);\n        ballotLength = ballotIdx;\n    }\n\n    function addProposalToChangeEnv(\n        bytes32 envName,\n        uint256 envType,\n        bytes envVal,\n        bytes memo\n    )\n        external\n        onlyGovMem\n        returns (uint256 ballotIdx)\n    {\n        require(uint256(VariableTypes.Int) <= envType && envType <= uint256(VariableTypes.String), \"Invalid type\");\n\n        ballotIdx = ballotLength.add(1);\n        IBallotStorage(getBallotStorageAddress()).createBallotForVariable(\n            ballotIdx, // ballot id\n            uint256(BallotTypes.EnvValChange), // ballot type\n            msg.sender, // creator\n            envName, // env name\n            envType, // env type\n            envVal // env value\n        );\n        updateBallotMemo(ballotIdx, memo);\n        ballotLength = ballotIdx;\n    }\n\n    function vote(uint256 ballotIdx, bool approval) external onlyGovMem nonReentrant {\n        // Check if some ballot is in progress\n        checkUnfinalized(ballotIdx);\n\n        // Check if the ballot can be voted\n        uint256 ballotType = checkVotable(ballotIdx);\n\n        // Vote\n        createVote(ballotIdx, approval);\n\n        // Finalize\n        (, uint256 accept, uint256 reject) = getBallotVotingInfo(ballotIdx);\n        if (accept < getThreshould() && reject < getThreshould()) {\n            return;\n        }\n        finalizeVote(ballotIdx, ballotType, accept > reject);\n    }\n\n    function getMinStaking() public view returns (uint256) {\n        return IEnvStorage(getEnvStorageAddress()).getStakingMin();\n    }\n\n    function getMaxStaking() public view returns (uint256) {\n        return IEnvStorage(getEnvStorageAddress()).getStakingMax();\n    }\n\n    function getMinVotingDuration() public view returns (uint256) {\n        return IEnvStorage(getEnvStorageAddress()).getBallotDurationMin();\n    }\n    \n    function getMaxVotingDuration() public view returns (uint256) {\n        return IEnvStorage(getEnvStorageAddress()).getBallotDurationMax();\n    }\n\n    function getThreshould() public pure returns (uint256) { return 5100; } // 51% from 5100 of 10000\n\n    function checkUnfinalized(uint256 ballotIdx) private {\n        if (ballotInVoting != 0) {\n            (, uint256 state, ) = getBallotState(ballotInVoting);\n            (, uint256 endTime, ) = getBallotPeriod(ballotInVoting);\n            if (state == uint256(BallotStates.InProgress)) {\n                if (endTime < block.timestamp) {\n                    finalizeBallot(ballotIdx, uint256(BallotStates.Rejected));\n                    ballotInVoting = 0;\n                    if (ballotIdx == ballotInVoting) {\n                        return;\n                    }\n                } else if (ballotIdx != ballotInVoting) {\n                    revert(\"Now in voting with different ballot\");\n                }\n            }\n        }\n    }\n\n    function checkVotable(uint256 ballotIdx) private returns (uint256) {\n        (uint256 ballotType, uint256 state, ) = getBallotState(ballotIdx);\n        if (state == uint256(BallotStates.Ready)) {\n            (, , uint256 duration) = getBallotPeriod(ballotIdx);\n            if (duration < getMinVotingDuration()) {\n                startBallot(ballotIdx, block.timestamp, block.timestamp + getMinVotingDuration());\n            } else if (getMaxVotingDuration() < duration) {\n                startBallot(ballotIdx, block.timestamp, block.timestamp + getMaxVotingDuration());\n            } else {\n                startBallot(ballotIdx, block.timestamp, block.timestamp + duration);\n            }\n            ballotInVoting = ballotIdx;\n        } else if (state == uint256(BallotStates.InProgress)) {\n            // Nothing to do\n        } else {\n            revert(\"Expired\");\n        }\n        return ballotType;\n    }\n\n    function createVote(uint256 ballotIdx, bool approval) private {\n        uint256 voteIdx = voteLength.add(1);\n        uint256 weight = IStaking(getStakingAddress()).calcVotingWeightWithScaleFactor(msg.sender, 1e4);\n        if (approval) {\n            IBallotStorage(getBallotStorageAddress()).createVote(\n                voteIdx,\n                ballotIdx,\n                msg.sender,\n                uint256(DecisionTypes.Accept),\n                weight\n            );\n        } else {\n            IBallotStorage(getBallotStorageAddress()).createVote(\n                voteIdx,\n                ballotIdx,\n                msg.sender,\n                uint256(DecisionTypes.Reject),\n                weight\n            );\n        }\n        voteLength = voteIdx;\n    }\n\n    function finalizeVote(uint256 ballotIdx, uint256 ballotType, bool isAccepted) private {\n        uint256 ballotState = uint256(BallotStates.Rejected);\n        if (isAccepted) {\n            if (ballotType == uint256(BallotTypes.MemberAdd)) {\n                addMember(ballotIdx);\n            } else if (ballotType == uint256(BallotTypes.MemberRemoval)) {\n                removeMember(ballotIdx);\n            } else if (ballotType == uint256(BallotTypes.MemberChange)) {\n                changeMember(ballotIdx);\n            } else if (ballotType == uint256(BallotTypes.GovernanceChange)) {\n                changeGov(ballotIdx);\n            } else if (ballotType == uint256(BallotTypes.EnvValChange)) {\n                applyEnv(ballotIdx);\n            }\n            ballotState = uint256(BallotStates.Accepted);\n        }\n        finalizeBallot(ballotIdx, ballotState);\n        ballotInVoting = 0;\n    }\n\n    function fromValidBallot(uint256 ballotIdx, uint256 targetType) private view {\n        (uint256 ballotType, uint256 state, ) = getBallotState(ballotIdx);\n        require(ballotType == targetType, \"Invalid voting type\");\n        require(state == uint(BallotStates.InProgress), \"Invalid voting state\");\n        (, uint256 accept, uint256 reject) = getBallotVotingInfo(ballotIdx);\n        require(accept >= getThreshould() || reject >= getThreshould(), \"Not yet finalized\");\n    }\n\n    function addMember(uint256 ballotIdx) private {\n        fromValidBallot(ballotIdx, uint256(BallotTypes.MemberAdd));\n\n        (\n            , address addr,\n            bytes memory enode,\n            bytes memory ip,\n            uint port,\n            uint256 lockAmount\n        ) = getBallotMember(ballotIdx);\n        if (isMember(addr)) {\n            return; // Already member. it is abnormal case\n        }\n\n        // Lock\n        require(getMinStaking() <= lockAmount && lockAmount <= getMaxStaking(), \"Invalid lock amount\");\n        lock(addr, lockAmount);\n\n        // Add voting and reward member\n        uint256 nMemIdx = memberLength.add(1);\n        members[nMemIdx] = addr;\n        memberIdx[addr] = nMemIdx;\n        rewards[nMemIdx] = addr;\n        rewardIdx[addr] = nMemIdx;\n\n        // Add node\n        uint256 nNodeIdx = nodeLength.add(1);\n        Node storage node = nodes[nNodeIdx];\n        node.enode = enode;\n        node.ip = ip;\n        node.port = port;\n        nodeToMember[nNodeIdx] = addr;\n        nodeIdxFromMember[addr] = nNodeIdx;\n\n        memberLength = nMemIdx;\n        nodeLength = nNodeIdx;\n        modifiedBlock = block.number;\n        emit MemberAdded(addr);\n    }\n\n    function removeMember(uint256 ballotIdx) private {\n        fromValidBallot(ballotIdx, uint256(BallotTypes.MemberRemoval));\n\n        (address addr, , , , , uint256 unlockAmount) = getBallotMember(ballotIdx);\n        if (!isMember(addr)) {\n            return; // Non-member. it is abnormal case\n        }\n\n        // Remove voting and reward member\n        if (memberIdx[addr] != memberLength) {\n            (members[memberIdx[addr]], members[memberLength]) = (members[memberLength], members[memberIdx[addr]]);\n            (rewards[memberIdx[addr]], rewards[memberLength]) = (rewards[memberLength], rewards[memberIdx[addr]]);\n        }\n        members[memberLength] = address(0);\n        memberIdx[addr] = 0;\n        rewards[memberLength] = address(0);\n        rewardIdx[rewards[memberLength]] = 0;\n        memberLength = memberLength.sub(1);\n\n        // Remove node\n        if (nodeIdxFromMember[addr] != nodeLength) {\n            Node storage node = nodes[nodeIdxFromMember[addr]];\n            node.enode = nodes[nodeLength].enode;\n            node.ip = nodes[nodeLength].ip;\n            node.port = nodes[nodeLength].port;\n        }\n        nodeToMember[nodeLength] = address(0);\n        nodeIdxFromMember[addr] = 0;\n        nodeLength = nodeLength.sub(1);\n        modifiedBlock = block.number;\n        // Unlock and transfer remained to governance\n        transferLockedAndUnlock(addr, unlockAmount);\n\n        emit MemberRemoved(addr);\n    }\n\n    function changeMember(uint256 ballotIdx) private {\n        fromValidBallot(ballotIdx, uint256(BallotTypes.MemberChange));\n        \n        (\n            address addr,\n            address nAddr,\n            bytes memory enode,\n            bytes memory ip,\n            uint port,\n            uint256 lockAmount\n        ) = getBallotMember(ballotIdx);\n        if (!isMember(addr)) {\n            return; // Non-member. it is abnormal case\n        }\n\n        if (addr != nAddr) {\n            // Lock\n            require(getMinStaking() <= lockAmount && lockAmount <= getMaxStaking(), \"Invalid lock amount\");\n            lock(nAddr, lockAmount);\n\n            // Change member\n            members[memberIdx[addr]] = nAddr;\n            memberIdx[nAddr] = memberIdx[addr];\n            rewards[memberIdx[addr]] = nAddr;\n            rewardIdx[nAddr] = rewardIdx[addr];\n            memberIdx[addr] = 0;\n        }\n\n        // Change node\n        uint256 nodeIdx = nodeIdxFromMember[addr];\n        Node storage node = nodes[nodeIdx];\n        node.enode = enode;\n        node.ip = ip;\n        node.port = port;\n        modifiedBlock = block.number;\n        if (addr != nAddr) {\n            nodeToMember[nodeIdx] = nAddr;\n            nodeIdxFromMember[nAddr] = nodeIdx;\n            nodeIdxFromMember[addr] = 0;\n\n            // Unlock and transfer remained to governance\n            transferLockedAndUnlock(addr, lockAmount);\n\n            emit MemberChanged(addr, nAddr);\n        }else{\n            emit MemberUpdated(addr);\n        }\n    }\n\n    function changeGov(uint256 ballotIdx) private {\n        fromValidBallot(ballotIdx, uint256(BallotTypes.GovernanceChange));\n\n        address newImp = IBallotStorage(getBallotStorageAddress()).getBallotAddress(ballotIdx);\n        if (newImp != address(0)) {\n            setImplementation(newImp);\n        }\n    }\n\n    function applyEnv(uint256 ballotIdx) private {\n        fromValidBallot(ballotIdx, uint256(BallotTypes.EnvValChange));\n\n        (\n            bytes32 envKey,\n            uint256 envType,\n            bytes memory envVal\n        ) = IBallotStorage(getBallotStorageAddress()).getBallotVariable(ballotIdx);\n\n        IEnvStorage envStorage = IEnvStorage(getEnvStorageAddress());\n        if (envKey == BLOCK_PER_NAME && envType == BLOCK_PER_TYPE) {\n            envStorage.setBlockPerByBytes(envVal);\n        } else if (envKey == BALLOT_DURATION_MIN_NAME && envType == BALLOT_DURATION_MIN_TYPE) {\n            envStorage.setBallotDurationMinByBytes(envVal);\n        } else if (envKey == BALLOT_DURATION_MAX_NAME && envType == BALLOT_DURATION_MAX_TYPE) {\n            envStorage.setBallotDurationMaxByBytes(envVal);\n        } else if (envKey == STAKING_MIN_NAME && envType == STAKING_MIN_TYPE) {\n            envStorage.setStakingMinByBytes(envVal);\n        } else if (envKey == STAKING_MAX_NAME && envType == STAKING_MAX_TYPE) {\n            envStorage.setStakingMaxByBytes(envVal);\n        }\n        modifiedBlock = block.number;\n        emit EnvChanged(envKey, envType, envVal);\n    }\n\n    //------------------ Code reduction for creation gas\n    function createBallotForMember(\n        uint256 id,\n        uint256 bType,\n        address creator,\n        address oAddr,\n        address nAddr,\n        bytes enode,\n        bytes ip,\n        uint port\n    )\n        private\n    {\n        IBallotStorage(getBallotStorageAddress()).createBallotForMember(\n            id, // ballot id\n            bType, // ballot type\n            creator, // creator\n            oAddr, // old member address\n            nAddr, // new member address\n            enode, // new enode\n            ip, // new ip\n            port // new port\n        );\n    }\n\n    function updateBallotLock(uint256 id, uint256 amount) private {\n        IBallotStorage(getBallotStorageAddress()).updateBallotMemberLockAmount(id, amount);\n    }\n\n    function updateBallotMemo(uint256 id, bytes memo) private {\n        IBallotStorage(getBallotStorageAddress()).updateBallotMemo(id, memo);\n    }\n\n    function startBallot(uint256 id, uint256 s, uint256 e) private {\n        IBallotStorage(getBallotStorageAddress()).startBallot(id, s, e);\n    }\n\n    function finalizeBallot(uint256 id, uint256 state) private {\n        IBallotStorage(getBallotStorageAddress()).finalizeBallot(id, state);\n    }\n\n    function getBallotState(uint256 id) private view returns (uint256, uint256, bool) {\n        return IBallotStorage(getBallotStorageAddress()).getBallotState(id);\n    }\n\n    function getBallotPeriod(uint256 id) private view returns (uint256, uint256, uint256) {\n        return IBallotStorage(getBallotStorageAddress()).getBallotPeriod(id);\n    }\n\n    function getBallotVotingInfo(uint256 id) private view returns (uint256, uint256, uint256) {\n        return IBallotStorage(getBallotStorageAddress()).getBallotVotingInfo(id);\n    }\n\n    function getBallotMember(uint256 id) private view returns (address, address, bytes, bytes, uint256, uint256) {\n        return IBallotStorage(getBallotStorageAddress()).getBallotMember(id);\n    }\n\n    function lock(address addr, uint256 amount) private {\n        IStaking(getStakingAddress()).lock(addr, amount);\n    }\n\n    function unlock(address addr, uint256 amount) private {\n        IStaking(getStakingAddress()).unlock(addr, amount);\n    }\n\n    function transferLockedAndUnlock(address addr, uint256 unlockAmount) private {\n        IStaking staking = IStaking(getStakingAddress());\n        uint256 locked = staking.lockedBalanceOf(addr);\n        if (locked > unlockAmount) {\n            staking.transferLocked(addr, locked.sub(unlockAmount));\n        }\n        staking.unlock(addr, unlockAmount);\n    }\n    //------------------ Code reduction end\n}",
  "sourcePath": "/Users/ywshin/Documents/WS/truffle/governance-contract-blueisle/contracts/GovImp.sol",
  "compiler": {
    "name": "solc",
    "version": "0.4.24+commit.e67f0147.Emscripten.clang"
  },
  "schemaVersion": "2.0.1",
  "updatedAt": "2019-03-08T03:37:48.296Z"
}