{
  "contractName": "GovImp",
  "abi": [
    {
      "constant": true,
      "inputs": [],
      "name": "BALLOT_DURATION_MAX_NAME",
      "outputs": [
        {
          "name": "",
          "type": "bytes32"
        }
      ],
      "payable": false,
      "stateMutability": "view",
      "type": "function"
    },
    {
      "constant": true,
      "inputs": [],
      "name": "magic",
      "outputs": [
        {
          "name": "",
          "type": "uint256"
        }
      ],
      "payable": false,
      "stateMutability": "view",
      "type": "function"
    },
    {
      "constant": true,
      "inputs": [],
      "name": "STAKING_MIN_TYPE",
      "outputs": [
        {
          "name": "",
          "type": "uint256"
        }
      ],
      "payable": false,
      "stateMutability": "view",
      "type": "function"
    },
    {
      "constant": true,
      "inputs": [],
      "name": "GAS_PRICE_NAME",
      "outputs": [
        {
          "name": "",
          "type": "bytes32"
        }
      ],
      "payable": false,
      "stateMutability": "view",
      "type": "function"
    },
    {
      "constant": true,
      "inputs": [
        {
          "name": "idx",
          "type": "uint256"
        }
      ],
      "name": "getMemberFromNodeIdx",
      "outputs": [
        {
          "name": "",
          "type": "address"
        }
      ],
      "payable": false,
      "stateMutability": "view",
      "type": "function"
    },
    {
      "constant": true,
      "inputs": [
        {
          "name": "idx",
          "type": "uint256"
        }
      ],
      "name": "getReward",
      "outputs": [
        {
          "name": "",
          "type": "address"
        }
      ],
      "payable": false,
      "stateMutability": "view",
      "type": "function"
    },
    {
      "constant": true,
      "inputs": [],
      "name": "STAKING_NAME",
      "outputs": [
        {
          "name": "",
          "type": "bytes32"
        }
      ],
      "payable": false,
      "stateMutability": "view",
      "type": "function"
    },
    {
      "constant": false,
      "inputs": [
        {
          "name": "registry",
          "type": "address"
        },
        {
          "name": "implementation",
          "type": "address"
        },
        {
          "name": "data",
          "type": "bytes"
        }
      ],
      "name": "initOnce",
      "outputs": [],
      "payable": false,
      "stateMutability": "nonpayable",
      "type": "function"
    },
    {
      "constant": true,
      "inputs": [],
      "name": "GAS_PRICE_TYPE",
      "outputs": [
        {
          "name": "",
          "type": "uint256"
        }
      ],
      "payable": false,
      "stateMutability": "view",
      "type": "function"
    },
    {
      "constant": true,
      "inputs": [],
      "name": "REWARD_POOL_NAME",
      "outputs": [
        {
          "name": "",
          "type": "bytes32"
        }
      ],
      "payable": false,
      "stateMutability": "view",
      "type": "function"
    },
    {
      "constant": true,
      "inputs": [
        {
          "name": "idx",
          "type": "uint256"
        }
      ],
      "name": "getNode",
      "outputs": [
        {
          "name": "name",
          "type": "bytes"
        },
        {
          "name": "enode",
          "type": "bytes"
        },
        {
          "name": "ip",
          "type": "bytes"
        },
        {
          "name": "port",
          "type": "uint256"
        }
      ],
      "payable": false,
      "stateMutability": "view",
      "type": "function"
    },
    {
      "constant": true,
      "inputs": [],
      "name": "BLOCK_PER_NAME",
      "outputs": [
        {
          "name": "",
          "type": "bytes32"
        }
      ],
      "payable": false,
      "stateMutability": "view",
      "type": "function"
    },
    {
      "constant": true,
      "inputs": [],
      "name": "implementation",
      "outputs": [
        {
          "name": "impl",
          "type": "address"
        }
      ],
      "payable": false,
      "stateMutability": "view",
      "type": "function"
    },
    {
      "constant": true,
      "inputs": [],
      "name": "BALLOT_DURATION_MAX_TYPE",
      "outputs": [
        {
          "name": "",
          "type": "uint256"
        }
      ],
      "payable": false,
      "stateMutability": "view",
      "type": "function"
    },
    {
      "constant": true,
      "inputs": [],
      "name": "GOV_NAME",
      "outputs": [
        {
          "name": "",
          "type": "bytes32"
        }
      ],
      "payable": false,
      "stateMutability": "view",
      "type": "function"
    },
    {
      "constant": true,
      "inputs": [],
      "name": "BALLOT_DURATION_MIN_NAME",
      "outputs": [
        {
          "name": "",
          "type": "bytes32"
        }
      ],
      "payable": false,
      "stateMutability": "view",
      "type": "function"
    },
    {
      "constant": true,
      "inputs": [],
      "name": "STAKING_MIN_NAME",
      "outputs": [
        {
          "name": "",
          "type": "bytes32"
        }
      ],
      "payable": false,
      "stateMutability": "view",
      "type": "function"
    },
    {
      "constant": false,
      "inputs": [],
      "name": "renounceOwnership",
      "outputs": [],
      "payable": false,
      "stateMutability": "nonpayable",
      "type": "function"
    },
    {
      "constant": true,
      "inputs": [],
      "name": "getNodeLength",
      "outputs": [
        {
          "name": "",
          "type": "uint256"
        }
      ],
      "payable": false,
      "stateMutability": "view",
      "type": "function"
    },
    {
      "constant": true,
      "inputs": [],
      "name": "reg",
      "outputs": [
        {
          "name": "",
          "type": "address"
        }
      ],
      "payable": false,
      "stateMutability": "view",
      "type": "function"
    },
    {
      "constant": true,
      "inputs": [],
      "name": "ENV_STORAGE_NAME",
      "outputs": [
        {
          "name": "",
          "type": "bytes32"
        }
      ],
      "payable": false,
      "stateMutability": "view",
      "type": "function"
    },
    {
      "constant": true,
      "inputs": [],
      "name": "modifiedBlock",
      "outputs": [
        {
          "name": "",
          "type": "uint256"
        }
      ],
      "payable": false,
      "stateMutability": "view",
      "type": "function"
    },
    {
      "constant": true,
      "inputs": [],
      "name": "BLOCK_PER_TYPE",
      "outputs": [
        {
          "name": "",
          "type": "uint256"
        }
      ],
      "payable": false,
      "stateMutability": "view",
      "type": "function"
    },
    {
      "constant": false,
      "inputs": [
        {
          "name": "registry",
          "type": "address"
        },
        {
          "name": "implementation",
          "type": "address"
        },
        {
          "name": "lockAmount",
          "type": "uint256"
        },
        {
          "name": "name",
          "type": "bytes"
        },
        {
          "name": "enode",
          "type": "bytes"
        },
        {
          "name": "ip",
          "type": "bytes"
        },
        {
          "name": "port",
          "type": "uint256"
        }
      ],
      "name": "init",
      "outputs": [],
      "payable": false,
      "stateMutability": "nonpayable",
      "type": "function"
    },
    {
      "constant": true,
      "inputs": [],
      "name": "owner",
      "outputs": [
        {
          "name": "",
          "type": "address"
        }
      ],
      "payable": false,
      "stateMutability": "view",
      "type": "function"
    },
    {
      "constant": true,
      "inputs": [],
      "name": "isOwner",
      "outputs": [
        {
          "name": "",
          "type": "bool"
        }
      ],
      "payable": false,
      "stateMutability": "view",
      "type": "function"
    },
    {
      "constant": true,
      "inputs": [],
      "name": "BALLOT_STORAGE_NAME",
      "outputs": [
        {
          "name": "",
          "type": "bytes32"
        }
      ],
      "payable": false,
      "stateMutability": "view",
      "type": "function"
    },
    {
      "constant": true,
      "inputs": [],
      "name": "STAKING_MAX_TYPE",
      "outputs": [
        {
          "name": "",
          "type": "uint256"
        }
      ],
      "payable": false,
      "stateMutability": "view",
      "type": "function"
    },
    {
      "constant": true,
      "inputs": [
        {
          "name": "addr",
          "type": "address"
        }
      ],
      "name": "isMember",
      "outputs": [
        {
          "name": "",
          "type": "bool"
        }
      ],
      "payable": false,
      "stateMutability": "view",
      "type": "function"
    },
    {
      "constant": false,
      "inputs": [
        {
          "name": "_addr",
          "type": "address"
        }
      ],
      "name": "setRegistry",
      "outputs": [],
      "payable": false,
      "stateMutability": "nonpayable",
      "type": "function"
    },
    {
      "constant": true,
      "inputs": [
        {
          "name": "idx",
          "type": "uint256"
        }
      ],
      "name": "getMember",
      "outputs": [
        {
          "name": "",
          "type": "address"
        }
      ],
      "payable": false,
      "stateMutability": "view",
      "type": "function"
    },
    {
      "constant": true,
      "inputs": [],
      "name": "BALLOT_DURATION_MIN_TYPE",
      "outputs": [
        {
          "name": "",
          "type": "uint256"
        }
      ],
      "payable": false,
      "stateMutability": "view",
      "type": "function"
    },
    {
      "constant": true,
      "inputs": [],
      "name": "STAKING_MAX_NAME",
      "outputs": [
        {
          "name": "",
          "type": "bytes32"
        }
      ],
      "payable": false,
      "stateMutability": "view",
      "type": "function"
    },
    {
      "constant": true,
      "inputs": [
        {
          "name": "addr",
          "type": "address"
        }
      ],
      "name": "getNodeIdxFromMember",
      "outputs": [
        {
          "name": "",
          "type": "uint256"
        }
      ],
      "payable": false,
      "stateMutability": "view",
      "type": "function"
    },
    {
      "constant": true,
      "inputs": [],
      "name": "ballotLength",
      "outputs": [
        {
          "name": "",
          "type": "uint256"
        }
      ],
      "payable": false,
      "stateMutability": "view",
      "type": "function"
    },
    {
      "constant": true,
      "inputs": [],
      "name": "getMemberLength",
      "outputs": [
        {
          "name": "",
          "type": "uint256"
        }
      ],
      "payable": false,
      "stateMutability": "view",
      "type": "function"
    },
    {
      "constant": true,
      "inputs": [],
      "name": "getBallotInVoting",
      "outputs": [
        {
          "name": "",
          "type": "uint256"
        }
      ],
      "payable": false,
      "stateMutability": "view",
      "type": "function"
    },
    {
      "constant": true,
      "inputs": [],
      "name": "voteLength",
      "outputs": [
        {
          "name": "",
          "type": "uint256"
        }
      ],
      "payable": false,
      "stateMutability": "view",
      "type": "function"
    },
    {
      "constant": false,
      "inputs": [
        {
          "name": "newOwner",
          "type": "address"
        }
      ],
      "name": "transferOwnership",
      "outputs": [],
      "payable": false,
      "stateMutability": "nonpayable",
      "type": "function"
    },
    {
      "payable": true,
      "stateMutability": "payable",
      "type": "fallback"
    },
    {
      "anonymous": false,
      "inputs": [
        {
          "indexed": true,
          "name": "addr",
          "type": "address"
        }
      ],
      "name": "MemberAdded",
      "type": "event"
    },
    {
      "anonymous": false,
      "inputs": [
        {
          "indexed": true,
          "name": "addr",
          "type": "address"
        }
      ],
      "name": "MemberRemoved",
      "type": "event"
    },
    {
      "anonymous": false,
      "inputs": [
        {
          "indexed": true,
          "name": "oldAddr",
          "type": "address"
        },
        {
          "indexed": true,
          "name": "newAddr",
          "type": "address"
        }
      ],
      "name": "MemberChanged",
      "type": "event"
    },
    {
      "anonymous": false,
      "inputs": [
        {
          "indexed": false,
          "name": "envName",
          "type": "bytes32"
        },
        {
          "indexed": false,
          "name": "envType",
          "type": "uint256"
        },
        {
          "indexed": false,
          "name": "envVal",
          "type": "bytes"
        }
      ],
      "name": "EnvChanged",
      "type": "event"
    },
    {
      "anonymous": false,
      "inputs": [
        {
          "indexed": true,
          "name": "addr",
          "type": "address"
        }
      ],
      "name": "MemberUpdated",
      "type": "event"
    },
    {
      "anonymous": false,
      "inputs": [
        {
          "indexed": true,
          "name": "previousOwner",
          "type": "address"
        },
        {
          "indexed": true,
          "name": "newOwner",
          "type": "address"
        }
      ],
      "name": "OwnershipTransferred",
      "type": "event"
    },
    {
      "anonymous": false,
      "inputs": [
        {
          "indexed": true,
          "name": "implementation",
          "type": "address"
        }
      ],
      "name": "Upgraded",
      "type": "event"
    },
    {
      "constant": false,
      "inputs": [
        {
          "name": "member",
          "type": "address"
        },
        {
          "name": "name",
          "type": "bytes"
        },
        {
          "name": "enode",
          "type": "bytes"
        },
        {
          "name": "ip",
          "type": "bytes"
        },
        {
          "name": "port_lockAmount",
          "type": "uint256[2]"
        },
        {
          "name": "memo",
          "type": "bytes"
        }
      ],
      "name": "addProposalToAddMember",
      "outputs": [
        {
          "name": "ballotIdx",
          "type": "uint256"
        }
      ],
      "payable": false,
      "stateMutability": "nonpayable",
      "type": "function"
    },
    {
      "constant": false,
      "inputs": [
        {
          "name": "member",
          "type": "address"
        },
        {
          "name": "lockAmount",
          "type": "uint256"
        },
        {
          "name": "memo",
          "type": "bytes"
        }
      ],
      "name": "addProposalToRemoveMember",
      "outputs": [
        {
          "name": "ballotIdx",
          "type": "uint256"
        }
      ],
      "payable": false,
      "stateMutability": "nonpayable",
      "type": "function"
    },
    {
      "constant": false,
      "inputs": [
        {
          "name": "target_nMember",
          "type": "address[2]"
        },
        {
          "name": "nName",
          "type": "bytes"
        },
        {
          "name": "nEnode",
          "type": "bytes"
        },
        {
          "name": "nIp",
          "type": "bytes"
        },
        {
          "name": "port_lockAmount",
          "type": "uint256[2]"
        },
        {
          "name": "memo",
          "type": "bytes"
        }
      ],
      "name": "addProposalToChangeMember",
      "outputs": [
        {
          "name": "ballotIdx",
          "type": "uint256"
        }
      ],
      "payable": false,
      "stateMutability": "nonpayable",
      "type": "function"
    },
    {
      "constant": false,
      "inputs": [
        {
          "name": "newGovAddr",
          "type": "address"
        },
        {
          "name": "memo",
          "type": "bytes"
        }
      ],
      "name": "addProposalToChangeGov",
      "outputs": [
        {
          "name": "ballotIdx",
          "type": "uint256"
        }
      ],
      "payable": false,
      "stateMutability": "nonpayable",
      "type": "function"
    },
    {
      "constant": false,
      "inputs": [
        {
          "name": "envName",
          "type": "bytes32"
        },
        {
          "name": "envType",
          "type": "uint256"
        },
        {
          "name": "envVal",
          "type": "bytes"
        },
        {
          "name": "memo",
          "type": "bytes"
        }
      ],
      "name": "addProposalToChangeEnv",
      "outputs": [
        {
          "name": "ballotIdx",
          "type": "uint256"
        }
      ],
      "payable": false,
      "stateMutability": "nonpayable",
      "type": "function"
    },
    {
      "constant": false,
      "inputs": [
        {
          "name": "ballotIdx",
          "type": "uint256"
        },
        {
          "name": "approval",
          "type": "bool"
        }
      ],
      "name": "vote",
      "outputs": [],
      "payable": false,
      "stateMutability": "nonpayable",
      "type": "function"
    },
    {
      "constant": true,
      "inputs": [],
      "name": "getMinStaking",
      "outputs": [
        {
          "name": "",
          "type": "uint256"
        }
      ],
      "payable": false,
      "stateMutability": "view",
      "type": "function"
    },
    {
      "constant": true,
      "inputs": [],
      "name": "getMaxStaking",
      "outputs": [
        {
          "name": "",
          "type": "uint256"
        }
      ],
      "payable": false,
      "stateMutability": "view",
      "type": "function"
    },
    {
      "constant": true,
      "inputs": [],
      "name": "getMinVotingDuration",
      "outputs": [
        {
          "name": "",
          "type": "uint256"
        }
      ],
      "payable": false,
      "stateMutability": "view",
      "type": "function"
    },
    {
      "constant": true,
      "inputs": [],
      "name": "getMaxVotingDuration",
      "outputs": [
        {
          "name": "",
          "type": "uint256"
        }
      ],
      "payable": false,
      "stateMutability": "view",
      "type": "function"
    },
    {
      "constant": true,
      "inputs": [],
      "name": "getThreshould",
      "outputs": [
        {
          "name": "",
          "type": "uint256"
        }
      ],
      "payable": false,
      "stateMutability": "pure",
      "type": "function"
    }
  ],
  "bytecode": "0x6080604052724d6574616469756d20476f7665726e616e6365600255336000806101000a81548173ffffffffffffffffffffffffffffffffffffffff021916908373ffffffffffffffffffffffffffffffffffffffff1602179055506000809054906101000a900473ffffffffffffffffffffffffffffffffffffffff1673ffffffffffffffffffffffffffffffffffffffff16600073ffffffffffffffffffffffffffffffffffffffff167f8be0079c531659141344cd1fd0a4f28419497f9722a3daafe3b4186f6b6457e060405160405180910390a36000600460006101000a81548160ff02191690831515021790555060006007819055506000600d819055506000600e819055506000600f8190555060006010819055506001601181905550616ffa806101316000396000f30060806040526004361061025b576000357c0100000000000000000000000000000000000000000000000000000000900463ffffffff16806215a73b146102ca5780630d854646146102fd5780630ea0a8c6146103285780630f36c0a81461035357806315bf6b4d1461038657806319ce5417146103f35780631aee05e9146104b45780631c150171146104df5780631c4b774b1461050a5780631e0cba0d146105775780631fb85d91146105aa5780632118b782146106535780632f40992e1461067e5780634e2218dd146106b15780634f0f4aa91461075c5780635855e1e5146108e15780635aaa4040146109145780635c60da1b1461093f5780635f53e21d146109965780636c78d2cf146109c15780636d583ca7146109f45780636fde207a14610a27578063715018a614610a5a57806372016f7514610a71578063738fdd1a14610a9c5780637bf4653014610af35780637d10dd1b14610b26578063824cf93814610b515780638c38bdf514610b7c5780638da5cb5b14610cc55780638f32d59b14610d1c57806398a66b3d14610d4b5780639986e4b914610dc45780639f3ab54a14610df7578063a230c52414610e22578063a91ee0dc14610e7d578063ab3545e514610ec0578063aed31e7b14610f2d578063af6af2ff14610f58578063b454321414610f83578063c00ace6c14610ff2578063c9d27afe14611025578063ce04b9d41461105e578063ce6a54ff14611089578063d6f9cfce146110e0578063d965ea001461110b578063de09b37714611136578063e9523fb514611161578063f2fde38b1461118c578063f69041c3146111cf575b600061026561124e565b9050600073ffffffffffffffffffffffffffffffffffffffff168173ffffffffffffffffffffffffffffffffffffffff16141515156102a357600080fd5b60405136600082376000803683855af43d806000843e81600081146102c6578184f35b8184fd5b3480156102d657600080fd5b506102df6112b7565b60405180826000191660001916815260200191505060405180910390f35b34801561030957600080fd5b506103126112f0565b6040518082815260200191505060405180910390f35b34801561033457600080fd5b5061033d6112f6565b6040518082815260200191505060405180910390f35b34801561035f57600080fd5b50610368611306565b60405180826000191660001916815260200191505060405180910390f35b34801561039257600080fd5b506103b16004803603810190808035906020019092919050505061133f565b604051808273ffffffffffffffffffffffffffffffffffffffff1673ffffffffffffffffffffffffffffffffffffffff16815260200191505060405180910390f35b3480156103ff57600080fd5b5061049e600480360381019080803573ffffffffffffffffffffffffffffffffffffffff1690602001909291908035906020019082018035906020019190919293919293908035906020019082018035906020019190919293919293908035906020019082018035906020019190919293919293908060400190919291929080359060200190820180359060200191909192939192939050505061137c565b6040518082815260200191505060405180910390f35b3480156104c057600080fd5b506104c961173e565b6040518082815260200191505060405180910390f35b3480156104eb57600080fd5b506104f4611748565b6040518082815260200191505060405180910390f35b34801561051657600080fd5b50610535600480360381019080803590602001909291905050506117f5565b604051808273ffffffffffffffffffffffffffffffffffffffff1673ffffffffffffffffffffffffffffffffffffffff16815260200191505060405180910390f35b34801561058357600080fd5b5061058c611832565b60405180826000191660001916815260200191505060405180910390f35b3480156105b657600080fd5b50610651600480360381019080803573ffffffffffffffffffffffffffffffffffffffff169060200190929190803573ffffffffffffffffffffffffffffffffffffffff169060200190929190803590602001908201803590602001908080601f0160208091040260200160405190810160405280939291908181526020018383808284378201915050505050509192919290505050611856565b005b34801561065f57600080fd5b50610668611c15565b6040518082815260200191505060405180910390f35b34801561068a57600080fd5b50610693611c25565b60405180826000191660001916815260200191505060405180910390f35b3480156106bd57600080fd5b506107466004803603810190808060400190919291929080359060200190820180359060200191909192939192939080359060200190820180359060200191909192939192939080359060200190820180359060200191909192939192939080604001909192919290803590602001908201803590602001919091929391929390505050611c49565b6040518082815260200191505060405180910390f35b34801561076857600080fd5b5061078760048036038101908080359060200190929190505050611fe0565b60405180806020018060200180602001858152602001848103845288818151815260200191508051906020019080838360005b838110156107d55780820151818401526020810190506107ba565b50505050905090810190601f1680156108025780820380516001836020036101000a031916815260200191505b50848103835287818151815260200191508051906020019080838360005b8381101561083b578082015181840152602081019050610820565b50505050905090810190601f1680156108685780820380516001836020036101000a031916815260200191505b50848103825286818151815260200191508051906020019080838360005b838110156108a1578082015181840152602081019050610886565b50505050905090810190601f1680156108ce5780820380516001836020036101000a031916815260200191505b5097505050505050505060405180910390f35b3480156108ed57600080fd5b506108f6612223565b60405180826000191660001916815260200191505060405180910390f35b34801561092057600080fd5b5061092961225c565b6040518082815260200191505060405180910390f35b34801561094b57600080fd5b5061095461124e565b604051808273ffffffffffffffffffffffffffffffffffffffff1673ffffffffffffffffffffffffffffffffffffffff16815260200191505060405180910390f35b3480156109a257600080fd5b506109ab612309565b6040518082815260200191505060405180910390f35b3480156109cd57600080fd5b506109d6612319565b60405180826000191660001916815260200191505060405180910390f35b348015610a0057600080fd5b50610a0961233d565b60405180826000191660001916815260200191505060405180910390f35b348015610a3357600080fd5b50610a3c612376565b60405180826000191660001916815260200191505060405180910390f35b348015610a6657600080fd5b50610a6f6123af565b005b348015610a7d57600080fd5b50610a86612481565b6040518082815260200191505060405180910390f35b348015610aa857600080fd5b50610ab161248b565b604051808273ffffffffffffffffffffffffffffffffffffffff1673ffffffffffffffffffffffffffffffffffffffff16815260200191505060405180910390f35b348015610aff57600080fd5b50610b086124b1565b60405180826000191660001916815260200191505060405180910390f35b348015610b3257600080fd5b50610b3b6124d5565b6040518082815260200191505060405180910390f35b348015610b5d57600080fd5b50610b666124db565b6040518082815260200191505060405180910390f35b348015610b8857600080fd5b50610cc3600480360381019080803573ffffffffffffffffffffffffffffffffffffffff169060200190929190803573ffffffffffffffffffffffffffffffffffffffff16906020019092919080359060200190929190803590602001908201803590602001908080601f0160208091040260200160405190810160405280939291908181526020018383808284378201915050505050509192919290803590602001908201803590602001908080601f0160208091040260200160405190810160405280939291908181526020018383808284378201915050505050509192919290803590602001908201803590602001908080601f0160208091040260200160405190810160405280939291908181526020018383808284378201915050505050509192919290803590602001909291905050506124eb565b005b348015610cd157600080fd5b50610cda612a26565b604051808273ffffffffffffffffffffffffffffffffffffffff1673ffffffffffffffffffffffffffffffffffffffff16815260200191505060405180910390f35b348015610d2857600080fd5b50610d31612a4f565b604051808215151515815260200191505060405180910390f35b348015610d5757600080fd5b50610dae600480360381019080803573ffffffffffffffffffffffffffffffffffffffff16906020019092919080359060200190929190803590602001908201803590602001919091929391929390505050612aa6565b6040518082815260200191505060405180910390f35b348015610dd057600080fd5b50610dd9612e1c565b60405180826000191660001916815260200191505060405180910390f35b348015610e0357600080fd5b50610e0c612e40565b6040518082815260200191505060405180910390f35b348015610e2e57600080fd5b50610e63600480360381019080803573ffffffffffffffffffffffffffffffffffffffff169060200190929190505050612e50565b604051808215151515815260200191505060405180910390f35b348015610e8957600080fd5b50610ebe600480360381019080803573ffffffffffffffffffffffffffffffffffffffff169060200190929190505050612e9c565b005b348015610ecc57600080fd5b50610eeb60048036038101908080359060200190929190505050612ef3565b604051808273ffffffffffffffffffffffffffffffffffffffff1673ffffffffffffffffffffffffffffffffffffffff16815260200191505060405180910390f35b348015610f3957600080fd5b50610f42612f30565b6040518082815260200191505060405180910390f35b348015610f6457600080fd5b50610f6d612f40565b6040518082815260200191505060405180910390f35b348015610f8f57600080fd5b50610fdc600480360381019080803573ffffffffffffffffffffffffffffffffffffffff169060200190929190803590602001908201803590602001919091929391929390505050612fed565b6040518082815260200191505060405180910390f35b348015610ffe57600080fd5b50611007613435565b60405180826000191660001916815260200191505060405180910390f35b34801561103157600080fd5b5061105c6004803603810190808035906020019092919080351515906020019092919050505061346e565b005b34801561106a57600080fd5b50611073613654565b6040518082815260200191505060405180910390f35b34801561109557600080fd5b506110ca600480360381019080803573ffffffffffffffffffffffffffffffffffffffff169060200190929190505050613701565b6040518082815260200191505060405180910390f35b3480156110ec57600080fd5b506110f561374a565b6040518082815260200191505060405180910390f35b34801561111757600080fd5b50611120613750565b6040518082815260200191505060405180910390f35b34801561114257600080fd5b5061114b61375a565b6040518082815260200191505060405180910390f35b34801561116d57600080fd5b50611176613764565b6040518082815260200191505060405180910390f35b34801561119857600080fd5b506111cd600480360381019080803573ffffffffffffffffffffffffffffffffffffffff16906020019092919050505061376a565b005b3480156111db57600080fd5b50611238600480360381019080803560001916906020019092919080359060200190929190803590602001908201803590602001919091929391929390803590602001908201803590602001919091929391929390505050613789565b6040518082815260200191505060405180910390f35b60008060405180807f6f72672e6d6574616469756d2e70726f78792e696d706c656d656e746174696f81526020017f6e00000000000000000000000000000000000000000000000000000000000000815250602101905060405180910390209050805491505090565b60405180807f62616c6c6f744475726174696f6e4d61780000000000000000000000000000008152506011019050604051809103902081565b60025481565b6002600681111561130357fe5b81565b60405180807f67617350726963650000000000000000000000000000000000000000000000008152506008019050604051809103902081565b6000600c600083815260200190815260200160002060009054906101000a900473ffffffffffffffffffffffffffffffffffffffff169050919050565b6000611386613b0f565b73ffffffffffffffffffffffffffffffffffffffff1663a230c524336040518263ffffffff167c0100000000000000000000000000000000000000000000000000000000028152600401808273ffffffffffffffffffffffffffffffffffffffff1673ffffffffffffffffffffffffffffffffffffffff168152602001915050602060405180830381600087803b15801561142057600080fd5b505af1158015611434573d6000803e3d6000fd5b505050506040513d602081101561144a57600080fd5b810190808051906020019092919050505015156114cf576040517f08c379a000000000000000000000000000000000000000000000000000000000815260040180806020018281038252600d8152602001807f4e6f205065726d697373696f6e0000000000000000000000000000000000000081525060200191505060405180910390fd5b8a73ffffffffffffffffffffffffffffffffffffffff163373ffffffffffffffffffffffffffffffffffffffff1614151515611573576040517f08c379a000000000000000000000000000000000000000000000000000000000815260040180806020018281038252600f8152602001807f43616e6e6f74206164642073656c66000000000000000000000000000000000081525060200191505060405180910390fd5b61157c8b612e50565b1515156115f1576040517f08c379a000000000000000000000000000000000000000000000000000000000815260040180806020018281038252600e8152602001807f416c7265616479206d656d62657200000000000000000000000000000000000081525060200191505060405180910390fd5b6116076001600e54613b3f90919063ffffffff16565b90506116d0816001600581111561161a57fe5b3360008f8f8f8080601f0160208091040260200160405190810160405280939291908181526020018383808284378201915050505050508e8e8080601f0160208091040260200160405190810160405280939291908181526020018383808284378201915050505050508d8d8080601f0160208091040260200160405190810160405280939291908181526020018383808284378201915050505050508c60006002811015156116c657fe5b6020020135613b60565b6116ed818560016002811015156116e357fe5b6020020135613dec565b6117298184848080601f016020809104026020016040519081016040528093929190818152602001838380828437820191505050505050613e86565b80600e819055509a9950505050505050505050565b60006113ec905090565b6000611752613f85565b73ffffffffffffffffffffffffffffffffffffffff166333be496e6040518163ffffffff167c0100000000000000000000000000000000000000000000000000000000028152600401602060405180830381600087803b1580156117b557600080fd5b505af11580156117c9573d6000803e3d6000fd5b505050506040513d60208110156117df57600080fd5b8101908080519060200190929190505050905090565b60006008600083815260200190815260200160002060009054906101000a900473ffffffffffffffffffffffffffffffffffffffff169050919050565b7f5374616b696e670000000000000000000000000000000000000000000000000081565b60006060806060600080600080600061186d612a4f565b151561187857600080fd5b60001515600460009054906101000a900460ff161515141515611903576040517f08c379a00000000000000000000000000000000000000000000000000000000081526004018080602001828103825260138152602001807f416c726561647920696e697469616c697a65640000000000000000000000000081525060200191505060405180910390fd5b61190c8c612e9c565b6119158b613fb5565b6001600460006101000a81548160ff021916908315150217905550436003819055506000935060208a0192508951830191505b81831015611bf95782519450849850602083019250818310151561196b57600080fd5b829750875160200183019250818310151561198557600080fd5b829650865160200183019250818310151561199f57600080fd5b82955085516020018301925081831015156119b957600080fd5b82519450602083019250600184019350886005600086815260200190815260200160002060006101000a81548173ffffffffffffffffffffffffffffffffffffffff021916908373ffffffffffffffffffffffffffffffffffffffff16021790555083600660008b73ffffffffffffffffffffffffffffffffffffffff1673ffffffffffffffffffffffffffffffffffffffff16815260200190815260200160002081905550886008600086815260200190815260200160002060006101000a81548173ffffffffffffffffffffffffffffffffffffffff021916908373ffffffffffffffffffffffffffffffffffffffff16021790555083600960008b73ffffffffffffffffffffffffffffffffffffffff1673ffffffffffffffffffffffffffffffffffffffff16815260200190815260200160002081905550600a6000858152602001908152602001600020905087816000019080519060200190611b22929190616ea2565b5086816001019080519060200190611b3b929190616ea2565b5085816002019080519060200190611b54929190616ea2565b5084816003018190555088600c600086815260200190815260200160002060006101000a81548173ffffffffffffffffffffffffffffffffffffffff021916908373ffffffffffffffffffffffffffffffffffffffff16021790555083600b60008b73ffffffffffffffffffffffffffffffffffffffff1673ffffffffffffffffffffffffffffffffffffffff16815260200190815260200160002081905550611948565b8360078190555083600d81905550505050505050505050505050565b60026006811115611c2257fe5b81565b7f526577617264506f6f6c0000000000000000000000000000000000000000000081565b6000611c53613b0f565b73ffffffffffffffffffffffffffffffffffffffff1663a230c524336040518263ffffffff167c0100000000000000000000000000000000000000000000000000000000028152600401808273ffffffffffffffffffffffffffffffffffffffff1673ffffffffffffffffffffffffffffffffffffffff168152602001915050602060405180830381600087803b158015611ced57600080fd5b505af1158015611d01573d6000803e3d6000fd5b505050506040513d6020811015611d1757600080fd5b81019080805190602001909291905050501515611d9c576040517f08c379a000000000000000000000000000000000000000000000000000000000815260040180806020018281038252600d8152602001807f4e6f205065726d697373696f6e0000000000000000000000000000000000000081525060200191505060405180910390fd5b611dce8b6000600281101515611dae57fe5b602002013573ffffffffffffffffffffffffffffffffffffffff16612e50565b1515611e42576040517f08c379a000000000000000000000000000000000000000000000000000000000815260040180806020018281038252600a8152602001807f4e6f6e2d6d656d6265720000000000000000000000000000000000000000000081525060200191505060405180910390fd5b611e586001600e54613b3f90919063ffffffff16565b9050611f728160036005811115611e6b57fe5b338e6000600281101515611e7b57fe5b602002013573ffffffffffffffffffffffffffffffffffffffff168f6001600281101515611ea557fe5b602002013573ffffffffffffffffffffffffffffffffffffffff168f8f8080601f0160208091040260200160405190810160405280939291908181526020018383808284378201915050505050508e8e8080601f0160208091040260200160405190810160405280939291908181526020018383808284378201915050505050508d8d8080601f0160208091040260200160405190810160405280939291908181526020018383808284378201915050505050508c6000600281101515611f6857fe5b6020020135613b60565b611f8f81856001600281101515611f8557fe5b6020020135613dec565b611fcb8184848080601f016020809104026020016040519081016040528093929190818152602001838380828437820191505050505050613e86565b80600e819055509a9950505050505050505050565b60608060606000600a6000868152602001908152602001600020600001600a6000878152602001908152602001600020600101600a6000888152602001908152602001600020600201600a600089815260200190815260200160002060030154838054600181600116156101000203166002900480601f0160208091040260200160405190810160405280929190818152602001828054600181600116156101000203166002900480156120d55780601f106120aa576101008083540402835291602001916120d5565b820191906000526020600020905b8154815290600101906020018083116120b857829003601f168201915b50505050509350828054600181600116156101000203166002900480601f0160208091040260200160405190810160405280929190818152602001828054600181600116156101000203166002900480156121715780601f1061214657610100808354040283529160200191612171565b820191906000526020600020905b81548152906001019060200180831161215457829003601f168201915b50505050509250818054600181600116156101000203166002900480601f01602080910402602001604051908101604052809291908181526020018280546001816001161561010002031660029004801561220d5780601f106121e25761010080835404028352916020019161220d565b820191906000526020600020905b8154815290600101906020018083116121f057829003601f168201915b5050505050915093509350935093509193509193565b60405180807f626c6f636b5065720000000000000000000000000000000000000000000000008152506008019050604051809103902081565b6000612266613f85565b73ffffffffffffffffffffffffffffffffffffffff1663737c59b86040518163ffffffff167c0100000000000000000000000000000000000000000000000000000000028152600401602060405180830381600087803b1580156122c957600080fd5b505af11580156122dd573d6000803e3d6000fd5b505050506040513d60208110156122f357600080fd5b8101908080519060200190929190505050905090565b6002600681111561231657fe5b81565b7f476f7665726e616e6365436f6e7472616374000000000000000000000000000081565b60405180807f62616c6c6f744475726174696f6e4d696e0000000000000000000000000000008152506011019050604051809103902081565b60405180807f7374616b696e674d696e00000000000000000000000000000000000000000000815250600a019050604051809103902081565b6123b7612a4f565b15156123c257600080fd5b600073ffffffffffffffffffffffffffffffffffffffff166000809054906101000a900473ffffffffffffffffffffffffffffffffffffffff1673ffffffffffffffffffffffffffffffffffffffff167f8be0079c531659141344cd1fd0a4f28419497f9722a3daafe3b4186f6b6457e060405160405180910390a360008060006101000a81548173ffffffffffffffffffffffffffffffffffffffff021916908373ffffffffffffffffffffffffffffffffffffffff160217905550565b6000600d54905090565b600160009054906101000a900473ffffffffffffffffffffffffffffffffffffffff1681565b7f456e7653746f726167650000000000000000000000000000000000000000000081565b60035481565b600260068111156124e857fe5b81565b6000806124f6612a4f565b151561250157600080fd5b60001515600460009054906101000a900460ff16151514151561258c576040517f08c379a00000000000000000000000000000000000000000000000000000000081526004018080602001828103825260138152602001807f416c726561647920696e697469616c697a65640000000000000000000000000081525060200191505060405180910390fd5b61259589612e9c565b61259e88613fb5565b6125a661401c565b9150868273ffffffffffffffffffffffffffffffffffffffff166325d998bb336040518263ffffffff167c0100000000000000000000000000000000000000000000000000000000028152600401808273ffffffffffffffffffffffffffffffffffffffff1673ffffffffffffffffffffffffffffffffffffffff168152602001915050602060405180830381600087803b15801561264457600080fd5b505af1158015612658573d6000803e3d6000fd5b505050506040513d602081101561266e57600080fd5b8101908080519060200190929190505050101515156126f5576040517f08c379a00000000000000000000000000000000000000000000000000000000081526004018080602001828103825260148152602001807f496e73756666696369656e74207374616b696e6700000000000000000000000081525060200191505060405180910390fd5b8173ffffffffffffffffffffffffffffffffffffffff1663282d3fdf33896040518363ffffffff167c0100000000000000000000000000000000000000000000000000000000028152600401808373ffffffffffffffffffffffffffffffffffffffff1673ffffffffffffffffffffffffffffffffffffffff16815260200182815260200192505050600060405180830381600087803b15801561279857600080fd5b505af11580156127ac573d6000803e3d6000fd5b5050505060016007819055503360056000600754815260200190815260200160002060006101000a81548173ffffffffffffffffffffffffffffffffffffffff021916908373ffffffffffffffffffffffffffffffffffffffff160217905550600754600660003373ffffffffffffffffffffffffffffffffffffffff1673ffffffffffffffffffffffffffffffffffffffff168152602001908152602001600020819055503360086000600754815260200190815260200160002060006101000a81548173ffffffffffffffffffffffffffffffffffffffff021916908373ffffffffffffffffffffffffffffffffffffffff160217905550600754600960003373ffffffffffffffffffffffffffffffffffffffff1673ffffffffffffffffffffffffffffffffffffffff168152602001908152602001600020819055506001600d81905550600a6000600d548152602001908152602001600020905085816000019080519060200190612923929190616ea2565b508481600101908051906020019061293c929190616ea2565b5083816002019080519060200190612955929190616ea2565b50828160030181905550600d54600b60003373ffffffffffffffffffffffffffffffffffffffff1673ffffffffffffffffffffffffffffffffffffffff1681526020019081526020016000208190555033600c6000600d54815260200190815260200160002060006101000a81548173ffffffffffffffffffffffffffffffffffffffff021916908373ffffffffffffffffffffffffffffffffffffffff1602179055506001600460006101000a81548160ff02191690831515021790555043600381905550505050505050505050565b60008060009054906101000a900473ffffffffffffffffffffffffffffffffffffffff16905090565b60008060009054906101000a900473ffffffffffffffffffffffffffffffffffffffff1673ffffffffffffffffffffffffffffffffffffffff163373ffffffffffffffffffffffffffffffffffffffff1614905090565b6000612ab0613b0f565b73ffffffffffffffffffffffffffffffffffffffff1663a230c524336040518263ffffffff167c0100000000000000000000000000000000000000000000000000000000028152600401808273ffffffffffffffffffffffffffffffffffffffff1673ffffffffffffffffffffffffffffffffffffffff168152602001915050602060405180830381600087803b158015612b4a57600080fd5b505af1158015612b5e573d6000803e3d6000fd5b505050506040513d6020811015612b7457600080fd5b81019080805190602001909291905050501515612bf9576040517f08c379a000000000000000000000000000000000000000000000000000000000815260040180806020018281038252600d8152602001807f4e6f205065726d697373696f6e0000000000000000000000000000000000000081525060200191505060405180910390fd5b612c0285612e50565b1515612c76576040517f08c379a000000000000000000000000000000000000000000000000000000000815260040180806020018281038252600a8152602001807f4e6f6e2d6d656d6265720000000000000000000000000000000000000000000081525060200191505060405180910390fd5b6001612c80613750565b111515612cf5576040517f08c379a000000000000000000000000000000000000000000000000000000000815260040180806020018281038252601b8152602001807f43616e6e6f742072656d6f7665206120736f6c65206d656d626572000000000081525060200191505060405180910390fd5b612d0b6001600e54613b3f90919063ffffffff16565b9050612dc78160026005811115612d1e57fe5b33886000806040519080825280601f01601f191660200182016040528015612d555781602001602082028038833980820191505090505b5060006040519080825280601f01601f191660200182016040528015612d8a5781602001602082028038833980820191505090505b5060006040519080825280601f01601f191660200182016040528015612dbf5781602001602082028038833980820191505090505b506000613b60565b612dd18185613dec565b612e0d8184848080601f016020809104026020016040519081016040528093929190818152602001838380828437820191505050505050613e86565b80600e81905550949350505050565b7f42616c6c6f7453746f726167650000000000000000000000000000000000000081565b60026006811115612e4d57fe5b81565b600080600660008473ffffffffffffffffffffffffffffffffffffffff1673ffffffffffffffffffffffffffffffffffffffff1681526020019081526020016000205414159050919050565b612ea4612a4f565b1515612eaf57600080fd5b80600160006101000a81548173ffffffffffffffffffffffffffffffffffffffff021916908373ffffffffffffffffffffffffffffffffffffffff16021790555050565b60006005600083815260200190815260200160002060009054906101000a900473ffffffffffffffffffffffffffffffffffffffff169050919050565b60026006811115612f3d57fe5b81565b6000612f4a613f85565b73ffffffffffffffffffffffffffffffffffffffff1663076cd77f6040518163ffffffff167c0100000000000000000000000000000000000000000000000000000000028152600401602060405180830381600087803b158015612fad57600080fd5b505af1158015612fc1573d6000803e3d6000fd5b505050506040513d6020811015612fd757600080fd5b8101908080519060200190929190505050905090565b6000612ff7613b0f565b73ffffffffffffffffffffffffffffffffffffffff1663a230c524336040518263ffffffff167c0100000000000000000000000000000000000000000000000000000000028152600401808273ffffffffffffffffffffffffffffffffffffffff1673ffffffffffffffffffffffffffffffffffffffff168152602001915050602060405180830381600087803b15801561309157600080fd5b505af11580156130a5573d6000803e3d6000fd5b505050506040513d60208110156130bb57600080fd5b81019080805190602001909291905050501515613140576040517f08c379a000000000000000000000000000000000000000000000000000000000815260040180806020018281038252600d8152602001807f4e6f205065726d697373696f6e0000000000000000000000000000000000000081525060200191505060405180910390fd5b600073ffffffffffffffffffffffffffffffffffffffff168473ffffffffffffffffffffffffffffffffffffffff16141515156131e5576040517f08c379a000000000000000000000000000000000000000000000000000000000815260040180806020018281038252601d8152602001807f496d706c656d656e746174696f6e2063616e6e6f74206265207a65726f00000081525060200191505060405180910390fd5b6131ed61124e565b73ffffffffffffffffffffffffffffffffffffffff168473ffffffffffffffffffffffffffffffffffffffff1614151515613290576040517f08c379a00000000000000000000000000000000000000000000000000000000081526004018080602001828103825260158152602001807f53616d6520636f6e74726163742061646472657373000000000000000000000081525060200191505060405180910390fd5b6132a66001600e54613b3f90919063ffffffff16565b90506132b061404c565b73ffffffffffffffffffffffffffffffffffffffff16634a4af0136132e16001600e54613b3f90919063ffffffff16565b600460058111156132ee57fe5b33886040518563ffffffff167c0100000000000000000000000000000000000000000000000000000000028152600401808581526020018481526020018373ffffffffffffffffffffffffffffffffffffffff1673ffffffffffffffffffffffffffffffffffffffff1681526020018273ffffffffffffffffffffffffffffffffffffffff1673ffffffffffffffffffffffffffffffffffffffff168152602001945050505050602060405180830381600087803b1580156133af57600080fd5b505af11580156133c3573d6000803e3d6000fd5b505050506040513d60208110156133d957600080fd5b8101908080519060200190929190505050506134278184848080601f016020809104026020016040519081016040528093929190818152602001838380828437820191505050505050613e86565b80600e819055509392505050565b60405180807f7374616b696e674d617800000000000000000000000000000000000000000000815250600a019050604051809103902081565b600080600061347b613b0f565b73ffffffffffffffffffffffffffffffffffffffff1663a230c524336040518263ffffffff167c0100000000000000000000000000000000000000000000000000000000028152600401808273ffffffffffffffffffffffffffffffffffffffff1673ffffffffffffffffffffffffffffffffffffffff168152602001915050602060405180830381600087803b15801561351557600080fd5b505af1158015613529573d6000803e3d6000fd5b505050506040513d602081101561353f57600080fd5b810190808051906020019092919050505015156135c4576040517f08c379a000000000000000000000000000000000000000000000000000000000815260040180806020018281038252600d8152602001807f4e6f205065726d697373696f6e0000000000000000000000000000000000000081525060200191505060405180910390fd5b6000600160116000828254019250508190555060115490506135e58661407c565b6135ee866141a1565b93506135fa86866142d4565b6136038661460a565b935093505061361061173e565b83108015613624575061362161173e565b82105b1561362e5761363c565b61363b86858486116146e1565b5b6011548114151561364c57600080fd5b505050505050565b600061365e613f85565b73ffffffffffffffffffffffffffffffffffffffff16631b27e01b6040518163ffffffff167c0100000000000000000000000000000000000000000000000000000000028152600401602060405180830381600087803b1580156136c157600080fd5b505af11580156136d5573d6000803e3d6000fd5b505050506040513d60208110156136eb57600080fd5b8101908080519060200190929190505050905090565b6000600b60008373ffffffffffffffffffffffffffffffffffffffff1673ffffffffffffffffffffffffffffffffffffffff168152602001908152602001600020549050919050565b600e5481565b6000600754905090565b6000601054905090565b600f5481565b613772612a4f565b151561377d57600080fd5b613786816147c9565b50565b6000613793613b0f565b73ffffffffffffffffffffffffffffffffffffffff1663a230c524336040518263ffffffff167c0100000000000000000000000000000000000000000000000000000000028152600401808273ffffffffffffffffffffffffffffffffffffffff1673ffffffffffffffffffffffffffffffffffffffff168152602001915050602060405180830381600087803b15801561382d57600080fd5b505af1158015613841573d6000803e3d6000fd5b505050506040513d602081101561385757600080fd5b810190808051906020019092919050505015156138dc576040517f08c379a000000000000000000000000000000000000000000000000000000000815260040180806020018281038252600d8152602001807f4e6f205065726d697373696f6e0000000000000000000000000000000000000081525060200191505060405180910390fd5b85600160068111156138ea57fe5b1115801561390357506006808111156138ff57fe5b8611155b1515613977576040517f08c379a000000000000000000000000000000000000000000000000000000000815260040180806020018281038252600c8152602001807f496e76616c69642074797065000000000000000000000000000000000000000081525060200191505060405180910390fd5b61398d6001600e54613b3f90919063ffffffff16565b905061399761404c565b73ffffffffffffffffffffffffffffffffffffffff16637f5b7ab3826005808111156139bf57fe5b338b8b8b8b6040518863ffffffff167c0100000000000000000000000000000000000000000000000000000000028152600401808881526020018781526020018673ffffffffffffffffffffffffffffffffffffffff1673ffffffffffffffffffffffffffffffffffffffff1681526020018560001916600019168152602001848152602001806020018281038252848482818152602001925080828437820191505098505050505050505050602060405180830381600087803b158015613a8657600080fd5b505af1158015613a9a573d6000803e3d6000fd5b505050506040513d6020811015613ab057600080fd5b810190808051906020019092919050505050613afe8184848080601f016020809104026020016040519081016040528093929190818152602001838380828437820191505050505050613e86565b80600e819055509695505050505050565b6000613b3a7f476f7665726e616e6365436f6e747261637400000000000000000000000000006148c3565b905090565b6000808284019050838110151515613b5657600080fd5b8091505092915050565b613b6861404c565b73ffffffffffffffffffffffffffffffffffffffff1663977eb03e8a8a8a8a8a8a8a8a8a6040518a63ffffffff167c0100000000000000000000000000000000000000000000000000000000028152600401808a81526020018981526020018873ffffffffffffffffffffffffffffffffffffffff1673ffffffffffffffffffffffffffffffffffffffff1681526020018773ffffffffffffffffffffffffffffffffffffffff1673ffffffffffffffffffffffffffffffffffffffff1681526020018673ffffffffffffffffffffffffffffffffffffffff1673ffffffffffffffffffffffffffffffffffffffff168152602001806020018060200180602001858152602001848103845288818151815260200191508051906020019080838360005b83811015613ca7578082015181840152602081019050613c8c565b50505050905090810190601f168015613cd45780820380516001836020036101000a031916815260200191505b50848103835287818151815260200191508051906020019080838360005b83811015613d0d578082015181840152602081019050613cf2565b50505050905090810190601f168015613d3a5780820380516001836020036101000a031916815260200191505b50848103825286818151815260200191508051906020019080838360005b83811015613d73578082015181840152602081019050613d58565b50505050905090810190601f168015613da05780820380516001836020036101000a031916815260200191505b509c50505050505050505050505050600060405180830381600087803b158015613dc957600080fd5b505af1158015613ddd573d6000803e3d6000fd5b50505050505050505050505050565b613df461404c565b73ffffffffffffffffffffffffffffffffffffffff166372d0ec9283836040518363ffffffff167c01000000000000000000000000000000000000000000000000000000000281526004018083815260200182815260200192505050600060405180830381600087803b158015613e6a57600080fd5b505af1158015613e7e573d6000803e3d6000fd5b505050505050565b613e8e61404c565b73ffffffffffffffffffffffffffffffffffffffff1663bce0dbc183836040518363ffffffff167c01000000000000000000000000000000000000000000000000000000000281526004018083815260200180602001828103825283818151815260200191508051906020019080838360005b83811015613f1c578082015181840152602081019050613f01565b50505050905090810190601f168015613f495780820380516001836020036101000a031916815260200191505b509350505050600060405180830381600087803b158015613f6957600080fd5b505af1158015613f7d573d6000803e3d6000fd5b505050505050565b6000613fb07f456e7653746f72616765000000000000000000000000000000000000000000006148c3565b905090565b600060405180807f6f72672e6d6574616469756d2e70726f78792e696d706c656d656e746174696f81526020017f6e000000000000000000000000000000000000000000000000000000000000008152506021019050604051809103902090508181555050565b60006140477f5374616b696e67000000000000000000000000000000000000000000000000006148c3565b905090565b60006140777f42616c6c6f7453746f72616765000000000000000000000000000000000000006148c3565b905090565b600080600060105414151561419b576140966010546149a0565b509250506140a5601054614a77565b50915050600260058111156140b657fe5b82141561419a57428110156140f9576140dd601054600460058111156140d857fe5b614b4e565b60006010819055506010548314156140f45761419c565b614199565b60105483141515614198576040517f08c379a00000000000000000000000000000000000000000000000000000000081526004018080602001828103825260238152602001807f4e6f7720696e20766f74696e67207769746820646966666572656e742062616c81526020017f6c6f74000000000000000000000000000000000000000000000000000000000081525060400191505060405180910390fd5b5b5b5b5b505050565b6000806000806141b0856149a0565b5092509250600160058111156141c257fe5b821415614241576141d285614a77565b925050506141de611748565b8110156141fe576141f985426141f2611748565b4201614be8565b614235565b80614207613654565b101561422657614221854261421a613654565b4201614be8565b614234565b6142338542834201614be8565b5b5b846010819055506142c9565b6002600581111561424e57fe5b82141561425a576142c8565b6040517f08c379a00000000000000000000000000000000000000000000000000000000081526004018080602001828103825260078152602001807f457870697265640000000000000000000000000000000000000000000000000081525060200191505060405180910390fd5b5b829350505050919050565b6000806142ed6001600f54613b3f90919063ffffffff16565b91506142f761401c565b73ffffffffffffffffffffffffffffffffffffffff16637d77a0eb336127106040518363ffffffff167c0100000000000000000000000000000000000000000000000000000000028152600401808373ffffffffffffffffffffffffffffffffffffffff1673ffffffffffffffffffffffffffffffffffffffff1681526020018263ffffffff16815260200192505050602060405180830381600087803b1580156143a157600080fd5b505af11580156143b5573d6000803e3d6000fd5b505050506040513d60208110156143cb57600080fd5b8101908080519060200190929190505050905082156144f3576143ec61404c565b73ffffffffffffffffffffffffffffffffffffffff166396462b9c8386336001600281111561441757fe5b866040518663ffffffff167c0100000000000000000000000000000000000000000000000000000000028152600401808681526020018581526020018473ffffffffffffffffffffffffffffffffffffffff1673ffffffffffffffffffffffffffffffffffffffff16815260200183815260200182815260200195505050505050602060405180830381600087803b1580156144b257600080fd5b505af11580156144c6573d6000803e3d6000fd5b505050506040513d60208110156144dc57600080fd5b8101908080519060200190929190505050506145fd565b6144fb61404c565b73ffffffffffffffffffffffffffffffffffffffff166396462b9c83863360028081111561452557fe5b866040518663ffffffff167c0100000000000000000000000000000000000000000000000000000000028152600401808681526020018581526020018473ffffffffffffffffffffffffffffffffffffffff1673ffffffffffffffffffffffffffffffffffffffff16815260200183815260200182815260200195505050505050602060405180830381600087803b1580156145c057600080fd5b505af11580156145d4573d6000803e3d6000fd5b505050506040513d60208110156145ea57600080fd5b8101908080519060200190929190505050505b81600f8190555050505050565b600080600061461761404c565b73ffffffffffffffffffffffffffffffffffffffff166356ba988e856040518263ffffffff167c010000000000000000000000000000000000000000000000000000000002815260040180828152602001915050606060405180830381600087803b15801561468557600080fd5b505af1158015614699573d6000803e3d6000fd5b505050506040513d60608110156146af57600080fd5b810190808051906020019092919080519060200190929190805190602001909291905050509250925092509193909250565b6000600460058111156146f057fe5b905081156147b1576001600581111561470557fe5b83141561471a5761471584614c8b565b6147a1565b6002600581111561472757fe5b83141561473c5761473784615035565b6147a0565b6003600581111561474957fe5b83141561475e57614759846157f3565b61479f565b6004600581111561476b57fe5b8314156147805761477b84615dfd565b61479e565b60058081111561478c57fe5b83141561479d5761479c84615f0c565b5b5b5b5b5b600360058111156147ae57fe5b90505b6147bb8482614b4e565b600060108190555050505050565b600073ffffffffffffffffffffffffffffffffffffffff168173ffffffffffffffffffffffffffffffffffffffff161415151561480557600080fd5b8073ffffffffffffffffffffffffffffffffffffffff166000809054906101000a900473ffffffffffffffffffffffffffffffffffffffff1673ffffffffffffffffffffffffffffffffffffffff167f8be0079c531659141344cd1fd0a4f28419497f9722a3daafe3b4186f6b6457e060405160405180910390a3806000806101000a81548173ffffffffffffffffffffffffffffffffffffffff021916908373ffffffffffffffffffffffffffffffffffffffff16021790555050565b6000600160009054906101000a900473ffffffffffffffffffffffffffffffffffffffff1673ffffffffffffffffffffffffffffffffffffffff16630d2020dd836040518263ffffffff167c0100000000000000000000000000000000000000000000000000000000028152600401808260001916600019168152602001915050602060405180830381600087803b15801561495e57600080fd5b505af1158015614972573d6000803e3d6000fd5b505050506040513d602081101561498857600080fd5b81019080805190602001909291905050509050919050565b60008060006149ad61404c565b73ffffffffffffffffffffffffffffffffffffffff1663688ca5b2856040518263ffffffff167c010000000000000000000000000000000000000000000000000000000002815260040180828152602001915050606060405180830381600087803b158015614a1b57600080fd5b505af1158015614a2f573d6000803e3d6000fd5b505050506040513d6060811015614a4557600080fd5b810190808051906020019092919080519060200190929190805190602001909291905050509250925092509193909250565b6000806000614a8461404c565b73ffffffffffffffffffffffffffffffffffffffff166309970688856040518263ffffffff167c010000000000000000000000000000000000000000000000000000000002815260040180828152602001915050606060405180830381600087803b158015614af257600080fd5b505af1158015614b06573d6000803e3d6000fd5b505050506040513d6060811015614b1c57600080fd5b810190808051906020019092919080519060200190929190805190602001909291905050509250925092509193909250565b614b5661404c565b73ffffffffffffffffffffffffffffffffffffffff1663a91e59ba83836040518363ffffffff167c01000000000000000000000000000000000000000000000000000000000281526004018083815260200182815260200192505050600060405180830381600087803b158015614bcc57600080fd5b505af1158015614be0573d6000803e3d6000fd5b505050505050565b614bf061404c565b73ffffffffffffffffffffffffffffffffffffffff1663c0b6f1868484846040518463ffffffff167c0100000000000000000000000000000000000000000000000000000000028152600401808481526020018381526020018281526020019350505050600060405180830381600087803b158015614c6e57600080fd5b505af1158015614c82573d6000803e3d6000fd5b50505050505050565b600060608060606000806000806000614cb08a60016005811115614cab57fe5b616796565b614cb98a61694b565b99509950995099509950995050614ccf89612e50565b15614cd957615029565b83614ce2612f40565b11158015614cf75750614cf361225c565b8411155b1515614d6b576040517f08c379a00000000000000000000000000000000000000000000000000000000081526004018080602001828103825260138152602001807f496e76616c6964206c6f636b20616d6f756e740000000000000000000000000081525060200191505060405180910390fd5b614d758985616b3f565b614d8b6001600754613b3f90919063ffffffff16565b9250886005600085815260200190815260200160002060006101000a81548173ffffffffffffffffffffffffffffffffffffffff021916908373ffffffffffffffffffffffffffffffffffffffff16021790555082600660008b73ffffffffffffffffffffffffffffffffffffffff1673ffffffffffffffffffffffffffffffffffffffff16815260200190815260200160002081905550886008600085815260200190815260200160002060006101000a81548173ffffffffffffffffffffffffffffffffffffffff021916908373ffffffffffffffffffffffffffffffffffffffff16021790555082600960008b73ffffffffffffffffffffffffffffffffffffffff1673ffffffffffffffffffffffffffffffffffffffff16815260200190815260200160002081905550614ecf6001600d54613b3f90919063ffffffff16565b9150600a6000838152602001908152602001600020905086816001019080519060200190614efe929190616ea2565b5085816002019080519060200190614f17929190616ea2565b5084816003018190555088600c600084815260200190815260200160002060006101000a81548173ffffffffffffffffffffffffffffffffffffffff021916908373ffffffffffffffffffffffffffffffffffffffff16021790555081600b60008b73ffffffffffffffffffffffffffffffffffffffff1673ffffffffffffffffffffffffffffffffffffffff1681526020019081526020016000208190555087816000019080519060200190614fcf929190616ea2565b508260078190555081600d81905550436003819055508873ffffffffffffffffffffffffffffffffffffffff167fb251eb052afc73ffd02ffe85ad79990a8b3fed60d76dbc2fa2fdd7123dffd91460405160405180910390a25b50505050505050505050565b6000806000615050846002600581111561504b57fe5b616796565b6150598461694b565b97505050505050925061506b83612e50565b1515615076576157ed565b600754600660008573ffffffffffffffffffffffffffffffffffffffff1673ffffffffffffffffffffffffffffffffffffffff168152602001908152602001600020541415156153e95760056000600754815260200190815260200160002060009054906101000a900473ffffffffffffffffffffffffffffffffffffffff1660056000600660008773ffffffffffffffffffffffffffffffffffffffff1673ffffffffffffffffffffffffffffffffffffffff16815260200190815260200160002054815260200190815260200160002060009054906101000a900473ffffffffffffffffffffffffffffffffffffffff1660056000600660008873ffffffffffffffffffffffffffffffffffffffff1673ffffffffffffffffffffffffffffffffffffffff168152602001908152602001600020548152602001908152602001600020600060056000600754815260200190815260200160002060008491906101000a81548173ffffffffffffffffffffffffffffffffffffffff021916908373ffffffffffffffffffffffffffffffffffffffff1602179055508391906101000a81548173ffffffffffffffffffffffffffffffffffffffff021916908373ffffffffffffffffffffffffffffffffffffffff160217905550505060086000600754815260200190815260200160002060009054906101000a900473ffffffffffffffffffffffffffffffffffffffff1660086000600660008773ffffffffffffffffffffffffffffffffffffffff1673ffffffffffffffffffffffffffffffffffffffff16815260200190815260200160002054815260200190815260200160002060009054906101000a900473ffffffffffffffffffffffffffffffffffffffff1660086000600660008873ffffffffffffffffffffffffffffffffffffffff1673ffffffffffffffffffffffffffffffffffffffff168152602001908152602001600020548152602001908152602001600020600060086000600754815260200190815260200160002060008491906101000a81548173ffffffffffffffffffffffffffffffffffffffff021916908373ffffffffffffffffffffffffffffffffffffffff1602179055508391906101000a81548173ffffffffffffffffffffffffffffffffffffffff021916908373ffffffffffffffffffffffffffffffffffffffff16021790555050505b600060056000600754815260200190815260200160002060006101000a81548173ffffffffffffffffffffffffffffffffffffffff021916908373ffffffffffffffffffffffffffffffffffffffff1602179055506000600660008573ffffffffffffffffffffffffffffffffffffffff1673ffffffffffffffffffffffffffffffffffffffff16815260200190815260200160002081905550600060086000600754815260200190815260200160002060006101000a81548173ffffffffffffffffffffffffffffffffffffffff021916908373ffffffffffffffffffffffffffffffffffffffff16021790555060006009600060086000600754815260200190815260200160002060009054906101000a900473ffffffffffffffffffffffffffffffffffffffff1673ffffffffffffffffffffffffffffffffffffffff1673ffffffffffffffffffffffffffffffffffffffff168152602001908152602001600020819055506155686001600754616c0590919063ffffffff16565b600781905550600d54600b60008573ffffffffffffffffffffffffffffffffffffffff1673ffffffffffffffffffffffffffffffffffffffff168152602001908152602001600020541415156156e257600a6000600b60008673ffffffffffffffffffffffffffffffffffffffff1673ffffffffffffffffffffffffffffffffffffffff1681526020019081526020016000205481526020019081526020016000209050600a6000600d548152602001908152602001600020600001816000019080546001816001161561010002031660029004615647929190616f22565b50600a6000600d548152602001908152602001600020600101816001019080546001816001161561010002031660029004615683929190616f22565b50600a6000600d5481526020019081526020016000206002018160020190805460018160011615610100020316600290046156bf929190616f22565b50600a6000600d5481526020019081526020016000206003015481600301819055505b6000600c6000600d54815260200190815260200160002060006101000a81548173ffffffffffffffffffffffffffffffffffffffff021916908373ffffffffffffffffffffffffffffffffffffffff1602179055506000600b60008573ffffffffffffffffffffffffffffffffffffffff1673ffffffffffffffffffffffffffffffffffffffff168152602001908152602001600020819055506157926001600d54616c0590919063ffffffff16565b600d81905550436003819055506157a98383616c26565b8273ffffffffffffffffffffffffffffffffffffffff167f6e76fb4c77256006d9c38ec7d82b45a8c8f3c27b1d6766fffc42dfb8de68449260405160405180910390a25b50505050565b60008060608060606000806000806158178a6003600581111561581257fe5b616796565b6158208a61694b565b985098509850985098509850985061583789612e50565b151561584257615df1565b8773ffffffffffffffffffffffffffffffffffffffff168973ffffffffffffffffffffffffffffffffffffffff16141515615b815782615880612f40565b11158015615895575061589161225c565b8311155b1515615909576040517f08c379a00000000000000000000000000000000000000000000000000000000081526004018080602001828103825260138152602001807f496e76616c6964206c6f636b20616d6f756e740000000000000000000000000081525060200191505060405180910390fd5b6159138884616b3f565b8760056000600660008d73ffffffffffffffffffffffffffffffffffffffff1673ffffffffffffffffffffffffffffffffffffffff16815260200190815260200160002054815260200190815260200160002060006101000a81548173ffffffffffffffffffffffffffffffffffffffff021916908373ffffffffffffffffffffffffffffffffffffffff160217905550600660008a73ffffffffffffffffffffffffffffffffffffffff1673ffffffffffffffffffffffffffffffffffffffff16815260200190815260200160002054600660008a73ffffffffffffffffffffffffffffffffffffffff1673ffffffffffffffffffffffffffffffffffffffff168152602001908152602001600020819055508760086000600660008d73ffffffffffffffffffffffffffffffffffffffff1673ffffffffffffffffffffffffffffffffffffffff16815260200190815260200160002054815260200190815260200160002060006101000a81548173ffffffffffffffffffffffffffffffffffffffff021916908373ffffffffffffffffffffffffffffffffffffffff160217905550600960008a73ffffffffffffffffffffffffffffffffffffffff1673ffffffffffffffffffffffffffffffffffffffff16815260200190815260200160002054600960008a73ffffffffffffffffffffffffffffffffffffffff1673ffffffffffffffffffffffffffffffffffffffff168152602001908152602001600020819055506000600660008b73ffffffffffffffffffffffffffffffffffffffff1673ffffffffffffffffffffffffffffffffffffffff168152602001908152602001600020819055505b600b60008a73ffffffffffffffffffffffffffffffffffffffff1673ffffffffffffffffffffffffffffffffffffffff168152602001908152602001600020549150600a6000838152602001908152602001600020905086816000019080519060200190615bf0929190616ea2565b5085816001019080519060200190615c09929190616ea2565b5084816002019080519060200190615c22929190616ea2565b50838160030181905550436003819055508773ffffffffffffffffffffffffffffffffffffffff168973ffffffffffffffffffffffffffffffffffffffff16141515615dac5787600c600084815260200190815260200160002060006101000a81548173ffffffffffffffffffffffffffffffffffffffff021916908373ffffffffffffffffffffffffffffffffffffffff16021790555081600b60008a73ffffffffffffffffffffffffffffffffffffffff1673ffffffffffffffffffffffffffffffffffffffff168152602001908152602001600020819055506000600b60008b73ffffffffffffffffffffffffffffffffffffffff1673ffffffffffffffffffffffffffffffffffffffff16815260200190815260200160002081905550615d4d8984616c26565b8773ffffffffffffffffffffffffffffffffffffffff168973ffffffffffffffffffffffffffffffffffffffff167f05d866cd9c6000815d031b7ce30f30f643766eba16be13cff25924dc8ad8209260405160405180910390a3615df0565b8873ffffffffffffffffffffffffffffffffffffffff167fc849ff69d29483b688b050076f9d03b1a618c93ea052a712bfd3224eb71da8e260405160405180910390a25b5b50505050505050505050565b6000615e158260046005811115615e1057fe5b616796565b615e1d61404c565b73ffffffffffffffffffffffffffffffffffffffff16637efa9ae3836040518263ffffffff167c010000000000000000000000000000000000000000000000000000000002815260040180828152602001915050602060405180830381600087803b158015615e8b57600080fd5b505af1158015615e9f573d6000803e3d6000fd5b505050506040513d6020811015615eb557600080fd5b81019080805190602001909291905050509050600073ffffffffffffffffffffffffffffffffffffffff168173ffffffffffffffffffffffffffffffffffffffff16141515615f0857615f0781613fb5565b5b5050565b60008060606000615f2885600580811115615f2357fe5b616796565b615f3061404c565b73ffffffffffffffffffffffffffffffffffffffff16631d940da2866040518263ffffffff167c010000000000000000000000000000000000000000000000000000000002815260040180828152602001915050600060405180830381600087803b158015615f9e57600080fd5b505af1158015615fb2573d6000803e3d6000fd5b505050506040513d6000823e3d601f19601f820116820180604052506060811015615fdc57600080fd5b810190808051906020019092919080519060200190929190805164010000000081111561600857600080fd5b8281019050602081018481111561601e57600080fd5b815185600182028301116401000000008211171561603b57600080fd5b5050929190505050935093509350616051613f85565b905060405180807f626c6f636b506572000000000000000000000000000000000000000000000000815250600801905060405180910390206000191684600019161480156160aa5750600260068111156160a757fe5b83145b156161a0578073ffffffffffffffffffffffffffffffffffffffff16630a61b0ba836040518263ffffffff167c01000000000000000000000000000000000000000000000000000000000281526004018080602001828103825283818151815260200191508051906020019080838360005b8381101561613757808201518184015260208101905061611c565b50505050905090810190601f1680156161645780820380516001836020036101000a031916815260200191505b5092505050600060405180830381600087803b15801561618357600080fd5b505af1158015616197573d6000803e3d6000fd5b505050506166d4565b60405180807f62616c6c6f744475726174696f6e4d696e000000000000000000000000000000815250601101905060405180910390206000191684600019161480156161f75750600260068111156161f457fe5b83145b156162ed578073ffffffffffffffffffffffffffffffffffffffff1663124cea37836040518263ffffffff167c01000000000000000000000000000000000000000000000000000000000281526004018080602001828103825283818151815260200191508051906020019080838360005b83811015616284578082015181840152602081019050616269565b50505050905090810190601f1680156162b15780820380516001836020036101000a031916815260200191505b5092505050600060405180830381600087803b1580156162d057600080fd5b505af11580156162e4573d6000803e3d6000fd5b505050506166d3565b60405180807f62616c6c6f744475726174696f6e4d61780000000000000000000000000000008152506011019050604051809103902060001916846000191614801561634457506002600681111561634157fe5b83145b1561643a578073ffffffffffffffffffffffffffffffffffffffff1663a5d6a581836040518263ffffffff167c01000000000000000000000000000000000000000000000000000000000281526004018080602001828103825283818151815260200191508051906020019080838360005b838110156163d15780820151818401526020810190506163b6565b50505050905090810190601f1680156163fe5780820380516001836020036101000a031916815260200191505b5092505050600060405180830381600087803b15801561641d57600080fd5b505af1158015616431573d6000803e3d6000fd5b505050506166d2565b60405180807f7374616b696e674d696e00000000000000000000000000000000000000000000815250600a019050604051809103902060001916846000191614801561649157506002600681111561648e57fe5b83145b15616587578073ffffffffffffffffffffffffffffffffffffffff166371c6960d836040518263ffffffff167c01000000000000000000000000000000000000000000000000000000000281526004018080602001828103825283818151815260200191508051906020019080838360005b8381101561651e578082015181840152602081019050616503565b50505050905090810190601f16801561654b5780820380516001836020036101000a031916815260200191505b5092505050600060405180830381600087803b15801561656a57600080fd5b505af115801561657e573d6000803e3d6000fd5b505050506166d1565b60405180807f7374616b696e674d617800000000000000000000000000000000000000000000815250600a01905060405180910390206000191684600019161480156165de5750600260068111156165db57fe5b83145b156166d0578073ffffffffffffffffffffffffffffffffffffffff16632eccd832836040518263ffffffff167c01000000000000000000000000000000000000000000000000000000000281526004018080602001828103825283818151815260200191508051906020019080838360005b8381101561666b578082015181840152602081019050616650565b50505050905090810190601f1680156166985780820380516001836020036101000a031916815260200191505b5092505050600060405180830381600087803b1580156166b757600080fd5b505af11580156166cb573d6000803e3d6000fd5b505050505b5b5b5b5b436003819055507f701c16c2519cdb79aaac423a84733590e3510d9552055b6ad6908f0ab12b6c2984848460405180846000191660001916815260200183815260200180602001828103825283818151815260200191508051906020019080838360005b83811015616753578082015181840152602081019050616738565b50505050905090810190601f1680156167805780820380516001836020036101000a031916815260200191505b5094505050505060405180910390a15050505050565b6000806000806167a5866149a0565b50935093508484141515616821576040517f08c379a00000000000000000000000000000000000000000000000000000000081526004018080602001828103825260138152602001807f496e76616c696420766f74696e6720747970650000000000000000000000000081525060200191505060405180910390fd5b6002600581111561682e57fe5b831415156168a4576040517f08c379a00000000000000000000000000000000000000000000000000000000081526004018080602001828103825260148152602001807f496e76616c696420766f74696e6720737461746500000000000000000000000081525060200191505060405180910390fd5b6168ad8661460a565b92509250506168ba61173e565b821015806168cf57506168cb61173e565b8110155b1515616943576040517f08c379a00000000000000000000000000000000000000000000000000000000081526004018080602001828103825260118152602001807f4e6f74207965742066696e616c697a656400000000000000000000000000000081525060200191505060405180910390fd5b505050505050565b600080606080606060008061695e61404c565b73ffffffffffffffffffffffffffffffffffffffff166373df4e01896040518263ffffffff167c010000000000000000000000000000000000000000000000000000000002815260040180828152602001915050600060405180830381600087803b1580156169cc57600080fd5b505af11580156169e0573d6000803e3d6000fd5b505050506040513d6000823e3d601f19601f8201168201806040525060e0811015616a0a57600080fd5b8101908080519060200190929190805190602001909291908051640100000000811115616a3657600080fd5b82810190506020810184811115616a4c57600080fd5b8151856001820283011164010000000082111715616a6957600080fd5b50509291906020018051640100000000811115616a8557600080fd5b82810190506020810184811115616a9b57600080fd5b8151856001820283011164010000000082111715616ab857600080fd5b50509291906020018051640100000000811115616ad457600080fd5b82810190506020810184811115616aea57600080fd5b8151856001820283011164010000000082111715616b0757600080fd5b505092919060200180519060200190929190805190602001909291905050509650965096509650965096509650919395979092949650565b616b4761401c565b73ffffffffffffffffffffffffffffffffffffffff1663282d3fdf83836040518363ffffffff167c0100000000000000000000000000000000000000000000000000000000028152600401808373ffffffffffffffffffffffffffffffffffffffff1673ffffffffffffffffffffffffffffffffffffffff16815260200182815260200192505050600060405180830381600087803b158015616be957600080fd5b505af1158015616bfd573d6000803e3d6000fd5b505050505050565b600080838311151515616c1757600080fd5b82840390508091505092915050565b600080616c3161401c565b91508173ffffffffffffffffffffffffffffffffffffffff166359355736856040518263ffffffff167c0100000000000000000000000000000000000000000000000000000000028152600401808273ffffffffffffffffffffffffffffffffffffffff1673ffffffffffffffffffffffffffffffffffffffff168152602001915050602060405180830381600087803b158015616cce57600080fd5b505af1158015616ce2573d6000803e3d6000fd5b505050506040513d6020811015616cf857600080fd5b8101908080519060200190929190505050905082811115616de1578173ffffffffffffffffffffffffffffffffffffffff16637756c90885616d438685616c0590919063ffffffff16565b6040518363ffffffff167c0100000000000000000000000000000000000000000000000000000000028152600401808373ffffffffffffffffffffffffffffffffffffffff1673ffffffffffffffffffffffffffffffffffffffff16815260200182815260200192505050600060405180830381600087803b158015616dc857600080fd5b505af1158015616ddc573d6000803e3d6000fd5b505050505b8173ffffffffffffffffffffffffffffffffffffffff16637eee288d85856040518363ffffffff167c0100000000000000000000000000000000000000000000000000000000028152600401808373ffffffffffffffffffffffffffffffffffffffff1673ffffffffffffffffffffffffffffffffffffffff16815260200182815260200192505050600060405180830381600087803b158015616e8457600080fd5b505af1158015616e98573d6000803e3d6000fd5b5050505050505050565b828054600181600116156101000203166002900490600052602060002090601f016020900481019282601f10616ee357805160ff1916838001178555616f11565b82800160010185558215616f11579182015b82811115616f10578251825591602001919060010190616ef5565b5b509050616f1e9190616fa9565b5090565b828054600181600116156101000203166002900490600052602060002090601f016020900481019282601f10616f5b5780548555616f98565b82800160010185558215616f9857600052602060002091601f016020900482015b82811115616f97578254825591600101919060010190616f7c565b5b509050616fa59190616fa9565b5090565b616fcb91905b80821115616fc7576000816000905550600101616faf565b5090565b905600a165627a7a723058206c2941568132fcc87943a21dd17b00f657d369d62836e257a5cf548df21920410029",
  "source": "pragma solidity ^0.4.24;\n\nimport \"openzeppelin-solidity/contracts/utils/ReentrancyGuard.sol\";\nimport \"./abstract/BallotEnums.sol\";\nimport \"./abstract/EnvConstants.sol\";\nimport \"./interface/IBallotStorage.sol\";\nimport \"./interface/IEnvStorage.sol\";\nimport \"./interface/IStaking.sol\";\nimport \"./Gov.sol\";\n\n\ncontract GovImp is Gov, ReentrancyGuard, BallotEnums, EnvConstants {\n    using SafeMath for uint256;\n\n    event MemberAdded(address indexed addr);\n    event MemberRemoved(address indexed addr);\n    event MemberChanged(address indexed oldAddr, address indexed newAddr);\n    event EnvChanged(bytes32 envName, uint256 envType, bytes envVal);\n    event MemberUpdated(address indexed addr);\n    \n    function addProposalToAddMember(\n        address member,\n        bytes name,\n        bytes enode,\n        bytes ip,\n        uint256[2] port_lockAmount,\n        bytes memo\n    )\n        external\n        onlyGovMem\n        returns (uint256 ballotIdx)\n    {\n        require(msg.sender != member, \"Cannot add self\");\n        require(!isMember(member), \"Already member\");\n\n        ballotIdx = ballotLength.add(1);\n        createBallotForMember(\n            ballotIdx, // ballot id\n            uint256(BallotTypes.MemberAdd), // ballot type\n            msg.sender, // creator\n            address(0), // old member address\n            member, // new member address\n            name,\n            enode, // new enode\n            ip, // new ip\n            port_lockAmount[0] // new port\n        );\n        updateBallotLock(ballotIdx, port_lockAmount[1]);\n        updateBallotMemo(ballotIdx, memo);\n        ballotLength = ballotIdx;\n    }\n\n    function addProposalToRemoveMember(\n        address member,\n        uint256 lockAmount,\n        bytes memo\n    )\n        external\n        onlyGovMem\n        returns (uint256 ballotIdx)\n    {\n        require(isMember(member), \"Non-member\");\n        require(getMemberLength() > 1, \"Cannot remove a sole member\");\n\n        ballotIdx = ballotLength.add(1);\n        createBallotForMember(\n            ballotIdx, // ballot id\n            uint256(BallotTypes.MemberRemoval), // ballot type\n            msg.sender, // creator\n            member, // old member address\n            address(0), // new member address\n            new bytes(0), // new name\n            new bytes(0), // new enode\n            new bytes(0), // new ip\n            0 // new port\n        );\n        updateBallotLock(ballotIdx, lockAmount);\n        updateBallotMemo(ballotIdx, memo);\n        ballotLength = ballotIdx;\n    }\n\n    function addProposalToChangeMember(\n        address[2] target_nMember,\n        bytes nName,\n        bytes nEnode,\n        bytes nIp,\n        uint256[2] port_lockAmount,\n        bytes memo\n    )\n        external\n        onlyGovMem\n        returns (uint256 ballotIdx)\n    {\n        require(isMember(target_nMember[0]), \"Non-member\");\n\n        ballotIdx = ballotLength.add(1);\n        createBallotForMember(\n            ballotIdx, // ballot id\n            uint256(BallotTypes.MemberChange), // ballot type\n            msg.sender, // creator\n            target_nMember[0], // old member address\n            target_nMember[1], // new member address\n            nName, //new Name\n            nEnode, // new enode\n            nIp, // new ip\n            port_lockAmount[0] // new port\n        );\n        updateBallotLock(ballotIdx, port_lockAmount[1]);\n        updateBallotMemo(ballotIdx, memo);\n        ballotLength = ballotIdx;\n    }\n\n    function addProposalToChangeGov(\n        address newGovAddr,\n        bytes memo\n    )\n        external\n        onlyGovMem\n        returns (uint256 ballotIdx)\n    {\n        require(newGovAddr != address(0), \"Implementation cannot be zero\");\n        require(newGovAddr != implementation(), \"Same contract address\");\n\n        ballotIdx = ballotLength.add(1);\n        IBallotStorage(getBallotStorageAddress()).createBallotForAddress(\n            ballotLength.add(1), // ballot id\n            uint256(BallotTypes.GovernanceChange), // ballot type\n            msg.sender, // creator\n            newGovAddr // new governance address\n        );\n        updateBallotMemo(ballotIdx, memo);\n        ballotLength = ballotIdx;\n    }\n\n    function addProposalToChangeEnv(\n        bytes32 envName,\n        uint256 envType,\n        bytes envVal,\n        bytes memo\n    )\n        external\n        onlyGovMem\n        returns (uint256 ballotIdx)\n    {\n        require(uint256(VariableTypes.Int) <= envType && envType <= uint256(VariableTypes.String), \"Invalid type\");\n\n        ballotIdx = ballotLength.add(1);\n        IBallotStorage(getBallotStorageAddress()).createBallotForVariable(\n            ballotIdx, // ballot id\n            uint256(BallotTypes.EnvValChange), // ballot type\n            msg.sender, // creator\n            envName, // env name\n            envType, // env type\n            envVal // env value\n        );\n        updateBallotMemo(ballotIdx, memo);\n        ballotLength = ballotIdx;\n    }\n\n    function vote(uint256 ballotIdx, bool approval) external onlyGovMem nonReentrant {\n        // Check if some ballot is in progress\n        checkUnfinalized(ballotIdx);\n\n        // Check if the ballot can be voted\n        uint256 ballotType = checkVotable(ballotIdx);\n\n        // Vote\n        createVote(ballotIdx, approval);\n\n        // Finalize\n        (, uint256 accept, uint256 reject) = getBallotVotingInfo(ballotIdx);\n        if (accept < getThreshould() && reject < getThreshould()) {\n            return;\n        }\n        finalizeVote(ballotIdx, ballotType, accept > reject);\n    }\n\n    function getMinStaking() public view returns (uint256) {\n        return IEnvStorage(getEnvStorageAddress()).getStakingMin();\n    }\n\n    function getMaxStaking() public view returns (uint256) {\n        return IEnvStorage(getEnvStorageAddress()).getStakingMax();\n    }\n\n    function getMinVotingDuration() public view returns (uint256) {\n        return IEnvStorage(getEnvStorageAddress()).getBallotDurationMin();\n    }\n    \n    function getMaxVotingDuration() public view returns (uint256) {\n        return IEnvStorage(getEnvStorageAddress()).getBallotDurationMax();\n    }\n\n    function getThreshould() public pure returns (uint256) { return 5100; } // 51% from 5100 of 10000\n\n    function checkUnfinalized(uint256 ballotIdx) private {\n        if (ballotInVoting != 0) {\n            (, uint256 state, ) = getBallotState(ballotInVoting);\n            (, uint256 endTime, ) = getBallotPeriod(ballotInVoting);\n            if (state == uint256(BallotStates.InProgress)) {\n                if (endTime < block.timestamp) {\n                    finalizeBallot(ballotInVoting, uint256(BallotStates.Rejected));\n                    ballotInVoting = 0;\n                    if (ballotIdx == ballotInVoting) {\n                        return;\n                    }\n                } else if (ballotIdx != ballotInVoting) {\n                    revert(\"Now in voting with different ballot\");\n                }\n            }\n        }\n    }\n\n    function checkVotable(uint256 ballotIdx) private returns (uint256) {\n        (uint256 ballotType, uint256 state, ) = getBallotState(ballotIdx);\n        if (state == uint256(BallotStates.Ready)) {\n            (, , uint256 duration) = getBallotPeriod(ballotIdx);\n            if (duration < getMinVotingDuration()) {\n                startBallot(ballotIdx, block.timestamp, block.timestamp + getMinVotingDuration());\n            } else if (getMaxVotingDuration() < duration) {\n                startBallot(ballotIdx, block.timestamp, block.timestamp + getMaxVotingDuration());\n            } else {\n                startBallot(ballotIdx, block.timestamp, block.timestamp + duration);\n            }\n            ballotInVoting = ballotIdx;\n        } else if (state == uint256(BallotStates.InProgress)) {\n            // Nothing to do\n        } else {\n            revert(\"Expired\");\n        }\n        return ballotType;\n    }\n\n    function createVote(uint256 ballotIdx, bool approval) private {\n        uint256 voteIdx = voteLength.add(1);\n        uint256 weight = IStaking(getStakingAddress()).calcVotingWeightWithScaleFactor(msg.sender, 1e4);\n        if (approval) {\n            IBallotStorage(getBallotStorageAddress()).createVote(\n                voteIdx,\n                ballotIdx,\n                msg.sender,\n                uint256(DecisionTypes.Accept),\n                weight\n            );\n        } else {\n            IBallotStorage(getBallotStorageAddress()).createVote(\n                voteIdx,\n                ballotIdx,\n                msg.sender,\n                uint256(DecisionTypes.Reject),\n                weight\n            );\n        }\n        voteLength = voteIdx;\n    }\n\n    function finalizeVote(uint256 ballotIdx, uint256 ballotType, bool isAccepted) private {\n        uint256 ballotState = uint256(BallotStates.Rejected);\n        if (isAccepted) {\n            if (ballotType == uint256(BallotTypes.MemberAdd)) {\n                addMember(ballotIdx);\n            } else if (ballotType == uint256(BallotTypes.MemberRemoval)) {\n                removeMember(ballotIdx);\n            } else if (ballotType == uint256(BallotTypes.MemberChange)) {\n                changeMember(ballotIdx);\n            } else if (ballotType == uint256(BallotTypes.GovernanceChange)) {\n                changeGov(ballotIdx);\n            } else if (ballotType == uint256(BallotTypes.EnvValChange)) {\n                applyEnv(ballotIdx);\n            }\n            ballotState = uint256(BallotStates.Accepted);\n        }\n        finalizeBallot(ballotIdx, ballotState);\n        ballotInVoting = 0;\n    }\n\n    function fromValidBallot(uint256 ballotIdx, uint256 targetType) private view {\n        (uint256 ballotType, uint256 state, ) = getBallotState(ballotIdx);\n        require(ballotType == targetType, \"Invalid voting type\");\n        require(state == uint(BallotStates.InProgress), \"Invalid voting state\");\n        (, uint256 accept, uint256 reject) = getBallotVotingInfo(ballotIdx);\n        require(accept >= getThreshould() || reject >= getThreshould(), \"Not yet finalized\");\n    }\n\n    function addMember(uint256 ballotIdx) private {\n        fromValidBallot(ballotIdx, uint256(BallotTypes.MemberAdd));\n\n        (\n            , address addr,\n            bytes memory name,\n            bytes memory enode,\n            bytes memory ip,\n            uint port,\n            uint256 lockAmount\n        ) = getBallotMember(ballotIdx);\n        if (isMember(addr)) {\n            return; // Already member. it is abnormal case\n        }\n\n        // Lock\n        require(getMinStaking() <= lockAmount && lockAmount <= getMaxStaking(), \"Invalid lock amount\");\n        lock(addr, lockAmount);\n\n        // Add voting and reward member\n        uint256 nMemIdx = memberLength.add(1);\n        members[nMemIdx] = addr;\n        memberIdx[addr] = nMemIdx;\n        rewards[nMemIdx] = addr;\n        rewardIdx[addr] = nMemIdx;\n\n        // Add node\n        uint256 nNodeIdx = nodeLength.add(1);\n        Node storage node = nodes[nNodeIdx];\n\n        node.enode = enode;\n        node.ip = ip;\n        node.port = port;\n        nodeToMember[nNodeIdx] = addr;\n        nodeIdxFromMember[addr] = nNodeIdx;\n        node.name = name;\n        memberLength = nMemIdx;\n        nodeLength = nNodeIdx;\n        modifiedBlock = block.number;\n        emit MemberAdded(addr);\n    }\n\n    function removeMember(uint256 ballotIdx) private {\n        fromValidBallot(ballotIdx, uint256(BallotTypes.MemberRemoval));\n\n        (address addr, , , , , , uint256 unlockAmount) = getBallotMember(ballotIdx);\n        if (!isMember(addr)) {\n            return; // Non-member. it is abnormal case\n        }\n\n        // Remove voting and reward member\n        if (memberIdx[addr] != memberLength) {\n            (members[memberIdx[addr]], members[memberLength]) = (members[memberLength], members[memberIdx[addr]]);\n            (rewards[memberIdx[addr]], rewards[memberLength]) = (rewards[memberLength], rewards[memberIdx[addr]]);\n        }\n        members[memberLength] = address(0);\n        memberIdx[addr] = 0;\n        rewards[memberLength] = address(0);\n        rewardIdx[rewards[memberLength]] = 0;\n        memberLength = memberLength.sub(1);\n\n        // Remove node\n        if (nodeIdxFromMember[addr] != nodeLength) {\n            Node storage node = nodes[nodeIdxFromMember[addr]];\n            node.name = nodes[nodeLength].name;\n            node.enode = nodes[nodeLength].enode;\n            node.ip = nodes[nodeLength].ip;\n            node.port = nodes[nodeLength].port;\n        }\n        nodeToMember[nodeLength] = address(0);\n        nodeIdxFromMember[addr] = 0;\n        nodeLength = nodeLength.sub(1);\n        modifiedBlock = block.number;\n        // Unlock and transfer remained to governance\n        transferLockedAndUnlock(addr, unlockAmount);\n\n        emit MemberRemoved(addr);\n    }\n\n    function changeMember(uint256 ballotIdx) private {\n        fromValidBallot(ballotIdx, uint256(BallotTypes.MemberChange));\n        \n        (\n            address addr,\n            address nAddr,\n            bytes memory name,\n            bytes memory enode,\n            bytes memory ip,\n            uint port,\n            uint256 lockAmount\n        ) = getBallotMember(ballotIdx);\n        if (!isMember(addr)) {\n            return; // Non-member. it is abnormal case\n        }\n\n        if (addr != nAddr) {\n            // Lock\n            require(getMinStaking() <= lockAmount && lockAmount <= getMaxStaking(), \"Invalid lock amount\");\n            lock(nAddr, lockAmount);\n\n            // Change member\n            members[memberIdx[addr]] = nAddr;\n            memberIdx[nAddr] = memberIdx[addr];\n            rewards[memberIdx[addr]] = nAddr;\n            rewardIdx[nAddr] = rewardIdx[addr];\n            memberIdx[addr] = 0;\n        }\n\n        // Change node\n        uint256 nodeIdx = nodeIdxFromMember[addr];\n        Node storage node = nodes[nodeIdx];\n        node.name = name;\n        node.enode = enode;\n        node.ip = ip;\n        node.port = port;\n        modifiedBlock = block.number;\n        if (addr != nAddr) {\n            nodeToMember[nodeIdx] = nAddr;\n            nodeIdxFromMember[nAddr] = nodeIdx;\n            nodeIdxFromMember[addr] = 0;\n\n            // Unlock and transfer remained to governance\n            transferLockedAndUnlock(addr, lockAmount);\n\n            emit MemberChanged(addr, nAddr);\n        }else{\n            emit MemberUpdated(addr);\n        }\n    }\n\n    function changeGov(uint256 ballotIdx) private {\n        fromValidBallot(ballotIdx, uint256(BallotTypes.GovernanceChange));\n\n        address newImp = IBallotStorage(getBallotStorageAddress()).getBallotAddress(ballotIdx);\n        if (newImp != address(0)) {\n            setImplementation(newImp);\n        }\n    }\n\n    function applyEnv(uint256 ballotIdx) private {\n        fromValidBallot(ballotIdx, uint256(BallotTypes.EnvValChange));\n\n        (\n            bytes32 envKey,\n            uint256 envType,\n            bytes memory envVal\n        ) = IBallotStorage(getBallotStorageAddress()).getBallotVariable(ballotIdx);\n\n        IEnvStorage envStorage = IEnvStorage(getEnvStorageAddress());\n        if (envKey == BLOCK_PER_NAME && envType == BLOCK_PER_TYPE) {\n            envStorage.setBlockPerByBytes(envVal);\n        } else if (envKey == BALLOT_DURATION_MIN_NAME && envType == BALLOT_DURATION_MIN_TYPE) {\n            envStorage.setBallotDurationMinByBytes(envVal);\n        } else if (envKey == BALLOT_DURATION_MAX_NAME && envType == BALLOT_DURATION_MAX_TYPE) {\n            envStorage.setBallotDurationMaxByBytes(envVal);\n        } else if (envKey == STAKING_MIN_NAME && envType == STAKING_MIN_TYPE) {\n            envStorage.setStakingMinByBytes(envVal);\n        } else if (envKey == STAKING_MAX_NAME && envType == STAKING_MAX_TYPE) {\n            envStorage.setStakingMaxByBytes(envVal);\n        }\n        modifiedBlock = block.number;\n        emit EnvChanged(envKey, envType, envVal);\n    }\n\n    //------------------ Code reduction for creation gas\n    function createBallotForMember(\n        uint256 id,\n        uint256 bType,\n        address creator,\n        address oAddr,\n        address nAddr,\n        bytes name,\n        bytes enode,\n        bytes ip,\n        uint port\n    )\n        private\n    {\n        IBallotStorage(getBallotStorageAddress()).createBallotForMember(\n            id, // ballot id\n            bType, // ballot type\n            creator, // creator\n            oAddr, // old member address\n            nAddr, // new member address\n            name, // new name\n            enode, // new enode\n            ip, // new ip\n            port // new port\n        );\n    }\n\n    function updateBallotLock(uint256 id, uint256 amount) private {\n        IBallotStorage(getBallotStorageAddress()).updateBallotMemberLockAmount(id, amount);\n    }\n\n    function updateBallotMemo(uint256 id, bytes memo) private {\n        IBallotStorage(getBallotStorageAddress()).updateBallotMemo(id, memo);\n    }\n\n    function startBallot(uint256 id, uint256 s, uint256 e) private {\n        IBallotStorage(getBallotStorageAddress()).startBallot(id, s, e);\n    }\n\n    function finalizeBallot(uint256 id, uint256 state) private {\n        IBallotStorage(getBallotStorageAddress()).finalizeBallot(id, state);\n    }\n\n    function getBallotState(uint256 id) private view returns (uint256, uint256, bool) {\n        return IBallotStorage(getBallotStorageAddress()).getBallotState(id);\n    }\n\n    function getBallotPeriod(uint256 id) private view returns (uint256, uint256, uint256) {\n        return IBallotStorage(getBallotStorageAddress()).getBallotPeriod(id);\n    }\n\n    function getBallotVotingInfo(uint256 id) private view returns (uint256, uint256, uint256) {\n        return IBallotStorage(getBallotStorageAddress()).getBallotVotingInfo(id);\n    }\n\n    function getBallotMember(uint256 id) private view returns (address, address, bytes, bytes, bytes, uint256, uint256) {\n        return IBallotStorage(getBallotStorageAddress()).getBallotMember(id);\n    }\n\n    function lock(address addr, uint256 amount) private {\n        IStaking(getStakingAddress()).lock(addr, amount);\n    }\n\n    function unlock(address addr, uint256 amount) private {\n        IStaking(getStakingAddress()).unlock(addr, amount);\n    }\n\n    function transferLockedAndUnlock(address addr, uint256 unlockAmount) private {\n        IStaking staking = IStaking(getStakingAddress());\n        uint256 locked = staking.lockedBalanceOf(addr);\n        if (locked > unlockAmount) {\n            staking.transferLocked(addr, locked.sub(unlockAmount));\n        }\n        staking.unlock(addr, unlockAmount);\n    }\n    //------------------ Code reduction end\n}",
  "sourcePath": "/Users/ywshin/Documents/WS/truffle/governance-contract-blueisle/contracts/GovImp.sol",
  "compiler": {
    "name": "solc",
    "version": "0.4.24+commit.e67f0147.Emscripten.clang"
  },
  "schemaVersion": "2.0.1",
  "updatedAt": "2019-03-12T10:44:01.920Z"
}