{
  "contractName": "Staking",
  "abi": [
    {
      "constant": true,
      "inputs": [],
      "name": "STAKING_NAME",
      "outputs": [
        {
          "name": "",
          "type": "bytes32"
        }
      ],
      "payable": false,
      "stateMutability": "view",
      "type": "function"
    },
    {
      "constant": true,
      "inputs": [],
      "name": "REWARD_POOL_NAME",
      "outputs": [
        {
          "name": "",
          "type": "bytes32"
        }
      ],
      "payable": false,
      "stateMutability": "view",
      "type": "function"
    },
    {
      "constant": true,
      "inputs": [],
      "name": "GOV_NAME",
      "outputs": [
        {
          "name": "",
          "type": "bytes32"
        }
      ],
      "payable": false,
      "stateMutability": "view",
      "type": "function"
    },
    {
      "constant": false,
      "inputs": [],
      "name": "renounceOwnership",
      "outputs": [],
      "payable": false,
      "stateMutability": "nonpayable",
      "type": "function"
    },
    {
      "constant": true,
      "inputs": [],
      "name": "reg",
      "outputs": [
        {
          "name": "",
          "type": "address"
        }
      ],
      "payable": false,
      "stateMutability": "view",
      "type": "function"
    },
    {
      "constant": true,
      "inputs": [],
      "name": "ENV_STORAGE_NAME",
      "outputs": [
        {
          "name": "",
          "type": "bytes32"
        }
      ],
      "payable": false,
      "stateMutability": "view",
      "type": "function"
    },
    {
      "constant": true,
      "inputs": [],
      "name": "owner",
      "outputs": [
        {
          "name": "",
          "type": "address"
        }
      ],
      "payable": false,
      "stateMutability": "view",
      "type": "function"
    },
    {
      "constant": true,
      "inputs": [],
      "name": "isOwner",
      "outputs": [
        {
          "name": "",
          "type": "bool"
        }
      ],
      "payable": false,
      "stateMutability": "view",
      "type": "function"
    },
    {
      "constant": true,
      "inputs": [],
      "name": "BALLOT_STORAGE_NAME",
      "outputs": [
        {
          "name": "",
          "type": "bytes32"
        }
      ],
      "payable": false,
      "stateMutability": "view",
      "type": "function"
    },
    {
      "constant": false,
      "inputs": [
        {
          "name": "_addr",
          "type": "address"
        }
      ],
      "name": "setRegistry",
      "outputs": [],
      "payable": false,
      "stateMutability": "nonpayable",
      "type": "function"
    },
    {
      "constant": false,
      "inputs": [
        {
          "name": "newOwner",
          "type": "address"
        }
      ],
      "name": "transferOwnership",
      "outputs": [],
      "payable": false,
      "stateMutability": "nonpayable",
      "type": "function"
    },
    {
      "inputs": [
        {
          "name": "registry",
          "type": "address"
        },
        {
          "name": "data",
          "type": "bytes"
        }
      ],
      "payable": false,
      "stateMutability": "nonpayable",
      "type": "constructor"
    },
    {
      "payable": true,
      "stateMutability": "payable",
      "type": "fallback"
    },
    {
      "anonymous": false,
      "inputs": [
        {
          "indexed": true,
          "name": "payee",
          "type": "address"
        },
        {
          "indexed": false,
          "name": "amount",
          "type": "uint256"
        },
        {
          "indexed": false,
          "name": "total",
          "type": "uint256"
        },
        {
          "indexed": false,
          "name": "available",
          "type": "uint256"
        }
      ],
      "name": "Staked",
      "type": "event"
    },
    {
      "anonymous": false,
      "inputs": [
        {
          "indexed": true,
          "name": "payee",
          "type": "address"
        },
        {
          "indexed": false,
          "name": "amount",
          "type": "uint256"
        },
        {
          "indexed": false,
          "name": "total",
          "type": "uint256"
        },
        {
          "indexed": false,
          "name": "available",
          "type": "uint256"
        }
      ],
      "name": "Unstaked",
      "type": "event"
    },
    {
      "anonymous": false,
      "inputs": [
        {
          "indexed": true,
          "name": "payee",
          "type": "address"
        },
        {
          "indexed": false,
          "name": "amount",
          "type": "uint256"
        },
        {
          "indexed": false,
          "name": "total",
          "type": "uint256"
        },
        {
          "indexed": false,
          "name": "available",
          "type": "uint256"
        }
      ],
      "name": "Locked",
      "type": "event"
    },
    {
      "anonymous": false,
      "inputs": [
        {
          "indexed": true,
          "name": "payee",
          "type": "address"
        },
        {
          "indexed": false,
          "name": "amount",
          "type": "uint256"
        },
        {
          "indexed": false,
          "name": "total",
          "type": "uint256"
        },
        {
          "indexed": false,
          "name": "available",
          "type": "uint256"
        }
      ],
      "name": "Unlocked",
      "type": "event"
    },
    {
      "anonymous": false,
      "inputs": [
        {
          "indexed": true,
          "name": "owner",
          "type": "address"
        },
        {
          "indexed": false,
          "name": "amount",
          "type": "uint256"
        }
      ],
      "name": "Revoked",
      "type": "event"
    },
    {
      "anonymous": false,
      "inputs": [
        {
          "indexed": true,
          "name": "previousOwner",
          "type": "address"
        },
        {
          "indexed": true,
          "name": "newOwner",
          "type": "address"
        }
      ],
      "name": "OwnershipTransferred",
      "type": "event"
    },
    {
      "constant": false,
      "inputs": [],
      "name": "deposit",
      "outputs": [],
      "payable": true,
      "stateMutability": "payable",
      "type": "function"
    },
    {
      "constant": false,
      "inputs": [
        {
          "name": "amount",
          "type": "uint256"
        }
      ],
      "name": "withdraw",
      "outputs": [],
      "payable": false,
      "stateMutability": "nonpayable",
      "type": "function"
    },
    {
      "constant": false,
      "inputs": [
        {
          "name": "payee",
          "type": "address"
        },
        {
          "name": "lockAmount",
          "type": "uint256"
        }
      ],
      "name": "lock",
      "outputs": [],
      "payable": false,
      "stateMutability": "nonpayable",
      "type": "function"
    },
    {
      "constant": false,
      "inputs": [
        {
          "name": "from",
          "type": "address"
        },
        {
          "name": "amount",
          "type": "uint256"
        }
      ],
      "name": "transferLocked",
      "outputs": [],
      "payable": false,
      "stateMutability": "nonpayable",
      "type": "function"
    },
    {
      "constant": false,
      "inputs": [
        {
          "name": "payee",
          "type": "address"
        },
        {
          "name": "unlockAmount",
          "type": "uint256"
        }
      ],
      "name": "unlock",
      "outputs": [],
      "payable": false,
      "stateMutability": "nonpayable",
      "type": "function"
    },
    {
      "constant": true,
      "inputs": [
        {
          "name": "payee",
          "type": "address"
        }
      ],
      "name": "balanceOf",
      "outputs": [
        {
          "name": "",
          "type": "uint256"
        }
      ],
      "payable": false,
      "stateMutability": "view",
      "type": "function"
    },
    {
      "constant": true,
      "inputs": [
        {
          "name": "payee",
          "type": "address"
        }
      ],
      "name": "lockedBalanceOf",
      "outputs": [
        {
          "name": "",
          "type": "uint256"
        }
      ],
      "payable": false,
      "stateMutability": "view",
      "type": "function"
    },
    {
      "constant": true,
      "inputs": [
        {
          "name": "payee",
          "type": "address"
        }
      ],
      "name": "availableBalanceOf",
      "outputs": [
        {
          "name": "",
          "type": "uint256"
        }
      ],
      "payable": false,
      "stateMutability": "view",
      "type": "function"
    },
    {
      "constant": true,
      "inputs": [
        {
          "name": "payee",
          "type": "address"
        }
      ],
      "name": "calcVotingWeight",
      "outputs": [
        {
          "name": "",
          "type": "uint256"
        }
      ],
      "payable": false,
      "stateMutability": "view",
      "type": "function"
    },
    {
      "constant": true,
      "inputs": [
        {
          "name": "payee",
          "type": "address"
        },
        {
          "name": "factor",
          "type": "uint32"
        }
      ],
      "name": "calcVotingWeightWithScaleFactor",
      "outputs": [
        {
          "name": "",
          "type": "uint256"
        }
      ],
      "payable": false,
      "stateMutability": "view",
      "type": "function"
    },
    {
      "constant": true,
      "inputs": [],
      "name": "isRevoked",
      "outputs": [
        {
          "name": "",
          "type": "bool"
        }
      ],
      "payable": false,
      "stateMutability": "view",
      "type": "function"
    },
    {
      "constant": false,
      "inputs": [],
      "name": "revoke",
      "outputs": [],
      "payable": false,
      "stateMutability": "nonpayable",
      "type": "function"
    }
  ],
  "bytecode": "0x60806040526000600660006101000a81548160ff0219169083151502179055503480156200002c57600080fd5b5060405162001fcb38038062001fcb8339810180604052810190808051906020019092919080518201929190505050600080600080336000806101000a81548173ffffffffffffffffffffffffffffffffffffffff021916908373ffffffffffffffffffffffffffffffffffffffff1602179055506000809054906101000a900473ffffffffffffffffffffffffffffffffffffffff1673ffffffffffffffffffffffffffffffffffffffff16600073ffffffffffffffffffffffffffffffffffffffff167f8be0079c531659141344cd1fd0a4f28419497f9722a3daafe3b4186f6b6457e060405160405180910390a3600160028190555060006005819055506200014786620001eb640100000000026401000000009004565b6000855114156200015857620001df565b6020850191508451820190505b80821015620001de578151925082935060208201915080821015156200018a57600080fd5b8151925060208201915082600360008673ffffffffffffffffffffffffffffffffffffffff1673ffffffffffffffffffffffffffffffffffffffff1681526020019081526020016000208190555062000165565b5b505050505050620002ab565b6200020462000254640100000000026401000000009004565b15156200021057600080fd5b80600160006101000a81548173ffffffffffffffffffffffffffffffffffffffff021916908373ffffffffffffffffffffffffffffffffffffffff16021790555050565b60008060009054906101000a900473ffffffffffffffffffffffffffffffffffffffff1673ffffffffffffffffffffffffffffffffffffffff163373ffffffffffffffffffffffffffffffffffffffff1614905090565b611d1080620002bb6000396000f300608060405260043610610133576000357c0100000000000000000000000000000000000000000000000000000000900463ffffffff1680631e0cba0d1461013857806325d998bb1461016b578063282d3fdf146101c25780632bc9ed021461020f5780632e1a7d4d1461023e5780632f40992e1461026b578063593557361461029e5780636c78d2cf146102f557806370a0823114610328578063715018a61461037f578063738fdd1a146103965780637756c908146103ed5780637bf465301461043a5780637d77a0eb1461046d5780637eee288d146104d4578063884d97a7146105215780638da5cb5b146105785780638f32d59b146105cf5780639986e4b9146105fe578063a91ee0dc14610631578063b6549f7514610674578063d0e30db01461068b578063f2fde38b14610695575b600080fd5b34801561014457600080fd5b5061014d6106d8565b60405180826000191660001916815260200191505060405180910390f35b34801561017757600080fd5b506101ac600480360381019080803573ffffffffffffffffffffffffffffffffffffffff1690602001909291905050506106fc565b6040518082815260200191505060405180910390f35b3480156101ce57600080fd5b5061020d600480360381019080803573ffffffffffffffffffffffffffffffffffffffff16906020019092919080359060200190929190505050610796565b005b34801561021b57600080fd5b50610224610b1c565b604051808215151515815260200191505060405180910390f35b34801561024a57600080fd5b5061026960048036038101908080359060200190929190505050610b33565b005b34801561027757600080fd5b50610280610e0b565b60405180826000191660001916815260200191505060405180910390f35b3480156102aa57600080fd5b506102df600480360381019080803573ffffffffffffffffffffffffffffffffffffffff169060200190929190505050610e2f565b6040518082815260200191505060405180910390f35b34801561030157600080fd5b5061030a610e78565b60405180826000191660001916815260200191505060405180910390f35b34801561033457600080fd5b50610369600480360381019080803573ffffffffffffffffffffffffffffffffffffffff169060200190929190505050610e9c565b6040518082815260200191505060405180910390f35b34801561038b57600080fd5b50610394610ee5565b005b3480156103a257600080fd5b506103ab610fb7565b604051808273ffffffffffffffffffffffffffffffffffffffff1673ffffffffffffffffffffffffffffffffffffffff16815260200191505060405180910390f35b3480156103f957600080fd5b50610438600480360381019080803573ffffffffffffffffffffffffffffffffffffffff16906020019092919080359060200190929190505050610fdd565b005b34801561044657600080fd5b5061044f6111cc565b60405180826000191660001916815260200191505060405180910390f35b34801561047957600080fd5b506104be600480360381019080803573ffffffffffffffffffffffffffffffffffffffff169060200190929190803563ffffffff1690602001909291905050506111f0565b6040518082815260200191505060405180910390f35b3480156104e057600080fd5b5061051f600480360381019080803573ffffffffffffffffffffffffffffffffffffffff169060200190929190803590602001909291905050506112c8565b005b34801561052d57600080fd5b50610562600480360381019080803573ffffffffffffffffffffffffffffffffffffffff1690602001909291905050506114cb565b6040518082815260200191505060405180910390f35b34801561058457600080fd5b5061058d6114df565b604051808273ffffffffffffffffffffffffffffffffffffffff1673ffffffffffffffffffffffffffffffffffffffff16815260200191505060405180910390f35b3480156105db57600080fd5b506105e4611508565b604051808215151515815260200191505060405180910390f35b34801561060a57600080fd5b5061061361155f565b60405180826000191660001916815260200191505060405180910390f35b34801561063d57600080fd5b50610672600480360381019080803573ffffffffffffffffffffffffffffffffffffffff169060200190929190505050611583565b005b34801561068057600080fd5b506106896115da565b005b61069361175c565b005b3480156106a157600080fd5b506106d6600480360381019080803573ffffffffffffffffffffffffffffffffffffffff1690602001909291905050506119e4565b005b7f5374616b696e670000000000000000000000000000000000000000000000000081565b600061078f600460008473ffffffffffffffffffffffffffffffffffffffff1673ffffffffffffffffffffffffffffffffffffffff16815260200190815260200160002054600360008573ffffffffffffffffffffffffffffffffffffffff1673ffffffffffffffffffffffffffffffffffffffff16815260200190815260200160002054611a0390919063ffffffff16565b9050919050565b3373ffffffffffffffffffffffffffffffffffffffff166107b5611a24565b73ffffffffffffffffffffffffffffffffffffffff16141515610840576040517f08c379a000000000000000000000000000000000000000000000000000000000815260040180806020018281038252600d8152602001807f4e6f205065726d697373696f6e0000000000000000000000000000000000000081525060200191505060405180910390fd5b80600360008473ffffffffffffffffffffffffffffffffffffffff1673ffffffffffffffffffffffffffffffffffffffff168152602001908152602001600020541015151561091d576040517f08c379a00000000000000000000000000000000000000000000000000000000081526004018080602001828103825260308152602001807f4c6f636b20616d6f756e742073686f756c6420626520657175616c206f72206c81526020017f657373207468616e2062616c616e63650000000000000000000000000000000081525060400191505060405180910390fd5b80610927836106fc565b101515156109c3576040517f08c379a00000000000000000000000000000000000000000000000000000000081526004018080602001828103825260278152602001807f496e73756666696369656e742062616c616e636520746861742063616e20626581526020017f206c6f636b65640000000000000000000000000000000000000000000000000081525060400191505060405180910390fd5b610a1581600460008573ffffffffffffffffffffffffffffffffffffffff1673ffffffffffffffffffffffffffffffffffffffff16815260200190815260200160002054611a5490919063ffffffff16565b600460008473ffffffffffffffffffffffffffffffffffffffff1673ffffffffffffffffffffffffffffffffffffffff16815260200190815260200160002081905550610a6d81600554611a5490919063ffffffff16565b6005819055508173ffffffffffffffffffffffffffffffffffffffff167f44cebfefa4561bee5b61d675ccfd8dc9969fff9cc15e7a4eccccd62af94f9c1182600360008673ffffffffffffffffffffffffffffffffffffffff1673ffffffffffffffffffffffffffffffffffffffff16815260200190815260200160002054610af5866106fc565b60405180848152602001838152602001828152602001935050505060405180910390a25050565b6000600660009054906101000a900460ff16905090565b600060016002600082825401925050819055506002549050600660009054906101000a900460ff16151515610bd0576040517f08c379a000000000000000000000000000000000000000000000000000000000815260040180806020018281038252600a8152602001807f4973207265766f6b65640000000000000000000000000000000000000000000081525060200191505060405180910390fd5b610bd9336106fc565b8211151515610c76576040517f08c379a00000000000000000000000000000000000000000000000000000000081526004018080602001828103825260348152602001807f576974686472617720616d6f756e742073686f756c6420626520657175616c2081526020017f6f72206c657373207468616e2062616c616e636500000000000000000000000081525060400191505060405180910390fd5b610cc882600360003373ffffffffffffffffffffffffffffffffffffffff1673ffffffffffffffffffffffffffffffffffffffff16815260200190815260200160002054611a0390919063ffffffff16565b600360003373ffffffffffffffffffffffffffffffffffffffff1673ffffffffffffffffffffffffffffffffffffffff168152602001908152602001600020819055503373ffffffffffffffffffffffffffffffffffffffff166108fc839081150290604051600060405180830381858888f19350505050158015610d51573d6000803e3d6000fd5b503373ffffffffffffffffffffffffffffffffffffffff167f204fccf0d92ed8d48f204adb39b2e81e92bad0dedb93f5716ca9478cfb57de0083600360003373ffffffffffffffffffffffffffffffffffffffff1673ffffffffffffffffffffffffffffffffffffffff16815260200190815260200160002054610dd4336106fc565b60405180848152602001838152602001828152602001935050505060405180910390a260025481141515610e0757600080fd5b5050565b7f526577617264506f6f6c0000000000000000000000000000000000000000000081565b6000600460008373ffffffffffffffffffffffffffffffffffffffff1673ffffffffffffffffffffffffffffffffffffffff168152602001908152602001600020549050919050565b7f476f7665726e616e6365436f6e7472616374000000000000000000000000000081565b6000600360008373ffffffffffffffffffffffffffffffffffffffff1673ffffffffffffffffffffffffffffffffffffffff168152602001908152602001600020549050919050565b610eed611508565b1515610ef857600080fd5b600073ffffffffffffffffffffffffffffffffffffffff166000809054906101000a900473ffffffffffffffffffffffffffffffffffffffff1673ffffffffffffffffffffffffffffffffffffffff167f8be0079c531659141344cd1fd0a4f28419497f9722a3daafe3b4186f6b6457e060405160405180910390a360008060006101000a81548173ffffffffffffffffffffffffffffffffffffffff021916908373ffffffffffffffffffffffffffffffffffffffff160217905550565b600160009054906101000a900473ffffffffffffffffffffffffffffffffffffffff1681565b60003373ffffffffffffffffffffffffffffffffffffffff16610ffe611a24565b73ffffffffffffffffffffffffffffffffffffffff16141515611089576040517f08c379a000000000000000000000000000000000000000000000000000000000815260040180806020018281038252600d8152602001807f4e6f205065726d697373696f6e0000000000000000000000000000000000000081525060200191505060405180910390fd5b61109383836112c8565b6110e582600360008673ffffffffffffffffffffffffffffffffffffffff1673ffffffffffffffffffffffffffffffffffffffff16815260200190815260200160002054611a0390919063ffffffff16565b600360008573ffffffffffffffffffffffffffffffffffffffff1673ffffffffffffffffffffffffffffffffffffffff16815260200190815260200160002081905550611130611a75565b905061118482600360008473ffffffffffffffffffffffffffffffffffffffff1673ffffffffffffffffffffffffffffffffffffffff16815260200190815260200160002054611a5490919063ffffffff16565b600360008373ffffffffffffffffffffffffffffffffffffffff1673ffffffffffffffffffffffffffffffffffffffff16815260200190815260200160002081905550505050565b7f456e7653746f726167650000000000000000000000000000000000000000000081565b600080600460008573ffffffffffffffffffffffffffffffffffffffff1673ffffffffffffffffffffffffffffffffffffffff168152602001908152602001600020541480611245575060008263ffffffff16145b1561125357600090506112c2565b6112bf6005546112b18463ffffffff16600460008873ffffffffffffffffffffffffffffffffffffffff1673ffffffffffffffffffffffffffffffffffffffff16815260200190815260200160002054611aa590919063ffffffff16565b611ae390919063ffffffff16565b90505b92915050565b3373ffffffffffffffffffffffffffffffffffffffff166112e7611a24565b73ffffffffffffffffffffffffffffffffffffffff16141515611372576040517f08c379a000000000000000000000000000000000000000000000000000000000815260040180806020018281038252600d8152602001807f4e6f205065726d697373696f6e0000000000000000000000000000000000000081525060200191505060405180910390fd5b6113c481600460008573ffffffffffffffffffffffffffffffffffffffff1673ffffffffffffffffffffffffffffffffffffffff16815260200190815260200160002054611a0390919063ffffffff16565b600460008473ffffffffffffffffffffffffffffffffffffffff1673ffffffffffffffffffffffffffffffffffffffff1681526020019081526020016000208190555061141c81600554611a0390919063ffffffff16565b6005819055508173ffffffffffffffffffffffffffffffffffffffff167f5245d528087a96a64f4589a764f00061e4671eab90cb1e019b1a5b24b2e4c2a882600360008673ffffffffffffffffffffffffffffffffffffffff1673ffffffffffffffffffffffffffffffffffffffff168152602001908152602001600020546114a4866106fc565b60405180848152602001838152602001828152602001935050505060405180910390a25050565b60006114d88260646111f0565b9050919050565b60008060009054906101000a900473ffffffffffffffffffffffffffffffffffffffff16905090565b60008060009054906101000a900473ffffffffffffffffffffffffffffffffffffffff1673ffffffffffffffffffffffffffffffffffffffff163373ffffffffffffffffffffffffffffffffffffffff1614905090565b7f42616c6c6f7453746f726167650000000000000000000000000000000000000081565b61158b611508565b151561159657600080fd5b80600160006101000a81548173ffffffffffffffffffffffffffffffffffffffff021916908373ffffffffffffffffffffffffffffffffffffffff16021790555050565b6000806115e5611508565b15156115f057600080fd5b600660009054906101000a900460ff16151515611675576040517f08c379a000000000000000000000000000000000000000000000000000000000815260040180806020018281038252600a8152602001807f4973207265766f6b65640000000000000000000000000000000000000000000081525060200191505060405180910390fd5b61167d6114df565b91503073ffffffffffffffffffffffffffffffffffffffff163190506000811115156116a857600080fd5b8173ffffffffffffffffffffffffffffffffffffffff166108fc829081150290604051600060405180830381858888f193505050501580156116ee573d6000803e3d6000fd5b506001600660006101000a81548160ff0219169083151502179055508173ffffffffffffffffffffffffffffffffffffffff167f713b90881ad62c4fa8ab6bd9197fa86481fc0c11b2edba60026514281b2dbac4826040518082815260200191505060405180910390a25050565b600060016002600082825401925050819055506002549050600660009054906101000a900460ff161515156117f9576040517f08c379a000000000000000000000000000000000000000000000000000000000815260040180806020018281038252600a8152602001807f4973207265766f6b65640000000000000000000000000000000000000000000081525060200191505060405180910390fd5b600034111515611897576040517f08c379a000000000000000000000000000000000000000000000000000000000815260040180806020018281038252602a8152602001807f4465706f73697420616d6f756e742073686f756c64206265206772656174657281526020017f207468616e207a65726f0000000000000000000000000000000000000000000081525060400191505060405180910390fd5b6118e934600360003373ffffffffffffffffffffffffffffffffffffffff1673ffffffffffffffffffffffffffffffffffffffff16815260200190815260200160002054611a5490919063ffffffff16565b600360003373ffffffffffffffffffffffffffffffffffffffff1673ffffffffffffffffffffffffffffffffffffffff168152602001908152602001600020819055503373ffffffffffffffffffffffffffffffffffffffff167fb4caaf29adda3eefee3ad552a8e85058589bf834c7466cae4ee58787f70589ed34600360003373ffffffffffffffffffffffffffffffffffffffff1673ffffffffffffffffffffffffffffffffffffffff168152602001908152602001600020546119ae336106fc565b60405180848152602001838152602001828152602001935050505060405180910390a2600254811415156119e157600080fd5b50565b6119ec611508565b15156119f757600080fd5b611a0081611b0d565b50565b600080838311151515611a1557600080fd5b82840390508091505092915050565b6000611a4f7f476f7665726e616e6365436f6e74726163740000000000000000000000000000611c07565b905090565b6000808284019050838110151515611a6b57600080fd5b8091505092915050565b6000611aa07f526577617264506f6f6c00000000000000000000000000000000000000000000611c07565b905090565b6000806000841415611aba5760009150611adc565b8284029050828482811515611acb57fe5b04141515611ad857600080fd5b8091505b5092915050565b600080600083111515611af557600080fd5b8284811515611b0057fe5b0490508091505092915050565b600073ffffffffffffffffffffffffffffffffffffffff168173ffffffffffffffffffffffffffffffffffffffff1614151515611b4957600080fd5b8073ffffffffffffffffffffffffffffffffffffffff166000809054906101000a900473ffffffffffffffffffffffffffffffffffffffff1673ffffffffffffffffffffffffffffffffffffffff167f8be0079c531659141344cd1fd0a4f28419497f9722a3daafe3b4186f6b6457e060405160405180910390a3806000806101000a81548173ffffffffffffffffffffffffffffffffffffffff021916908373ffffffffffffffffffffffffffffffffffffffff16021790555050565b6000600160009054906101000a900473ffffffffffffffffffffffffffffffffffffffff1673ffffffffffffffffffffffffffffffffffffffff16630d2020dd836040518263ffffffff167c0100000000000000000000000000000000000000000000000000000000028152600401808260001916600019168152602001915050602060405180830381600087803b158015611ca257600080fd5b505af1158015611cb6573d6000803e3d6000fd5b505050506040513d6020811015611ccc57600080fd5b810190808051906020019092919050505090509190505600a165627a7a72305820fbbc8b030774f69b51617871a056952451edd660127465c596047283e49ad4b40029",
  "source": "pragma solidity ^0.4.24;\n\nimport \"openzeppelin-solidity/contracts/math/SafeMath.sol\";\nimport \"openzeppelin-solidity/contracts/utils/ReentrancyGuard.sol\";\nimport \"./GovChecker.sol\";\n\n\ncontract Staking is GovChecker, ReentrancyGuard {\n    using SafeMath for uint256;\n\n    mapping(address => uint256) private _balance;\n    mapping(address => uint256) private _lockedBalance;\n    uint256 private _totalLockedBalance;\n    \n    event Staked(address indexed payee, uint256 amount, uint256 total, uint256 available);\n    event Unstaked(address indexed payee, uint256 amount, uint256 total, uint256 available);\n    event Locked(address indexed payee, uint256 amount, uint256 total, uint256 available);\n    event Unlocked(address indexed payee, uint256 amount, uint256 total, uint256 available);\n\n    constructor(address registry, bytes data) public {\n        _totalLockedBalance = 0;\n        setRegistry(registry);\n\n        if (data.length == 0)\n            return;\n\n        // []{address, amount}\n        address addr;\n        uint amount;\n        uint ix;\n        uint eix;\n        assembly {\n            ix := add(data, 0x20)\n        }\n        eix = ix + data.length;\n        while (ix < eix) {\n            assembly {\n                amount := mload(ix)\n            }\n            addr = address(amount);\n            ix += 0x20;\n            require (ix < eix);\n            assembly {\n                amount := mload(ix)\n            }\n            ix += 0x20;\n\n            _balance[addr] = amount;\n        }\n    }\n\n    function () external payable {\n        revert();\n    }\n\n    /**\n    * @dev Deposit from a sender.\n    */\n    function deposit() external nonReentrant notRevoked payable {\n        require(msg.value > 0, \"Deposit amount should be greater than zero\");\n\n        _balance[msg.sender] = _balance[msg.sender].add(msg.value);\n\n        emit Staked(msg.sender, msg.value, _balance[msg.sender], availableBalanceOf(msg.sender));\n    }\n\n    /**\n    * @dev Withdraw for a sender.\n    * @param amount The amount of funds will be withdrawn and transferred to.\n    */\n    function withdraw(uint256 amount) external nonReentrant notRevoked {\n        require(amount <= availableBalanceOf(msg.sender), \"Withdraw amount should be equal or less than balance\");\n\n        _balance[msg.sender] = _balance[msg.sender].sub(amount);\n        msg.sender.transfer(amount);\n\n        emit Unstaked(msg.sender, amount, _balance[msg.sender], availableBalanceOf(msg.sender));\n    }\n\n    /**\n    * @dev Lock fund\n    * @param payee The address whose funds will be locked.\n    * @param lockAmount The amount of funds will be locked.\n    */\n    function lock(address payee, uint256 lockAmount) external onlyGov {\n        require(_balance[payee] >= lockAmount, \"Lock amount should be equal or less than balance\");\n        require(availableBalanceOf(payee) >= lockAmount, \"Insufficient balance that can be locked\");\n\n        _lockedBalance[payee] = _lockedBalance[payee].add(lockAmount);\n        _totalLockedBalance = _totalLockedBalance.add(lockAmount);\n\n        emit Locked(payee, lockAmount, _balance[payee], availableBalanceOf(payee));\n    }\n\n    /**\n    * @dev Transfer locked funds to governance\n    * @param from The address whose funds will be transfered.\n    * @param amount The amount of funds will be transfered.\n    */\n    function transferLocked(address from, uint256 amount) external onlyGov {\n        unlock(from, amount);\n        _balance[from] = _balance[from].sub(amount);\n        address rewardPool = getRewardPoolAddress();\n        _balance[rewardPool] = _balance[rewardPool].add(amount);\n    }\n\n    /**\n    * @dev Unlock fund\n    * @param payee The address whose funds will be unlocked.\n    * @param unlockAmount The amount of funds will be unlocked.\n    */\n    function unlock(address payee, uint256 unlockAmount) public onlyGov {\n        // require(_lockedBalance[payee] >= unlockAmount, \"Unlock amount should be equal or less than balance locked\");\n        _lockedBalance[payee] = _lockedBalance[payee].sub(unlockAmount);\n        _totalLockedBalance = _totalLockedBalance.sub(unlockAmount);\n\n        emit Unlocked(payee, unlockAmount, _balance[payee], availableBalanceOf(payee));\n    }\n\n    function balanceOf(address payee) public view returns (uint256) {\n        return _balance[payee];\n    }\n\n    function lockedBalanceOf(address payee) public view returns (uint256) {\n        return _lockedBalance[payee];\n    }\n\n    function availableBalanceOf(address payee) public view returns (uint256) {\n        return _balance[payee].sub(_lockedBalance[payee]);\n    }\n\n    /**\n    * @dev Calculate voting weight which range between 0 and 100.\n    * @param payee The address whose funds were locked.\n    */\n    function calcVotingWeight(address payee) public view returns (uint256) {\n        return calcVotingWeightWithScaleFactor(payee, 1e2);\n    }\n\n    /**\n    * @dev Calculate voting weight with a scale factor.\n    * @param payee The address whose funds were locked.\n    * @param factor The scale factor for weight. For instance:\n    *               if 1e1, result range is between 0 ~ 10\n    *               if 1e2, result range is between 0 ~ 100\n    *               if 1e3, result range is between 0 ~ 1000\n    */\n    function calcVotingWeightWithScaleFactor(address payee, uint32 factor) public view returns (uint256) {\n        if (_lockedBalance[payee] == 0 || factor == 0) return 0;\n        return _lockedBalance[payee].mul(factor).div(_totalLockedBalance);\n    }\n\n    bool private revoked = false;\n    function isRevoked() public view returns (bool){\n        return revoked;\n    }\n    modifier notRevoked(){\n        require(!revoked, \"Is revoked\");\n        _;\n    }\n    event Revoked(address indexed owner, uint256 amount);\n    /**\n    * @notice Allows the owner to revoke the staking. Coins already staked\n    * staked funds are returned to the owner.\n    */\n    function revoke() public onlyOwner notRevoked{\n        address contractOwner = owner();\n        uint256 balance = address(this).balance;\n        \n        require(balance > 0 );\n\n        contractOwner.transfer(balance);\n        revoked = true;\n        emit Revoked(contractOwner,balance);\n    }\n}\n",
  "sourcePath": "/Users/ywshin/Documents/WS/truffle/governance-contract-blueisle/contracts/Staking.sol",
  "compiler": {
    "name": "solc",
    "version": "0.4.24+commit.e67f0147.Emscripten.clang"
  },
  "schemaVersion": "2.0.1",
  "updatedAt": "2019-03-07T08:01:08.761Z"
}